{
	"SimpleEnglishAuction.sol": {
		"SimpleEnglishAuction": {
			"abi": [
				{
					"inputs": [
						{
							"internalType": "address",
							"name": "_nftContract",
							"type": "address"
						},
						{
							"internalType": "uint256",
							"name": "_tokenId",
							"type": "uint256"
						},
						{
							"internalType": "uint256",
							"name": "_startPrice",
							"type": "uint256"
						},
						{
							"internalType": "uint256",
							"name": "_biddingPeriod",
							"type": "uint256"
						}
					],
					"stateMutability": "nonpayable",
					"type": "constructor"
				},
				{
					"inputs": [],
					"name": "AuctionAlreadyCancelled",
					"type": "error"
				},
				{
					"inputs": [],
					"name": "AuctionAlreadyEnded",
					"type": "error"
				},
				{
					"inputs": [],
					"name": "AuctionNotActive",
					"type": "error"
				},
				{
					"inputs": [],
					"name": "AuctionNotEnded",
					"type": "error"
				},
				{
					"inputs": [
						{
							"internalType": "uint256",
							"name": "required",
							"type": "uint256"
						},
						{
							"internalType": "uint256",
							"name": "provided",
							"type": "uint256"
						}
					],
					"name": "BidTooLow",
					"type": "error"
				},
				{
					"inputs": [],
					"name": "BidsAlreadyPlaced",
					"type": "error"
				},
				{
					"inputs": [],
					"name": "ETHTransferFailed",
					"type": "error"
				},
				{
					"inputs": [],
					"name": "NoBidsPlaced",
					"type": "error"
				},
				{
					"inputs": [],
					"name": "NotSeller",
					"type": "error"
				},
				{
					"inputs": [],
					"name": "NothingToRefund",
					"type": "error"
				},
				{
					"anonymous": false,
					"inputs": [],
					"name": "AuctionCancelledEvent",
					"type": "event"
				},
				{
					"anonymous": false,
					"inputs": [
						{
							"indexed": true,
							"internalType": "address",
							"name": "winner",
							"type": "address"
						},
						{
							"indexed": false,
							"internalType": "uint256",
							"name": "price",
							"type": "uint256"
						}
					],
					"name": "AuctionEnded",
					"type": "event"
				},
				{
					"anonymous": false,
					"inputs": [
						{
							"indexed": true,
							"internalType": "address",
							"name": "bidder",
							"type": "address"
						},
						{
							"indexed": false,
							"internalType": "uint256",
							"name": "amount",
							"type": "uint256"
						}
					],
					"name": "NewBid",
					"type": "event"
				},
				{
					"anonymous": false,
					"inputs": [
						{
							"indexed": true,
							"internalType": "address",
							"name": "bidder",
							"type": "address"
						},
						{
							"indexed": false,
							"internalType": "uint256",
							"name": "amount",
							"type": "uint256"
						}
					],
					"name": "RefundClaimed",
					"type": "event"
				},
				{
					"stateMutability": "payable",
					"type": "fallback"
				},
				{
					"inputs": [],
					"name": "bid",
					"outputs": [],
					"stateMutability": "payable",
					"type": "function"
				},
				{
					"inputs": [],
					"name": "cancel",
					"outputs": [],
					"stateMutability": "nonpayable",
					"type": "function"
				},
				{
					"inputs": [],
					"name": "claimRefund",
					"outputs": [],
					"stateMutability": "nonpayable",
					"type": "function"
				},
				{
					"inputs": [],
					"name": "currentTime",
					"outputs": [
						{
							"internalType": "uint256",
							"name": "",
							"type": "uint256"
						}
					],
					"stateMutability": "view",
					"type": "function"
				},
				{
					"inputs": [],
					"name": "end",
					"outputs": [],
					"stateMutability": "nonpayable",
					"type": "function"
				},
				{
					"inputs": [],
					"name": "endTime",
					"outputs": [
						{
							"internalType": "uint256",
							"name": "",
							"type": "uint256"
						}
					],
					"stateMutability": "view",
					"type": "function"
				},
				{
					"inputs": [],
					"name": "highestBid",
					"outputs": [
						{
							"internalType": "uint256",
							"name": "",
							"type": "uint256"
						}
					],
					"stateMutability": "view",
					"type": "function"
				},
				{
					"inputs": [],
					"name": "highestBidder",
					"outputs": [
						{
							"internalType": "address",
							"name": "",
							"type": "address"
						}
					],
					"stateMutability": "view",
					"type": "function"
				},
				{
					"inputs": [],
					"name": "minimumNextBid",
					"outputs": [
						{
							"internalType": "uint256",
							"name": "",
							"type": "uint256"
						}
					],
					"stateMutability": "view",
					"type": "function"
				},
				{
					"inputs": [],
					"name": "nftContract",
					"outputs": [
						{
							"internalType": "contract IERC721",
							"name": "",
							"type": "address"
						}
					],
					"stateMutability": "view",
					"type": "function"
				},
				{
					"inputs": [
						{
							"internalType": "address",
							"name": "",
							"type": "address"
						}
					],
					"name": "refunds",
					"outputs": [
						{
							"internalType": "uint256",
							"name": "",
							"type": "uint256"
						}
					],
					"stateMutability": "view",
					"type": "function"
				},
				{
					"inputs": [],
					"name": "seller",
					"outputs": [
						{
							"internalType": "address",
							"name": "",
							"type": "address"
						}
					],
					"stateMutability": "view",
					"type": "function"
				},
				{
					"inputs": [],
					"name": "startPrice",
					"outputs": [
						{
							"internalType": "uint256",
							"name": "",
							"type": "uint256"
						}
					],
					"stateMutability": "view",
					"type": "function"
				},
				{
					"inputs": [],
					"name": "state",
					"outputs": [
						{
							"internalType": "enum SimpleEnglishAuction.AuctionState",
							"name": "",
							"type": "uint8"
						}
					],
					"stateMutability": "view",
					"type": "function"
				},
				{
					"inputs": [],
					"name": "timeRemaining",
					"outputs": [
						{
							"internalType": "uint256",
							"name": "",
							"type": "uint256"
						}
					],
					"stateMutability": "view",
					"type": "function"
				},
				{
					"inputs": [],
					"name": "tokenId",
					"outputs": [
						{
							"internalType": "uint256",
							"name": "",
							"type": "uint256"
						}
					],
					"stateMutability": "view",
					"type": "function"
				},
				{
					"stateMutability": "payable",
					"type": "receive"
				}
			],
			"devdoc": {
				"kind": "dev",
				"methods": {
					"constructor": {
						"params": {
							"_biddingPeriod": "Duration of auction in seconds (e.g. 300 = 5 minutes).",
							"_nftContract": "ERC-721 contract address of the token being auctioned.",
							"_startPrice": "Minimum first bid in wei (e.g. 1000000000000000000 = 1 ETH).",
							"_tokenId": "Token ID up for auction."
						}
					}
				},
				"version": 1
			},
			"evm": {
				"assembly": "    /* \"SimpleEnglishAuction.sol\":4078:11890  contract SimpleEnglishAuction is ReentrancyGuard {... */\n  mstore(0x40, 0x0120)\n    /* \"SimpleEnglishAuction.sol\":6415:7032  constructor(... */\n  callvalue\n  dup1\n  iszero\n  tag_1\n  jumpi\n  0x00\n  dup1\n  revert\ntag_1:\n  pop\n  mload(0x40)\n  sub(codesize, bytecodeSize)\n  dup1\n  bytecodeSize\n  dup4\n  codecopy\n  dup2\n  dup2\n  add\n  0x40\n  mstore\n  dup2\n  add\n  swap1\n  tag_2\n  swap2\n  swap1\n  tag_3\n  jump\t// in\ntag_2:\n    /* \"SimpleEnglishAuction.sol\":1254:1255  1 */\n  0x01\n    /* \"SimpleEnglishAuction.sol\":1354:1361  _status */\n  0x00\n    /* \"SimpleEnglishAuction.sol\":1354:1376  _status = _NOT_ENTERED */\n  dup2\n  swap1\n  sstore\n  pop\n    /* \"SimpleEnglishAuction.sol\":6593:6594  0 */\n  0x00\n    /* \"SimpleEnglishAuction.sol\":6568:6595  _nftContract  != address(0) */\n  0xffffffffffffffffffffffffffffffffffffffff\n  and\n    /* \"SimpleEnglishAuction.sol\":6568:6580  _nftContract */\n  dup5\n    /* \"SimpleEnglishAuction.sol\":6568:6595  _nftContract  != address(0) */\n  0xffffffffffffffffffffffffffffffffffffffff\n  and\n  sub\n    /* \"SimpleEnglishAuction.sol\":6560:6621  require(_nftContract  != address(0), \"SEA: zero NFT address\") */\n  tag_8\n  jumpi\n  mload(0x40)\n  0x08c379a000000000000000000000000000000000000000000000000000000000\n  dup2\n  mstore\n  0x04\n  add\n  tag_9\n  swap1\n  tag_10\n  jump\t// in\ntag_9:\n  mload(0x40)\n  dup1\n  swap2\n  sub\n  swap1\n  revert\ntag_8:\n    /* \"SimpleEnglishAuction.sol\":6656:6657  0 */\n  0x00\n    /* \"SimpleEnglishAuction.sol\":6639:6650  _startPrice */\n  dup3\n    /* \"SimpleEnglishAuction.sol\":6639:6657  _startPrice   >  0 */\n  gt\n    /* \"SimpleEnglishAuction.sol\":6631:6698  require(_startPrice   >  0,          \"SEA: startPrice must be > 0\") */\n  tag_11\n  jumpi\n  mload(0x40)\n  0x08c379a000000000000000000000000000000000000000000000000000000000\n  dup2\n  mstore\n  0x04\n  add\n  tag_12\n  swap1\n  tag_13\n  jump\t// in\ntag_12:\n  mload(0x40)\n  dup1\n  swap2\n  sub\n  swap1\n  revert\ntag_11:\n    /* \"SimpleEnglishAuction.sol\":6733:6734  0 */\n  0x00\n    /* \"SimpleEnglishAuction.sol\":6716:6730  _biddingPeriod */\n  dup2\n    /* \"SimpleEnglishAuction.sol\":6716:6734  _biddingPeriod > 0 */\n  gt\n    /* \"SimpleEnglishAuction.sol\":6708:6778  require(_biddingPeriod > 0,          \"SEA: biddingPeriod must be > 0\") */\n  tag_14\n  jumpi\n  mload(0x40)\n  0x08c379a000000000000000000000000000000000000000000000000000000000\n  dup2\n  mstore\n  0x04\n  add\n  tag_15\n  swap1\n  tag_16\n  jump\t// in\ntag_15:\n  mload(0x40)\n  dup1\n  swap2\n  sub\n  swap1\n  revert\ntag_14:\n    /* \"SimpleEnglishAuction.sol\":6811:6823  _nftContract */\n  dup4\n    /* \"SimpleEnglishAuction.sol\":6789:6824  nftContract = IERC721(_nftContract) */\n  0xffffffffffffffffffffffffffffffffffffffff\n  and\n  0x80\n  dup2\n  0xffffffffffffffffffffffffffffffffffffffff\n  and\n  dup2\n  mstore\n  pop\n  pop\n    /* \"SimpleEnglishAuction.sol\":6848:6856  _tokenId */\n  dup3\n    /* \"SimpleEnglishAuction.sol\":6834:6856  tokenId     = _tokenId */\n  0xa0\n  dup2\n  dup2\n  mstore\n  pop\n  pop\n    /* \"SimpleEnglishAuction.sol\":6880:6891  _startPrice */\n  dup2\n    /* \"SimpleEnglishAuction.sol\":6866:6891  startPrice  = _startPrice */\n  0xc0\n  dup2\n  dup2\n  mstore\n  pop\n  pop\n    /* \"SimpleEnglishAuction.sol\":6933:6947  _biddingPeriod */\n  dup1\n    /* \"SimpleEnglishAuction.sol\":6915:6930  block.timestamp */\n  timestamp\n    /* \"SimpleEnglishAuction.sol\":6915:6947  block.timestamp + _biddingPeriod */\n  tag_17\n  swap2\n  swap1\n  tag_18\n  jump\t// in\ntag_17:\n    /* \"SimpleEnglishAuction.sol\":6901:6947  endTime     = block.timestamp + _biddingPeriod */\n  0xe0\n  dup2\n  dup2\n  mstore\n  pop\n  pop\n    /* \"SimpleEnglishAuction.sol\":6971:6981  msg.sender */\n  caller\n    /* \"SimpleEnglishAuction.sol\":6957:6981  seller      = msg.sender */\n  0xffffffffffffffffffffffffffffffffffffffff\n  and\n  0x0100\n  dup2\n  0xffffffffffffffffffffffffffffffffffffffff\n  and\n  dup2\n  mstore\n  pop\n  pop\n    /* \"SimpleEnglishAuction.sol\":7005:7025  AuctionState.STARTED */\n  0x00\n    /* \"SimpleEnglishAuction.sol\":6991:6996  state */\n  0x01\n  0x00\n    /* \"SimpleEnglishAuction.sol\":6991:7025  state       = AuctionState.STARTED */\n  0x0100\n  exp\n  dup2\n  sload\n  dup2\n  0xff\n  mul\n  not\n  and\n  swap1\n  dup4\n  0x02\n  dup2\n  gt\n  iszero\n  tag_19\n  jumpi\n  tag_20\n  tag_21\n  jump\t// in\ntag_20:\ntag_19:\n  mul\n  or\n  swap1\n  sstore\n  pop\n    /* \"SimpleEnglishAuction.sol\":6415:7032  constructor(... */\n  pop\n  pop\n  pop\n  pop\n    /* \"SimpleEnglishAuction.sol\":4078:11890  contract SimpleEnglishAuction is ReentrancyGuard {... */\n  jump(tag_22)\n    /* \"#utility.yul\":88:205   */\ntag_24:\n    /* \"#utility.yul\":197:198   */\n  0x00\n    /* \"#utility.yul\":194:195   */\n  dup1\n    /* \"#utility.yul\":187:199   */\n  revert\n    /* \"#utility.yul\":334:460   */\ntag_26:\n    /* \"#utility.yul\":371:378   */\n  0x00\n    /* \"#utility.yul\":411:453   */\n  0xffffffffffffffffffffffffffffffffffffffff\n    /* \"#utility.yul\":404:409   */\n  dup3\n    /* \"#utility.yul\":400:454   */\n  and\n    /* \"#utility.yul\":389:454   */\n  swap1\n  pop\n    /* \"#utility.yul\":334:460   */\n  swap2\n  swap1\n  pop\n  jump\t// out\n    /* \"#utility.yul\":466:562   */\ntag_27:\n    /* \"#utility.yul\":503:510   */\n  0x00\n    /* \"#utility.yul\":532:556   */\n  tag_47\n    /* \"#utility.yul\":550:555   */\n  dup3\n    /* \"#utility.yul\":532:556   */\n  tag_26\n  jump\t// in\ntag_47:\n    /* \"#utility.yul\":521:556   */\n  swap1\n  pop\n    /* \"#utility.yul\":466:562   */\n  swap2\n  swap1\n  pop\n  jump\t// out\n    /* \"#utility.yul\":568:690   */\ntag_28:\n    /* \"#utility.yul\":641:665   */\n  tag_49\n    /* \"#utility.yul\":659:664   */\n  dup2\n    /* \"#utility.yul\":641:665   */\n  tag_27\n  jump\t// in\ntag_49:\n    /* \"#utility.yul\":634:639   */\n  dup2\n    /* \"#utility.yul\":631:666   */\n  eq\n    /* \"#utility.yul\":621:684   */\n  tag_50\n  jumpi\n    /* \"#utility.yul\":680:681   */\n  0x00\n    /* \"#utility.yul\":677:678   */\n  dup1\n    /* \"#utility.yul\":670:682   */\n  revert\n    /* \"#utility.yul\":621:684   */\ntag_50:\n    /* \"#utility.yul\":568:690   */\n  pop\n  jump\t// out\n    /* \"#utility.yul\":696:839   */\ntag_29:\n    /* \"#utility.yul\":753:758   */\n  0x00\n    /* \"#utility.yul\":784:790   */\n  dup2\n    /* \"#utility.yul\":778:791   */\n  mload\n    /* \"#utility.yul\":769:791   */\n  swap1\n  pop\n    /* \"#utility.yul\":800:833   */\n  tag_52\n    /* \"#utility.yul\":827:832   */\n  dup2\n    /* \"#utility.yul\":800:833   */\n  tag_28\n  jump\t// in\ntag_52:\n    /* \"#utility.yul\":696:839   */\n  swap3\n  swap2\n  pop\n  pop\n  jump\t// out\n    /* \"#utility.yul\":845:922   */\ntag_30:\n    /* \"#utility.yul\":882:889   */\n  0x00\n    /* \"#utility.yul\":911:916   */\n  dup2\n    /* \"#utility.yul\":900:916   */\n  swap1\n  pop\n    /* \"#utility.yul\":845:922   */\n  swap2\n  swap1\n  pop\n  jump\t// out\n    /* \"#utility.yul\":928:1050   */\ntag_31:\n    /* \"#utility.yul\":1001:1025   */\n  tag_55\n    /* \"#utility.yul\":1019:1024   */\n  dup2\n    /* \"#utility.yul\":1001:1025   */\n  tag_30\n  jump\t// in\ntag_55:\n    /* \"#utility.yul\":994:999   */\n  dup2\n    /* \"#utility.yul\":991:1026   */\n  eq\n    /* \"#utility.yul\":981:1044   */\n  tag_56\n  jumpi\n    /* \"#utility.yul\":1040:1041   */\n  0x00\n    /* \"#utility.yul\":1037:1038   */\n  dup1\n    /* \"#utility.yul\":1030:1042   */\n  revert\n    /* \"#utility.yul\":981:1044   */\ntag_56:\n    /* \"#utility.yul\":928:1050   */\n  pop\n  jump\t// out\n    /* \"#utility.yul\":1056:1199   */\ntag_32:\n    /* \"#utility.yul\":1113:1118   */\n  0x00\n    /* \"#utility.yul\":1144:1150   */\n  dup2\n    /* \"#utility.yul\":1138:1151   */\n  mload\n    /* \"#utility.yul\":1129:1151   */\n  swap1\n  pop\n    /* \"#utility.yul\":1160:1193   */\n  tag_58\n    /* \"#utility.yul\":1187:1192   */\n  dup2\n    /* \"#utility.yul\":1160:1193   */\n  tag_31\n  jump\t// in\ntag_58:\n    /* \"#utility.yul\":1056:1199   */\n  swap3\n  swap2\n  pop\n  pop\n  jump\t// out\n    /* \"#utility.yul\":1205:2025   */\ntag_3:\n    /* \"#utility.yul\":1302:1308   */\n  0x00\n    /* \"#utility.yul\":1310:1316   */\n  dup1\n    /* \"#utility.yul\":1318:1324   */\n  0x00\n    /* \"#utility.yul\":1326:1332   */\n  dup1\n    /* \"#utility.yul\":1375:1378   */\n  0x80\n    /* \"#utility.yul\":1363:1372   */\n  dup6\n    /* \"#utility.yul\":1354:1361   */\n  dup8\n    /* \"#utility.yul\":1350:1373   */\n  sub\n    /* \"#utility.yul\":1346:1379   */\n  slt\n    /* \"#utility.yul\":1343:1463   */\n  iszero\n  tag_60\n  jumpi\n    /* \"#utility.yul\":1382:1461   */\n  tag_61\n  tag_24\n  jump\t// in\ntag_61:\n    /* \"#utility.yul\":1343:1463   */\ntag_60:\n    /* \"#utility.yul\":1502:1503   */\n  0x00\n    /* \"#utility.yul\":1527:1591   */\n  tag_62\n    /* \"#utility.yul\":1583:1590   */\n  dup8\n    /* \"#utility.yul\":1574:1580   */\n  dup3\n    /* \"#utility.yul\":1563:1572   */\n  dup9\n    /* \"#utility.yul\":1559:1581   */\n  add\n    /* \"#utility.yul\":1527:1591   */\n  tag_29\n  jump\t// in\ntag_62:\n    /* \"#utility.yul\":1517:1591   */\n  swap5\n  pop\n    /* \"#utility.yul\":1473:1601   */\n  pop\n    /* \"#utility.yul\":1640:1642   */\n  0x20\n    /* \"#utility.yul\":1666:1730   */\n  tag_63\n    /* \"#utility.yul\":1722:1729   */\n  dup8\n    /* \"#utility.yul\":1713:1719   */\n  dup3\n    /* \"#utility.yul\":1702:1711   */\n  dup9\n    /* \"#utility.yul\":1698:1720   */\n  add\n    /* \"#utility.yul\":1666:1730   */\n  tag_32\n  jump\t// in\ntag_63:\n    /* \"#utility.yul\":1656:1730   */\n  swap4\n  pop\n    /* \"#utility.yul\":1611:1740   */\n  pop\n    /* \"#utility.yul\":1779:1781   */\n  0x40\n    /* \"#utility.yul\":1805:1869   */\n  tag_64\n    /* \"#utility.yul\":1861:1868   */\n  dup8\n    /* \"#utility.yul\":1852:1858   */\n  dup3\n    /* \"#utility.yul\":1841:1850   */\n  dup9\n    /* \"#utility.yul\":1837:1859   */\n  add\n    /* \"#utility.yul\":1805:1869   */\n  tag_32\n  jump\t// in\ntag_64:\n    /* \"#utility.yul\":1795:1869   */\n  swap3\n  pop\n    /* \"#utility.yul\":1750:1879   */\n  pop\n    /* \"#utility.yul\":1918:1920   */\n  0x60\n    /* \"#utility.yul\":1944:2008   */\n  tag_65\n    /* \"#utility.yul\":2000:2007   */\n  dup8\n    /* \"#utility.yul\":1991:1997   */\n  dup3\n    /* \"#utility.yul\":1980:1989   */\n  dup9\n    /* \"#utility.yul\":1976:1998   */\n  add\n    /* \"#utility.yul\":1944:2008   */\n  tag_32\n  jump\t// in\ntag_65:\n    /* \"#utility.yul\":1934:2008   */\n  swap2\n  pop\n    /* \"#utility.yul\":1889:2018   */\n  pop\n    /* \"#utility.yul\":1205:2025   */\n  swap3\n  swap6\n  swap2\n  swap5\n  pop\n  swap3\n  pop\n  jump\t// out\n    /* \"#utility.yul\":2031:2200   */\ntag_33:\n    /* \"#utility.yul\":2115:2126   */\n  0x00\n    /* \"#utility.yul\":2149:2155   */\n  dup3\n    /* \"#utility.yul\":2144:2147   */\n  dup3\n    /* \"#utility.yul\":2137:2156   */\n  mstore\n    /* \"#utility.yul\":2189:2193   */\n  0x20\n    /* \"#utility.yul\":2184:2187   */\n  dup3\n    /* \"#utility.yul\":2180:2194   */\n  add\n    /* \"#utility.yul\":2165:2194   */\n  swap1\n  pop\n    /* \"#utility.yul\":2031:2200   */\n  swap3\n  swap2\n  pop\n  pop\n  jump\t// out\n    /* \"#utility.yul\":2206:2377   */\ntag_34:\n    /* \"#utility.yul\":2346:2369   */\n  0x5345413a207a65726f204e465420616464726573730000000000000000000000\n    /* \"#utility.yul\":2342:2343   */\n  0x00\n    /* \"#utility.yul\":2334:2340   */\n  dup3\n    /* \"#utility.yul\":2330:2344   */\n  add\n    /* \"#utility.yul\":2323:2370   */\n  mstore\n    /* \"#utility.yul\":2206:2377   */\n  pop\n  jump\t// out\n    /* \"#utility.yul\":2383:2749   */\ntag_35:\n    /* \"#utility.yul\":2525:2528   */\n  0x00\n    /* \"#utility.yul\":2546:2613   */\n  tag_69\n    /* \"#utility.yul\":2610:2612   */\n  0x15\n    /* \"#utility.yul\":2605:2608   */\n  dup4\n    /* \"#utility.yul\":2546:2613   */\n  tag_33\n  jump\t// in\ntag_69:\n    /* \"#utility.yul\":2539:2613   */\n  swap2\n  pop\n    /* \"#utility.yul\":2622:2715   */\n  tag_70\n    /* \"#utility.yul\":2711:2714   */\n  dup3\n    /* \"#utility.yul\":2622:2715   */\n  tag_34\n  jump\t// in\ntag_70:\n    /* \"#utility.yul\":2740:2742   */\n  0x20\n    /* \"#utility.yul\":2735:2738   */\n  dup3\n    /* \"#utility.yul\":2731:2743   */\n  add\n    /* \"#utility.yul\":2724:2743   */\n  swap1\n  pop\n    /* \"#utility.yul\":2383:2749   */\n  swap2\n  swap1\n  pop\n  jump\t// out\n    /* \"#utility.yul\":2755:3174   */\ntag_10:\n    /* \"#utility.yul\":2921:2925   */\n  0x00\n    /* \"#utility.yul\":2959:2961   */\n  0x20\n    /* \"#utility.yul\":2948:2957   */\n  dup3\n    /* \"#utility.yul\":2944:2962   */\n  add\n    /* \"#utility.yul\":2936:2962   */\n  swap1\n  pop\n    /* \"#utility.yul\":3008:3017   */\n  dup2\n    /* \"#utility.yul\":3002:3006   */\n  dup2\n    /* \"#utility.yul\":2998:3018   */\n  sub\n    /* \"#utility.yul\":2994:2995   */\n  0x00\n    /* \"#utility.yul\":2983:2992   */\n  dup4\n    /* \"#utility.yul\":2979:2996   */\n  add\n    /* \"#utility.yul\":2972:3019   */\n  mstore\n    /* \"#utility.yul\":3036:3167   */\n  tag_72\n    /* \"#utility.yul\":3162:3166   */\n  dup2\n    /* \"#utility.yul\":3036:3167   */\n  tag_35\n  jump\t// in\ntag_72:\n    /* \"#utility.yul\":3028:3167   */\n  swap1\n  pop\n    /* \"#utility.yul\":2755:3174   */\n  swap2\n  swap1\n  pop\n  jump\t// out\n    /* \"#utility.yul\":3180:3357   */\ntag_36:\n    /* \"#utility.yul\":3320:3349   */\n  0x5345413a2073746172745072696365206d757374206265203e20300000000000\n    /* \"#utility.yul\":3316:3317   */\n  0x00\n    /* \"#utility.yul\":3308:3314   */\n  dup3\n    /* \"#utility.yul\":3304:3318   */\n  add\n    /* \"#utility.yul\":3297:3350   */\n  mstore\n    /* \"#utility.yul\":3180:3357   */\n  pop\n  jump\t// out\n    /* \"#utility.yul\":3363:3729   */\ntag_37:\n    /* \"#utility.yul\":3505:3508   */\n  0x00\n    /* \"#utility.yul\":3526:3593   */\n  tag_75\n    /* \"#utility.yul\":3590:3592   */\n  0x1b\n    /* \"#utility.yul\":3585:3588   */\n  dup4\n    /* \"#utility.yul\":3526:3593   */\n  tag_33\n  jump\t// in\ntag_75:\n    /* \"#utility.yul\":3519:3593   */\n  swap2\n  pop\n    /* \"#utility.yul\":3602:3695   */\n  tag_76\n    /* \"#utility.yul\":3691:3694   */\n  dup3\n    /* \"#utility.yul\":3602:3695   */\n  tag_36\n  jump\t// in\ntag_76:\n    /* \"#utility.yul\":3720:3722   */\n  0x20\n    /* \"#utility.yul\":3715:3718   */\n  dup3\n    /* \"#utility.yul\":3711:3723   */\n  add\n    /* \"#utility.yul\":3704:3723   */\n  swap1\n  pop\n    /* \"#utility.yul\":3363:3729   */\n  swap2\n  swap1\n  pop\n  jump\t// out\n    /* \"#utility.yul\":3735:4154   */\ntag_13:\n    /* \"#utility.yul\":3901:3905   */\n  0x00\n    /* \"#utility.yul\":3939:3941   */\n  0x20\n    /* \"#utility.yul\":3928:3937   */\n  dup3\n    /* \"#utility.yul\":3924:3942   */\n  add\n    /* \"#utility.yul\":3916:3942   */\n  swap1\n  pop\n    /* \"#utility.yul\":3988:3997   */\n  dup2\n    /* \"#utility.yul\":3982:3986   */\n  dup2\n    /* \"#utility.yul\":3978:3998   */\n  sub\n    /* \"#utility.yul\":3974:3975   */\n  0x00\n    /* \"#utility.yul\":3963:3972   */\n  dup4\n    /* \"#utility.yul\":3959:3976   */\n  add\n    /* \"#utility.yul\":3952:3999   */\n  mstore\n    /* \"#utility.yul\":4016:4147   */\n  tag_78\n    /* \"#utility.yul\":4142:4146   */\n  dup2\n    /* \"#utility.yul\":4016:4147   */\n  tag_37\n  jump\t// in\ntag_78:\n    /* \"#utility.yul\":4008:4147   */\n  swap1\n  pop\n    /* \"#utility.yul\":3735:4154   */\n  swap2\n  swap1\n  pop\n  jump\t// out\n    /* \"#utility.yul\":4160:4340   */\ntag_38:\n    /* \"#utility.yul\":4300:4332   */\n  0x5345413a2062696464696e67506572696f64206d757374206265203e20300000\n    /* \"#utility.yul\":4296:4297   */\n  0x00\n    /* \"#utility.yul\":4288:4294   */\n  dup3\n    /* \"#utility.yul\":4284:4298   */\n  add\n    /* \"#utility.yul\":4277:4333   */\n  mstore\n    /* \"#utility.yul\":4160:4340   */\n  pop\n  jump\t// out\n    /* \"#utility.yul\":4346:4712   */\ntag_39:\n    /* \"#utility.yul\":4488:4491   */\n  0x00\n    /* \"#utility.yul\":4509:4576   */\n  tag_81\n    /* \"#utility.yul\":4573:4575   */\n  0x1e\n    /* \"#utility.yul\":4568:4571   */\n  dup4\n    /* \"#utility.yul\":4509:4576   */\n  tag_33\n  jump\t// in\ntag_81:\n    /* \"#utility.yul\":4502:4576   */\n  swap2\n  pop\n    /* \"#utility.yul\":4585:4678   */\n  tag_82\n    /* \"#utility.yul\":4674:4677   */\n  dup3\n    /* \"#utility.yul\":4585:4678   */\n  tag_38\n  jump\t// in\ntag_82:\n    /* \"#utility.yul\":4703:4705   */\n  0x20\n    /* \"#utility.yul\":4698:4701   */\n  dup3\n    /* \"#utility.yul\":4694:4706   */\n  add\n    /* \"#utility.yul\":4687:4706   */\n  swap1\n  pop\n    /* \"#utility.yul\":4346:4712   */\n  swap2\n  swap1\n  pop\n  jump\t// out\n    /* \"#utility.yul\":4718:5137   */\ntag_16:\n    /* \"#utility.yul\":4884:4888   */\n  0x00\n    /* \"#utility.yul\":4922:4924   */\n  0x20\n    /* \"#utility.yul\":4911:4920   */\n  dup3\n    /* \"#utility.yul\":4907:4925   */\n  add\n    /* \"#utility.yul\":4899:4925   */\n  swap1\n  pop\n    /* \"#utility.yul\":4971:4980   */\n  dup2\n    /* \"#utility.yul\":4965:4969   */\n  dup2\n    /* \"#utility.yul\":4961:4981   */\n  sub\n    /* \"#utility.yul\":4957:4958   */\n  0x00\n    /* \"#utility.yul\":4946:4955   */\n  dup4\n    /* \"#utility.yul\":4942:4959   */\n  add\n    /* \"#utility.yul\":4935:4982   */\n  mstore\n    /* \"#utility.yul\":4999:5130   */\n  tag_84\n    /* \"#utility.yul\":5125:5129   */\n  dup2\n    /* \"#utility.yul\":4999:5130   */\n  tag_39\n  jump\t// in\ntag_84:\n    /* \"#utility.yul\":4991:5130   */\n  swap1\n  pop\n    /* \"#utility.yul\":4718:5137   */\n  swap2\n  swap1\n  pop\n  jump\t// out\n    /* \"#utility.yul\":5143:5323   */\ntag_40:\n    /* \"#utility.yul\":5191:5268   */\n  0x4e487b7100000000000000000000000000000000000000000000000000000000\n    /* \"#utility.yul\":5188:5189   */\n  0x00\n    /* \"#utility.yul\":5181:5269   */\n  mstore\n    /* \"#utility.yul\":5288:5292   */\n  0x11\n    /* \"#utility.yul\":5285:5286   */\n  0x04\n    /* \"#utility.yul\":5278:5293   */\n  mstore\n    /* \"#utility.yul\":5312:5316   */\n  0x24\n    /* \"#utility.yul\":5309:5310   */\n  0x00\n    /* \"#utility.yul\":5302:5317   */\n  revert\n    /* \"#utility.yul\":5329:5520   */\ntag_18:\n    /* \"#utility.yul\":5369:5372   */\n  0x00\n    /* \"#utility.yul\":5388:5408   */\n  tag_87\n    /* \"#utility.yul\":5406:5407   */\n  dup3\n    /* \"#utility.yul\":5388:5408   */\n  tag_30\n  jump\t// in\ntag_87:\n    /* \"#utility.yul\":5383:5408   */\n  swap2\n  pop\n    /* \"#utility.yul\":5422:5442   */\n  tag_88\n    /* \"#utility.yul\":5440:5441   */\n  dup4\n    /* \"#utility.yul\":5422:5442   */\n  tag_30\n  jump\t// in\ntag_88:\n    /* \"#utility.yul\":5417:5442   */\n  swap3\n  pop\n    /* \"#utility.yul\":5465:5466   */\n  dup3\n    /* \"#utility.yul\":5462:5463   */\n  dup3\n    /* \"#utility.yul\":5458:5467   */\n  add\n    /* \"#utility.yul\":5451:5467   */\n  swap1\n  pop\n    /* \"#utility.yul\":5486:5489   */\n  dup1\n    /* \"#utility.yul\":5483:5484   */\n  dup3\n    /* \"#utility.yul\":5480:5490   */\n  gt\n    /* \"#utility.yul\":5477:5513   */\n  iszero\n  tag_89\n  jumpi\n    /* \"#utility.yul\":5493:5511   */\n  tag_90\n  tag_40\n  jump\t// in\ntag_90:\n    /* \"#utility.yul\":5477:5513   */\ntag_89:\n    /* \"#utility.yul\":5329:5520   */\n  swap3\n  swap2\n  pop\n  pop\n  jump\t// out\n    /* \"#utility.yul\":5526:5706   */\ntag_21:\n    /* \"#utility.yul\":5574:5651   */\n  0x4e487b7100000000000000000000000000000000000000000000000000000000\n    /* \"#utility.yul\":5571:5572   */\n  0x00\n    /* \"#utility.yul\":5564:5652   */\n  mstore\n    /* \"#utility.yul\":5671:5675   */\n  0x21\n    /* \"#utility.yul\":5668:5669   */\n  0x04\n    /* \"#utility.yul\":5661:5676   */\n  mstore\n    /* \"#utility.yul\":5695:5699   */\n  0x24\n    /* \"#utility.yul\":5692:5693   */\n  0x00\n    /* \"#utility.yul\":5685:5700   */\n  revert\n    /* \"SimpleEnglishAuction.sol\":4078:11890  contract SimpleEnglishAuction is ReentrancyGuard {... */\ntag_22:\n  mload(0x80)\n  mload(0xa0)\n  mload(0xc0)\n  mload(0xe0)\n  mload(0x0100)\n  codecopy(0x00, dataOffset(sub_0), dataSize(sub_0))\n  0x00\n  assignImmutable(\"0x5b9d82bdb7ae056a203cf64bdf26f3fdec584cdfaca2ac8b4c3d0c5b66e90969\")\n  0x00\n  assignImmutable(\"0x881472a5783e16aed4d4ff91eeebe17d420d379d078fc85dddb0a3a55a9abffe\")\n  0x00\n  assignImmutable(\"0x4393e7114eb674248a1480712950c28cb06e118e040859a2eafa3ca8a6dfbd69\")\n  0x00\n  assignImmutable(\"0x5ad0f966e4dd8863f27c0e6ee7d684c0c8f4319efed210fe15662a0d29bcd615\")\n  0x00\n  assignImmutable(\"0x845e9c18ca148a712f01bf14c91c3e2fe352eabe86c44817e3f33b63f585a343\")\n  return(0x00, dataSize(sub_0))\nstop\n\nsub_0: assembly {\n        /* \"SimpleEnglishAuction.sol\":4078:11890  contract SimpleEnglishAuction is ReentrancyGuard {... */\n      mstore(0x40, 0x80)\n      jumpi(tag_1, lt(calldatasize, 0x04))\n      shr(0xe0, calldataload(0x00))\n      dup1\n      0xc19d93fb\n      gt\n      tag_19\n      jumpi\n      dup1\n      0xe3cfef60\n      gt\n      tag_20\n      jumpi\n      dup1\n      0xe3cfef60\n      eq\n      tag_15\n      jumpi\n      dup1\n      0xea8a1af0\n      eq\n      tag_16\n      jumpi\n      dup1\n      0xefbe1c1c\n      eq\n      tag_17\n      jumpi\n      dup1\n      0xf1a9af89\n      eq\n      tag_18\n      jumpi\n      jump(tag_2)\n    tag_20:\n      dup1\n      0xc19d93fb\n      eq\n      tag_11\n      jumpi\n      dup1\n      0xd18e81b3\n      eq\n      tag_12\n      jumpi\n      dup1\n      0xd56d229d\n      eq\n      tag_13\n      jumpi\n      dup1\n      0xd57bde79\n      eq\n      tag_14\n      jumpi\n      jump(tag_2)\n    tag_19:\n      dup1\n      0x91f90157\n      gt\n      tag_21\n      jumpi\n      dup1\n      0x91f90157\n      eq\n      tag_7\n      jumpi\n      dup1\n      0x9a30ae23\n      eq\n      tag_8\n      jumpi\n      dup1\n      0xb5545a3c\n      eq\n      tag_9\n      jumpi\n      dup1\n      0xbc3da535\n      eq\n      tag_10\n      jumpi\n      jump(tag_2)\n    tag_21:\n      dup1\n      0x08551a53\n      eq\n      tag_3\n      jumpi\n      dup1\n      0x17d70f7c\n      eq\n      tag_4\n      jumpi\n      dup1\n      0x1998aeef\n      eq\n      tag_5\n      jumpi\n      dup1\n      0x3197cbb6\n      eq\n      tag_6\n      jumpi\n      jump(tag_2)\n    tag_1:\n      jumpi(tag_2, calldatasize)\n        /* \"SimpleEnglishAuction.sol\":11799:11823  revert(\"SEA: use bid()\") */\n      mload(0x40)\n      0x08c379a000000000000000000000000000000000000000000000000000000000\n      dup2\n      mstore\n      0x04\n      add\n      tag_24\n      swap1\n      tag_25\n      jump\t// in\n    tag_24:\n      mload(0x40)\n      dup1\n      swap2\n      sub\n      swap1\n      revert\n        /* \"SimpleEnglishAuction.sol\":4078:11890  contract SimpleEnglishAuction is ReentrancyGuard {... */\n    tag_2:\n        /* \"SimpleEnglishAuction.sol\":11861:11885  revert(\"SEA: use bid()\") */\n      mload(0x40)\n      0x08c379a000000000000000000000000000000000000000000000000000000000\n      dup2\n      mstore\n      0x04\n      add\n      tag_28\n      swap1\n      tag_25\n      jump\t// in\n    tag_28:\n      mload(0x40)\n      dup1\n      swap2\n      sub\n      swap1\n      revert\n        /* \"SimpleEnglishAuction.sol\":5155:5186  address public immutable seller */\n    tag_3:\n      callvalue\n      dup1\n      iszero\n      tag_29\n      jumpi\n      0x00\n      dup1\n      revert\n    tag_29:\n      pop\n      tag_30\n      tag_31\n      jump\t// in\n    tag_30:\n      mload(0x40)\n      tag_32\n      swap2\n      swap1\n      tag_33\n      jump\t// in\n    tag_32:\n      mload(0x40)\n      dup1\n      swap2\n      sub\n      swap1\n      return\n        /* \"SimpleEnglishAuction.sol\":4969:5001  uint256 public immutable tokenId */\n    tag_4:\n      callvalue\n      dup1\n      iszero\n      tag_34\n      jumpi\n      0x00\n      dup1\n      revert\n    tag_34:\n      pop\n      tag_35\n      tag_36\n      jump\t// in\n    tag_35:\n      mload(0x40)\n      tag_37\n      swap2\n      swap1\n      tag_38\n      jump\t// in\n    tag_37:\n      mload(0x40)\n      dup1\n      swap2\n      sub\n      swap1\n      return\n        /* \"SimpleEnglishAuction.sol\":7548:8345  function bid() external payable nonReentrant {... */\n    tag_5:\n      tag_39\n      tag_40\n      jump\t// in\n    tag_39:\n      stop\n        /* \"SimpleEnglishAuction.sol\":5077:5109  uint256 public immutable endTime */\n    tag_6:\n      callvalue\n      dup1\n      iszero\n      tag_41\n      jumpi\n      0x00\n      dup1\n      revert\n    tag_41:\n      pop\n      tag_42\n      tag_43\n      jump\t// in\n    tag_42:\n      mload(0x40)\n      tag_44\n      swap2\n      swap1\n      tag_38\n      jump\t// in\n    tag_44:\n      mload(0x40)\n      dup1\n      swap2\n      sub\n      swap1\n      return\n        /* \"SimpleEnglishAuction.sol\":5370:5398  address public highestBidder */\n    tag_7:\n      callvalue\n      dup1\n      iszero\n      tag_45\n      jumpi\n      0x00\n      dup1\n      revert\n    tag_45:\n      pop\n      tag_46\n      tag_47\n      jump\t// in\n    tag_46:\n      mload(0x40)\n      tag_48\n      swap2\n      swap1\n      tag_33\n      jump\t// in\n    tag_48:\n      mload(0x40)\n      dup1\n      swap2\n      sub\n      swap1\n      return\n        /* \"SimpleEnglishAuction.sol\":11011:11171  function minimumNextBid() external view returns (uint256) {... */\n    tag_8:\n      callvalue\n      dup1\n      iszero\n      tag_49\n      jumpi\n      0x00\n      dup1\n      revert\n    tag_49:\n      pop\n      tag_50\n      tag_51\n      jump\t// in\n    tag_50:\n      mload(0x40)\n      tag_52\n      swap2\n      swap1\n      tag_38\n      jump\t// in\n    tag_52:\n      mload(0x40)\n      dup1\n      swap2\n      sub\n      swap1\n      return\n        /* \"SimpleEnglishAuction.sol\":10391:10770  function claimRefund() external nonReentrant {... */\n    tag_9:\n      callvalue\n      dup1\n      iszero\n      tag_53\n      jumpi\n      0x00\n      dup1\n      revert\n    tag_53:\n      pop\n      tag_54\n      tag_55\n      jump\t// in\n    tag_54:\n      stop\n        /* \"SimpleEnglishAuction.sol\":5480:5522  mapping(address => uint256) public refunds */\n    tag_10:\n      callvalue\n      dup1\n      iszero\n      tag_56\n      jumpi\n      0x00\n      dup1\n      revert\n    tag_56:\n      pop\n      tag_57\n      0x04\n      dup1\n      calldatasize\n      sub\n      dup2\n      add\n      swap1\n      tag_58\n      swap2\n      swap1\n      tag_59\n      jump\t// in\n    tag_58:\n      tag_60\n      jump\t// in\n    tag_57:\n      mload(0x40)\n      tag_61\n      swap2\n      swap1\n      tag_38\n      jump\t// in\n    tag_61:\n      mload(0x40)\n      dup1\n      swap2\n      sub\n      swap1\n      return\n        /* \"SimpleEnglishAuction.sol\":5338:5363  AuctionState public state */\n    tag_11:\n      callvalue\n      dup1\n      iszero\n      tag_62\n      jumpi\n      0x00\n      dup1\n      revert\n    tag_62:\n      pop\n      tag_63\n      tag_64\n      jump\t// in\n    tag_63:\n      mload(0x40)\n      tag_65\n      swap2\n      swap1\n      tag_66\n      jump\t// in\n    tag_65:\n      mload(0x40)\n      dup1\n      swap2\n      sub\n      swap1\n      return\n        /* \"SimpleEnglishAuction.sol\":11500:11594  function currentTime() external view returns (uint256) {... */\n    tag_12:\n      callvalue\n      dup1\n      iszero\n      tag_67\n      jumpi\n      0x00\n      dup1\n      revert\n    tag_67:\n      pop\n      tag_68\n      tag_69\n      jump\t// in\n    tag_68:\n      mload(0x40)\n      tag_70\n      swap2\n      swap1\n      tag_38\n      jump\t// in\n    tag_70:\n      mload(0x40)\n      dup1\n      swap2\n      sub\n      swap1\n      return\n        /* \"SimpleEnglishAuction.sol\":4927:4963  IERC721 public immutable nftContract */\n    tag_13:\n      callvalue\n      dup1\n      iszero\n      tag_71\n      jumpi\n      0x00\n      dup1\n      revert\n    tag_71:\n      pop\n      tag_72\n      tag_73\n      jump\t// in\n    tag_72:\n      mload(0x40)\n      tag_74\n      swap2\n      swap1\n      tag_75\n      jump\t// in\n    tag_74:\n      mload(0x40)\n      dup1\n      swap2\n      sub\n      swap1\n      return\n        /* \"SimpleEnglishAuction.sol\":5404:5429  uint256 public highestBid */\n    tag_14:\n      callvalue\n      dup1\n      iszero\n      tag_76\n      jumpi\n      0x00\n      dup1\n      revert\n    tag_76:\n      pop\n      tag_77\n      tag_78\n      jump\t// in\n    tag_77:\n      mload(0x40)\n      tag_79\n      swap2\n      swap1\n      tag_38\n      jump\t// in\n    tag_79:\n      mload(0x40)\n      dup1\n      swap2\n      sub\n      swap1\n      return\n        /* \"SimpleEnglishAuction.sol\":11253:11409  function timeRemaining() external view returns (uint256) {... */\n    tag_15:\n      callvalue\n      dup1\n      iszero\n      tag_80\n      jumpi\n      0x00\n      dup1\n      revert\n    tag_80:\n      pop\n      tag_81\n      tag_82\n      jump\t// in\n    tag_81:\n      mload(0x40)\n      tag_83\n      swap2\n      swap1\n      tag_38\n      jump\t// in\n    tag_83:\n      mload(0x40)\n      dup1\n      swap2\n      sub\n      swap1\n      return\n        /* \"SimpleEnglishAuction.sol\":9704:10109  function cancel() external {... */\n    tag_16:\n      callvalue\n      dup1\n      iszero\n      tag_84\n      jumpi\n      0x00\n      dup1\n      revert\n    tag_84:\n      pop\n      tag_85\n      tag_86\n      jump\t// in\n    tag_85:\n      stop\n        /* \"SimpleEnglishAuction.sol\":8701:9499  function end() external nonReentrant {... */\n    tag_17:\n      callvalue\n      dup1\n      iszero\n      tag_87\n      jumpi\n      0x00\n      dup1\n      revert\n    tag_87:\n      pop\n      tag_88\n      tag_89\n      jump\t// in\n    tag_88:\n      stop\n        /* \"SimpleEnglishAuction.sol\":5007:5042  uint256 public immutable startPrice */\n    tag_18:\n      callvalue\n      dup1\n      iszero\n      tag_90\n      jumpi\n      0x00\n      dup1\n      revert\n    tag_90:\n      pop\n      tag_91\n      tag_92\n      jump\t// in\n    tag_91:\n      mload(0x40)\n      tag_93\n      swap2\n      swap1\n      tag_38\n      jump\t// in\n    tag_93:\n      mload(0x40)\n      dup1\n      swap2\n      sub\n      swap1\n      return\n        /* \"SimpleEnglishAuction.sol\":5155:5186  address public immutable seller */\n    tag_31:\n      immutable(\"0x5b9d82bdb7ae056a203cf64bdf26f3fdec584cdfaca2ac8b4c3d0c5b66e90969\")\n      dup2\n      jump\t// out\n        /* \"SimpleEnglishAuction.sol\":4969:5001  uint256 public immutable tokenId */\n    tag_36:\n      immutable(\"0x5ad0f966e4dd8863f27c0e6ee7d684c0c8f4319efed210fe15662a0d29bcd615\")\n      dup2\n      jump\t// out\n        /* \"SimpleEnglishAuction.sol\":7548:8345  function bid() external payable nonReentrant {... */\n    tag_40:\n        /* \"SimpleEnglishAuction.sol\":1301:1302  2 */\n      0x02\n        /* \"SimpleEnglishAuction.sol\":1427:1434  _status */\n      sload(0x00)\n        /* \"SimpleEnglishAuction.sol\":1427:1446  _status != _ENTERED */\n      sub\n        /* \"SimpleEnglishAuction.sol\":1419:1482  require(_status != _ENTERED, \"ReentrancyGuard: reentrant call\") */\n      tag_95\n      jumpi\n      mload(0x40)\n      0x08c379a000000000000000000000000000000000000000000000000000000000\n      dup2\n      mstore\n      0x04\n      add\n      tag_96\n      swap1\n      tag_97\n      jump\t// in\n    tag_96:\n      mload(0x40)\n      dup1\n      swap2\n      sub\n      swap1\n      revert\n    tag_95:\n        /* \"SimpleEnglishAuction.sol\":1301:1302  2 */\n      0x02\n        /* \"SimpleEnglishAuction.sol\":1492:1499  _status */\n      0x00\n        /* \"SimpleEnglishAuction.sol\":1492:1510  _status = _ENTERED */\n      dup2\n      swap1\n      sstore\n      pop\n        /* \"SimpleEnglishAuction.sol\":7616:7634  AuctionState.ENDED */\n      0x01\n        /* \"SimpleEnglishAuction.sol\":7607:7634  state == AuctionState.ENDED */\n      0x02\n      dup2\n      gt\n      iszero\n      tag_99\n      jumpi\n      tag_100\n      tag_101\n      jump\t// in\n    tag_100:\n    tag_99:\n        /* \"SimpleEnglishAuction.sol\":7607:7612  state */\n      0x01\n      0x00\n      swap1\n      sload\n      swap1\n      0x0100\n      exp\n      swap1\n      div\n      0xff\n      and\n        /* \"SimpleEnglishAuction.sol\":7607:7634  state == AuctionState.ENDED */\n      0x02\n      dup2\n      gt\n      iszero\n      tag_102\n      jumpi\n      tag_103\n      tag_101\n      jump\t// in\n    tag_103:\n    tag_102:\n      sub\n        /* \"SimpleEnglishAuction.sol\":7603:7668  if (state == AuctionState.ENDED)     revert AuctionAlreadyEnded() */\n      tag_104\n      jumpi\n        /* \"SimpleEnglishAuction.sol\":7647:7668  AuctionAlreadyEnded() */\n      mload(0x40)\n      0xd02e774d00000000000000000000000000000000000000000000000000000000\n      dup2\n      mstore\n      0x04\n      add\n      mload(0x40)\n      dup1\n      swap2\n      sub\n      swap1\n      revert\n        /* \"SimpleEnglishAuction.sol\":7603:7668  if (state == AuctionState.ENDED)     revert AuctionAlreadyEnded() */\n    tag_104:\n        /* \"SimpleEnglishAuction.sol\":7691:7713  AuctionState.CANCELLED */\n      0x02\n        /* \"SimpleEnglishAuction.sol\":7682:7713  state == AuctionState.CANCELLED */\n      dup1\n      dup2\n      gt\n      iszero\n      tag_105\n      jumpi\n      tag_106\n      tag_101\n      jump\t// in\n    tag_106:\n    tag_105:\n        /* \"SimpleEnglishAuction.sol\":7682:7687  state */\n      0x01\n      0x00\n      swap1\n      sload\n      swap1\n      0x0100\n      exp\n      swap1\n      div\n      0xff\n      and\n        /* \"SimpleEnglishAuction.sol\":7682:7713  state == AuctionState.CANCELLED */\n      0x02\n      dup2\n      gt\n      iszero\n      tag_107\n      jumpi\n      tag_108\n      tag_101\n      jump\t// in\n    tag_108:\n    tag_107:\n      sub\n        /* \"SimpleEnglishAuction.sol\":7678:7747  if (state == AuctionState.CANCELLED) revert AuctionAlreadyCancelled() */\n      tag_109\n      jumpi\n        /* \"SimpleEnglishAuction.sol\":7722:7747  AuctionAlreadyCancelled() */\n      mload(0x40)\n      0xca1642f900000000000000000000000000000000000000000000000000000000\n      dup2\n      mstore\n      0x04\n      add\n      mload(0x40)\n      dup1\n      swap2\n      sub\n      swap1\n      revert\n        /* \"SimpleEnglishAuction.sol\":7678:7747  if (state == AuctionState.CANCELLED) revert AuctionAlreadyCancelled() */\n    tag_109:\n        /* \"SimpleEnglishAuction.sol\":7780:7787  endTime */\n      immutable(\"0x881472a5783e16aed4d4ff91eeebe17d420d379d078fc85dddb0a3a55a9abffe\")\n        /* \"SimpleEnglishAuction.sol\":7761:7776  block.timestamp */\n      timestamp\n        /* \"SimpleEnglishAuction.sol\":7761:7787  block.timestamp >= endTime */\n      lt\n        /* \"SimpleEnglishAuction.sol\":7757:7822  if (block.timestamp >= endTime)      revert AuctionAlreadyEnded() */\n      tag_110\n      jumpi\n        /* \"SimpleEnglishAuction.sol\":7801:7822  AuctionAlreadyEnded() */\n      mload(0x40)\n      0xd02e774d00000000000000000000000000000000000000000000000000000000\n      dup2\n      mstore\n      0x04\n      add\n      mload(0x40)\n      dup1\n      swap2\n      sub\n      swap1\n      revert\n        /* \"SimpleEnglishAuction.sol\":7757:7822  if (block.timestamp >= endTime)      revert AuctionAlreadyEnded() */\n    tag_110:\n        /* \"SimpleEnglishAuction.sol\":7875:7889  uint256 minBid */\n      0x00\n        /* \"SimpleEnglishAuction.sol\":7907:7908  0 */\n      dup1\n        /* \"SimpleEnglishAuction.sol\":7893:7903  highestBid */\n      sload(0x02)\n        /* \"SimpleEnglishAuction.sol\":7893:7908  highestBid == 0 */\n      eq\n        /* \"SimpleEnglishAuction.sol\":7892:7979  (highestBid == 0)... */\n      tag_111\n      jumpi\n        /* \"SimpleEnglishAuction.sol\":7976:7978  10 */\n      0x0a\n        /* \"SimpleEnglishAuction.sol\":7963:7973  highestBid */\n      sload(0x02)\n        /* \"SimpleEnglishAuction.sol\":7963:7978  highestBid / 10 */\n      tag_112\n      swap2\n      swap1\n      tag_113\n      jump\t// in\n    tag_112:\n        /* \"SimpleEnglishAuction.sol\":7949:7959  highestBid */\n      sload(0x02)\n        /* \"SimpleEnglishAuction.sol\":7949:7979  highestBid + (highestBid / 10) */\n      tag_114\n      swap2\n      swap1\n      tag_115\n      jump\t// in\n    tag_114:\n        /* \"SimpleEnglishAuction.sol\":7892:7979  (highestBid == 0)... */\n      jump(tag_116)\n    tag_111:\n        /* \"SimpleEnglishAuction.sol\":7924:7934  startPrice */\n      immutable(\"0x4393e7114eb674248a1480712950c28cb06e118e040859a2eafa3ca8a6dfbd69\")\n        /* \"SimpleEnglishAuction.sol\":7892:7979  (highestBid == 0)... */\n    tag_116:\n        /* \"SimpleEnglishAuction.sol\":7875:7979  uint256 minBid = (highestBid == 0)... */\n      swap1\n      pop\n        /* \"SimpleEnglishAuction.sol\":8017:8023  minBid */\n      dup1\n        /* \"SimpleEnglishAuction.sol\":8005:8014  msg.value */\n      callvalue\n        /* \"SimpleEnglishAuction.sol\":8005:8023  msg.value < minBid */\n      lt\n        /* \"SimpleEnglishAuction.sol\":8001:8060  if (msg.value < minBid) revert BidTooLow(minBid, msg.value) */\n      iszero\n      tag_117\n      jumpi\n        /* \"SimpleEnglishAuction.sol\":8042:8048  minBid */\n      dup1\n        /* \"SimpleEnglishAuction.sol\":8050:8059  msg.value */\n      callvalue\n        /* \"SimpleEnglishAuction.sol\":8032:8060  BidTooLow(minBid, msg.value) */\n      mload(0x40)\n      0xf0defc6100000000000000000000000000000000000000000000000000000000\n      dup2\n      mstore\n      0x04\n      add\n      tag_118\n      swap3\n      swap2\n      swap1\n      tag_119\n      jump\t// in\n    tag_118:\n      mload(0x40)\n      dup1\n      swap2\n      sub\n      swap1\n      revert\n        /* \"SimpleEnglishAuction.sol\":8001:8060  if (msg.value < minBid) revert BidTooLow(minBid, msg.value) */\n    tag_117:\n        /* \"SimpleEnglishAuction.sol\":8157:8158  0 */\n      0x00\n        /* \"SimpleEnglishAuction.sol\":8132:8159  highestBidder != address(0) */\n      0xffffffffffffffffffffffffffffffffffffffff\n      and\n        /* \"SimpleEnglishAuction.sol\":8132:8145  highestBidder */\n      0x01\n      dup1\n      sload\n      swap1\n      0x0100\n      exp\n      swap1\n      div\n      0xffffffffffffffffffffffffffffffffffffffff\n      and\n        /* \"SimpleEnglishAuction.sol\":8132:8159  highestBidder != address(0) */\n      0xffffffffffffffffffffffffffffffffffffffff\n      and\n      eq\n        /* \"SimpleEnglishAuction.sol\":8128:8222  if (highestBidder != address(0)) {... */\n      tag_120\n      jumpi\n        /* \"SimpleEnglishAuction.sol\":8201:8211  highestBid */\n      sload(0x02)\n        /* \"SimpleEnglishAuction.sol\":8175:8182  refunds */\n      0x03\n        /* \"SimpleEnglishAuction.sol\":8175:8197  refunds[highestBidder] */\n      0x00\n        /* \"SimpleEnglishAuction.sol\":8183:8196  highestBidder */\n      0x01\n      dup1\n      sload\n      swap1\n      0x0100\n      exp\n      swap1\n      div\n      0xffffffffffffffffffffffffffffffffffffffff\n      and\n        /* \"SimpleEnglishAuction.sol\":8175:8197  refunds[highestBidder] */\n      0xffffffffffffffffffffffffffffffffffffffff\n      and\n      0xffffffffffffffffffffffffffffffffffffffff\n      and\n      dup2\n      mstore\n      0x20\n      add\n      swap1\n      dup2\n      mstore\n      0x20\n      add\n      0x00\n      keccak256\n      0x00\n        /* \"SimpleEnglishAuction.sol\":8175:8211  refunds[highestBidder] += highestBid */\n      dup3\n      dup3\n      sload\n      tag_121\n      swap2\n      swap1\n      tag_115\n      jump\t// in\n    tag_121:\n      swap3\n      pop\n      pop\n      dup2\n      swap1\n      sstore\n      pop\n        /* \"SimpleEnglishAuction.sol\":8128:8222  if (highestBidder != address(0)) {... */\n    tag_120:\n        /* \"SimpleEnglishAuction.sol\":8248:8258  msg.sender */\n      caller\n        /* \"SimpleEnglishAuction.sol\":8232:8245  highestBidder */\n      0x01\n      dup1\n        /* \"SimpleEnglishAuction.sol\":8232:8258  highestBidder = msg.sender */\n      0x0100\n      exp\n      dup2\n      sload\n      dup2\n      0xffffffffffffffffffffffffffffffffffffffff\n      mul\n      not\n      and\n      swap1\n      dup4\n      0xffffffffffffffffffffffffffffffffffffffff\n      and\n      mul\n      or\n      swap1\n      sstore\n      pop\n        /* \"SimpleEnglishAuction.sol\":8284:8293  msg.value */\n      callvalue\n        /* \"SimpleEnglishAuction.sol\":8268:8278  highestBid */\n      0x02\n        /* \"SimpleEnglishAuction.sol\":8268:8293  highestBid    = msg.value */\n      dup2\n      swap1\n      sstore\n      pop\n        /* \"SimpleEnglishAuction.sol\":8316:8326  msg.sender */\n      caller\n        /* \"SimpleEnglishAuction.sol\":8309:8338  NewBid(msg.sender, msg.value) */\n      0xffffffffffffffffffffffffffffffffffffffff\n      and\n      0xdd0b6c6a77960e2066c96171b4d7ac9e8b4c184011f38544afa36a5bb63ec59f\n        /* \"SimpleEnglishAuction.sol\":8328:8337  msg.value */\n      callvalue\n        /* \"SimpleEnglishAuction.sol\":8309:8338  NewBid(msg.sender, msg.value) */\n      mload(0x40)\n      tag_122\n      swap2\n      swap1\n      tag_38\n      jump\t// in\n    tag_122:\n      mload(0x40)\n      dup1\n      swap2\n      sub\n      swap1\n      log2\n        /* \"SimpleEnglishAuction.sol\":7593:8345  {... */\n      pop\n        /* \"SimpleEnglishAuction.sol\":1254:1255  1 */\n      0x01\n        /* \"SimpleEnglishAuction.sol\":1531:1538  _status */\n      0x00\n        /* \"SimpleEnglishAuction.sol\":1531:1553  _status = _NOT_ENTERED */\n      dup2\n      swap1\n      sstore\n      pop\n        /* \"SimpleEnglishAuction.sol\":7548:8345  function bid() external payable nonReentrant {... */\n      jump\t// out\n        /* \"SimpleEnglishAuction.sol\":5077:5109  uint256 public immutable endTime */\n    tag_43:\n      immutable(\"0x881472a5783e16aed4d4ff91eeebe17d420d379d078fc85dddb0a3a55a9abffe\")\n      dup2\n      jump\t// out\n        /* \"SimpleEnglishAuction.sol\":5370:5398  address public highestBidder */\n    tag_47:\n      0x01\n      dup1\n      sload\n      swap1\n      0x0100\n      exp\n      swap1\n      div\n      0xffffffffffffffffffffffffffffffffffffffff\n      and\n      dup2\n      jump\t// out\n        /* \"SimpleEnglishAuction.sol\":11011:11171  function minimumNextBid() external view returns (uint256) {... */\n    tag_51:\n        /* \"SimpleEnglishAuction.sol\":11060:11067  uint256 */\n      0x00\n        /* \"SimpleEnglishAuction.sol\":11097:11098  0 */\n      dup1\n        /* \"SimpleEnglishAuction.sol\":11083:11093  highestBid */\n      sload(0x02)\n        /* \"SimpleEnglishAuction.sol\":11083:11098  highestBid == 0 */\n      sub\n        /* \"SimpleEnglishAuction.sol\":11079:11117  if (highestBid == 0) return startPrice */\n      tag_124\n      jumpi\n        /* \"SimpleEnglishAuction.sol\":11107:11117  startPrice */\n      immutable(\"0x4393e7114eb674248a1480712950c28cb06e118e040859a2eafa3ca8a6dfbd69\")\n        /* \"SimpleEnglishAuction.sol\":11100:11117  return startPrice */\n      swap1\n      pop\n      jump(tag_123)\n        /* \"SimpleEnglishAuction.sol\":11079:11117  if (highestBid == 0) return startPrice */\n    tag_124:\n        /* \"SimpleEnglishAuction.sol\":11161:11163  10 */\n      0x0a\n        /* \"SimpleEnglishAuction.sol\":11148:11158  highestBid */\n      sload(0x02)\n        /* \"SimpleEnglishAuction.sol\":11148:11163  highestBid / 10 */\n      tag_125\n      swap2\n      swap1\n      tag_113\n      jump\t// in\n    tag_125:\n        /* \"SimpleEnglishAuction.sol\":11134:11144  highestBid */\n      sload(0x02)\n        /* \"SimpleEnglishAuction.sol\":11134:11164  highestBid + (highestBid / 10) */\n      tag_126\n      swap2\n      swap1\n      tag_115\n      jump\t// in\n    tag_126:\n        /* \"SimpleEnglishAuction.sol\":11127:11164  return highestBid + (highestBid / 10) */\n      swap1\n      pop\n        /* \"SimpleEnglishAuction.sol\":11011:11171  function minimumNextBid() external view returns (uint256) {... */\n    tag_123:\n      swap1\n      jump\t// out\n        /* \"SimpleEnglishAuction.sol\":10391:10770  function claimRefund() external nonReentrant {... */\n    tag_55:\n        /* \"SimpleEnglishAuction.sol\":1301:1302  2 */\n      0x02\n        /* \"SimpleEnglishAuction.sol\":1427:1434  _status */\n      sload(0x00)\n        /* \"SimpleEnglishAuction.sol\":1427:1446  _status != _ENTERED */\n      sub\n        /* \"SimpleEnglishAuction.sol\":1419:1482  require(_status != _ENTERED, \"ReentrancyGuard: reentrant call\") */\n      tag_128\n      jumpi\n      mload(0x40)\n      0x08c379a000000000000000000000000000000000000000000000000000000000\n      dup2\n      mstore\n      0x04\n      add\n      tag_129\n      swap1\n      tag_97\n      jump\t// in\n    tag_129:\n      mload(0x40)\n      dup1\n      swap2\n      sub\n      swap1\n      revert\n    tag_128:\n        /* \"SimpleEnglishAuction.sol\":1301:1302  2 */\n      0x02\n        /* \"SimpleEnglishAuction.sol\":1492:1499  _status */\n      0x00\n        /* \"SimpleEnglishAuction.sol\":1492:1510  _status = _ENTERED */\n      dup2\n      swap1\n      sstore\n      pop\n        /* \"SimpleEnglishAuction.sol\":10446:10460  uint256 amount */\n      0x00\n        /* \"SimpleEnglishAuction.sol\":10463:10470  refunds */\n      0x03\n        /* \"SimpleEnglishAuction.sol\":10463:10482  refunds[msg.sender] */\n      0x00\n        /* \"SimpleEnglishAuction.sol\":10471:10481  msg.sender */\n      caller\n        /* \"SimpleEnglishAuction.sol\":10463:10482  refunds[msg.sender] */\n      0xffffffffffffffffffffffffffffffffffffffff\n      and\n      0xffffffffffffffffffffffffffffffffffffffff\n      and\n      dup2\n      mstore\n      0x20\n      add\n      swap1\n      dup2\n      mstore\n      0x20\n      add\n      0x00\n      keccak256\n      sload\n        /* \"SimpleEnglishAuction.sol\":10446:10482  uint256 amount = refunds[msg.sender] */\n      swap1\n      pop\n        /* \"SimpleEnglishAuction.sol\":10506:10507  0 */\n      0x00\n        /* \"SimpleEnglishAuction.sol\":10496:10502  amount */\n      dup2\n        /* \"SimpleEnglishAuction.sol\":10496:10507  amount == 0 */\n      sub\n        /* \"SimpleEnglishAuction.sol\":10492:10533  if (amount == 0) revert NothingToRefund() */\n      tag_131\n      jumpi\n        /* \"SimpleEnglishAuction.sol\":10516:10533  NothingToRefund() */\n      mload(0x40)\n      0xf76aef6500000000000000000000000000000000000000000000000000000000\n      dup2\n      mstore\n      0x04\n      add\n      mload(0x40)\n      dup1\n      swap2\n      sub\n      swap1\n      revert\n        /* \"SimpleEnglishAuction.sol\":10492:10533  if (amount == 0) revert NothingToRefund() */\n    tag_131:\n        /* \"SimpleEnglishAuction.sol\":10566:10567  0 */\n      0x00\n        /* \"SimpleEnglishAuction.sol\":10544:10551  refunds */\n      0x03\n        /* \"SimpleEnglishAuction.sol\":10544:10563  refunds[msg.sender] */\n      0x00\n        /* \"SimpleEnglishAuction.sol\":10552:10562  msg.sender */\n      caller\n        /* \"SimpleEnglishAuction.sol\":10544:10563  refunds[msg.sender] */\n      0xffffffffffffffffffffffffffffffffffffffff\n      and\n      0xffffffffffffffffffffffffffffffffffffffff\n      and\n      dup2\n      mstore\n      0x20\n      add\n      swap1\n      dup2\n      mstore\n      0x20\n      add\n      0x00\n      keccak256\n        /* \"SimpleEnglishAuction.sol\":10544:10567  refunds[msg.sender] = 0 */\n      dup2\n      swap1\n      sstore\n      pop\n        /* \"SimpleEnglishAuction.sol\":10631:10641  msg.sender */\n      caller\n        /* \"SimpleEnglishAuction.sol\":10617:10650  RefundClaimed(msg.sender, amount) */\n      0xffffffffffffffffffffffffffffffffffffffff\n      and\n      0x358fe4192934d3bf28ae181feda1f4bd08ca67f5e2fad55582cce5eb67304ae9\n        /* \"SimpleEnglishAuction.sol\":10643:10649  amount */\n      dup3\n        /* \"SimpleEnglishAuction.sol\":10617:10650  RefundClaimed(msg.sender, amount) */\n      mload(0x40)\n      tag_132\n      swap2\n      swap1\n      tag_38\n      jump\t// in\n    tag_132:\n      mload(0x40)\n      dup1\n      swap2\n      sub\n      swap1\n      log2\n        /* \"SimpleEnglishAuction.sol\":10662:10669  bool ok */\n      0x00\n        /* \"SimpleEnglishAuction.sol\":10683:10693  msg.sender */\n      caller\n        /* \"SimpleEnglishAuction.sol\":10675:10699  payable(msg.sender).call */\n      0xffffffffffffffffffffffffffffffffffffffff\n      and\n        /* \"SimpleEnglishAuction.sol\":10707:10713  amount */\n      dup3\n        /* \"SimpleEnglishAuction.sol\":10675:10718  payable(msg.sender).call{value: amount}(\"\") */\n      mload(0x40)\n      tag_133\n      swap1\n      tag_134\n      jump\t// in\n    tag_133:\n      0x00\n      mload(0x40)\n      dup1\n      dup4\n      sub\n      dup2\n      dup6\n      dup8\n      gas\n      call\n      swap3\n      pop\n      pop\n      pop\n      returndatasize\n      dup1\n      0x00\n      dup2\n      eq\n      tag_137\n      jumpi\n      mload(0x40)\n      swap2\n      pop\n      and(add(returndatasize, 0x3f), not(0x1f))\n      dup3\n      add\n      0x40\n      mstore\n      returndatasize\n      dup3\n      mstore\n      returndatasize\n      0x00\n      0x20\n      dup5\n      add\n      returndatacopy\n      jump(tag_136)\n    tag_137:\n      0x60\n      swap2\n      pop\n    tag_136:\n      pop\n        /* \"SimpleEnglishAuction.sol\":10661:10718  (bool ok, ) = payable(msg.sender).call{value: amount}(\"\") */\n      pop\n      swap1\n      pop\n        /* \"SimpleEnglishAuction.sol\":10733:10735  ok */\n      dup1\n        /* \"SimpleEnglishAuction.sol\":10728:10763  if (!ok) revert ETHTransferFailed() */\n      tag_138\n      jumpi\n        /* \"SimpleEnglishAuction.sol\":10744:10763  ETHTransferFailed() */\n      mload(0x40)\n      0xb12d13eb00000000000000000000000000000000000000000000000000000000\n      dup2\n      mstore\n      0x04\n      add\n      mload(0x40)\n      dup1\n      swap2\n      sub\n      swap1\n      revert\n        /* \"SimpleEnglishAuction.sol\":10728:10763  if (!ok) revert ETHTransferFailed() */\n    tag_138:\n        /* \"SimpleEnglishAuction.sol\":10436:10770  {... */\n      pop\n      pop\n        /* \"SimpleEnglishAuction.sol\":1254:1255  1 */\n      0x01\n        /* \"SimpleEnglishAuction.sol\":1531:1538  _status */\n      0x00\n        /* \"SimpleEnglishAuction.sol\":1531:1553  _status = _NOT_ENTERED */\n      dup2\n      swap1\n      sstore\n      pop\n        /* \"SimpleEnglishAuction.sol\":10391:10770  function claimRefund() external nonReentrant {... */\n      jump\t// out\n        /* \"SimpleEnglishAuction.sol\":5480:5522  mapping(address => uint256) public refunds */\n    tag_60:\n      mstore(0x20, 0x03)\n      dup1\n      0x00\n      mstore\n      keccak256(0x00, 0x40)\n      0x00\n      swap2\n      pop\n      swap1\n      pop\n      sload\n      dup2\n      jump\t// out\n        /* \"SimpleEnglishAuction.sol\":5338:5363  AuctionState public state */\n    tag_64:\n      0x01\n      0x00\n      swap1\n      sload\n      swap1\n      0x0100\n      exp\n      swap1\n      div\n      0xff\n      and\n      dup2\n      jump\t// out\n        /* \"SimpleEnglishAuction.sol\":11500:11594  function currentTime() external view returns (uint256) {... */\n    tag_69:\n        /* \"SimpleEnglishAuction.sol\":11546:11553  uint256 */\n      0x00\n        /* \"SimpleEnglishAuction.sol\":11572:11587  block.timestamp */\n      timestamp\n        /* \"SimpleEnglishAuction.sol\":11565:11587  return block.timestamp */\n      swap1\n      pop\n        /* \"SimpleEnglishAuction.sol\":11500:11594  function currentTime() external view returns (uint256) {... */\n      swap1\n      jump\t// out\n        /* \"SimpleEnglishAuction.sol\":4927:4963  IERC721 public immutable nftContract */\n    tag_73:\n      immutable(\"0x845e9c18ca148a712f01bf14c91c3e2fe352eabe86c44817e3f33b63f585a343\")\n      dup2\n      jump\t// out\n        /* \"SimpleEnglishAuction.sol\":5404:5429  uint256 public highestBid */\n    tag_78:\n      sload(0x02)\n      dup2\n      jump\t// out\n        /* \"SimpleEnglishAuction.sol\":11253:11409  function timeRemaining() external view returns (uint256) {... */\n    tag_82:\n        /* \"SimpleEnglishAuction.sol\":11301:11308  uint256 */\n      0x00\n        /* \"SimpleEnglishAuction.sol\":11343:11350  endTime */\n      immutable(\"0x881472a5783e16aed4d4ff91eeebe17d420d379d078fc85dddb0a3a55a9abffe\")\n        /* \"SimpleEnglishAuction.sol\":11324:11339  block.timestamp */\n      timestamp\n        /* \"SimpleEnglishAuction.sol\":11324:11350  block.timestamp >= endTime */\n      lt\n        /* \"SimpleEnglishAuction.sol\":11320:11360  if (block.timestamp >= endTime) return 0 */\n      tag_141\n      jumpi\n        /* \"SimpleEnglishAuction.sol\":11359:11360  0 */\n      0x00\n        /* \"SimpleEnglishAuction.sol\":11352:11360  return 0 */\n      swap1\n      pop\n      jump(tag_140)\n        /* \"SimpleEnglishAuction.sol\":11320:11360  if (block.timestamp >= endTime) return 0 */\n    tag_141:\n        /* \"SimpleEnglishAuction.sol\":11387:11402  block.timestamp */\n      timestamp\n        /* \"SimpleEnglishAuction.sol\":11377:11384  endTime */\n      immutable(\"0x881472a5783e16aed4d4ff91eeebe17d420d379d078fc85dddb0a3a55a9abffe\")\n        /* \"SimpleEnglishAuction.sol\":11377:11402  endTime - block.timestamp */\n      tag_142\n      swap2\n      swap1\n      tag_143\n      jump\t// in\n    tag_142:\n        /* \"SimpleEnglishAuction.sol\":11370:11402  return endTime - block.timestamp */\n      swap1\n      pop\n        /* \"SimpleEnglishAuction.sol\":11253:11409  function timeRemaining() external view returns (uint256) {... */\n    tag_140:\n      swap1\n      jump\t// out\n        /* \"SimpleEnglishAuction.sol\":9704:10109  function cancel() external {... */\n    tag_86:\n        /* \"SimpleEnglishAuction.sol\":9759:9765  seller */\n      immutable(\"0x5b9d82bdb7ae056a203cf64bdf26f3fdec584cdfaca2ac8b4c3d0c5b66e90969\")\n        /* \"SimpleEnglishAuction.sol\":9745:9765  msg.sender != seller */\n      0xffffffffffffffffffffffffffffffffffffffff\n      and\n        /* \"SimpleEnglishAuction.sol\":9745:9755  msg.sender */\n      caller\n        /* \"SimpleEnglishAuction.sol\":9745:9765  msg.sender != seller */\n      0xffffffffffffffffffffffffffffffffffffffff\n      and\n      eq\n        /* \"SimpleEnglishAuction.sol\":9741:9796  if (msg.sender != seller)            revert NotSeller() */\n      tag_145\n      jumpi\n        /* \"SimpleEnglishAuction.sol\":9785:9796  NotSeller() */\n      mload(0x40)\n      0x5ec8235100000000000000000000000000000000000000000000000000000000\n      dup2\n      mstore\n      0x04\n      add\n      mload(0x40)\n      dup1\n      swap2\n      sub\n      swap1\n      revert\n        /* \"SimpleEnglishAuction.sol\":9741:9796  if (msg.sender != seller)            revert NotSeller() */\n    tag_145:\n        /* \"SimpleEnglishAuction.sol\":9819:9837  AuctionState.ENDED */\n      0x01\n        /* \"SimpleEnglishAuction.sol\":9810:9837  state == AuctionState.ENDED */\n      0x02\n      dup2\n      gt\n      iszero\n      tag_146\n      jumpi\n      tag_147\n      tag_101\n      jump\t// in\n    tag_147:\n    tag_146:\n        /* \"SimpleEnglishAuction.sol\":9810:9815  state */\n      0x01\n      0x00\n      swap1\n      sload\n      swap1\n      0x0100\n      exp\n      swap1\n      div\n      0xff\n      and\n        /* \"SimpleEnglishAuction.sol\":9810:9837  state == AuctionState.ENDED */\n      0x02\n      dup2\n      gt\n      iszero\n      tag_148\n      jumpi\n      tag_149\n      tag_101\n      jump\t// in\n    tag_149:\n    tag_148:\n      sub\n        /* \"SimpleEnglishAuction.sol\":9806:9871  if (state == AuctionState.ENDED)     revert AuctionAlreadyEnded() */\n      tag_150\n      jumpi\n        /* \"SimpleEnglishAuction.sol\":9850:9871  AuctionAlreadyEnded() */\n      mload(0x40)\n      0xd02e774d00000000000000000000000000000000000000000000000000000000\n      dup2\n      mstore\n      0x04\n      add\n      mload(0x40)\n      dup1\n      swap2\n      sub\n      swap1\n      revert\n        /* \"SimpleEnglishAuction.sol\":9806:9871  if (state == AuctionState.ENDED)     revert AuctionAlreadyEnded() */\n    tag_150:\n        /* \"SimpleEnglishAuction.sol\":9894:9916  AuctionState.CANCELLED */\n      0x02\n        /* \"SimpleEnglishAuction.sol\":9885:9916  state == AuctionState.CANCELLED */\n      dup1\n      dup2\n      gt\n      iszero\n      tag_151\n      jumpi\n      tag_152\n      tag_101\n      jump\t// in\n    tag_152:\n    tag_151:\n        /* \"SimpleEnglishAuction.sol\":9885:9890  state */\n      0x01\n      0x00\n      swap1\n      sload\n      swap1\n      0x0100\n      exp\n      swap1\n      div\n      0xff\n      and\n        /* \"SimpleEnglishAuction.sol\":9885:9916  state == AuctionState.CANCELLED */\n      0x02\n      dup2\n      gt\n      iszero\n      tag_153\n      jumpi\n      tag_154\n      tag_101\n      jump\t// in\n    tag_154:\n    tag_153:\n      sub\n        /* \"SimpleEnglishAuction.sol\":9881:9950  if (state == AuctionState.CANCELLED) revert AuctionAlreadyCancelled() */\n      tag_155\n      jumpi\n        /* \"SimpleEnglishAuction.sol\":9925:9950  AuctionAlreadyCancelled() */\n      mload(0x40)\n      0xca1642f900000000000000000000000000000000000000000000000000000000\n      dup2\n      mstore\n      0x04\n      add\n      mload(0x40)\n      dup1\n      swap2\n      sub\n      swap1\n      revert\n        /* \"SimpleEnglishAuction.sol\":9881:9950  if (state == AuctionState.CANCELLED) revert AuctionAlreadyCancelled() */\n    tag_155:\n        /* \"SimpleEnglishAuction.sol\":9989:9990  0 */\n      0x00\n        /* \"SimpleEnglishAuction.sol\":9964:9991  highestBidder != address(0) */\n      0xffffffffffffffffffffffffffffffffffffffff\n      and\n        /* \"SimpleEnglishAuction.sol\":9964:9977  highestBidder */\n      0x01\n      dup1\n      sload\n      swap1\n      0x0100\n      exp\n      swap1\n      div\n      0xffffffffffffffffffffffffffffffffffffffff\n      and\n        /* \"SimpleEnglishAuction.sol\":9964:9991  highestBidder != address(0) */\n      0xffffffffffffffffffffffffffffffffffffffff\n      and\n      eq\n        /* \"SimpleEnglishAuction.sol\":9960:10023  if (highestBidder != address(0))     revert BidsAlreadyPlaced() */\n      tag_156\n      jumpi\n        /* \"SimpleEnglishAuction.sol\":10004:10023  BidsAlreadyPlaced() */\n      mload(0x40)\n      0xca63af5d00000000000000000000000000000000000000000000000000000000\n      dup2\n      mstore\n      0x04\n      add\n      mload(0x40)\n      dup1\n      swap2\n      sub\n      swap1\n      revert\n        /* \"SimpleEnglishAuction.sol\":9960:10023  if (highestBidder != address(0))     revert BidsAlreadyPlaced() */\n    tag_156:\n        /* \"SimpleEnglishAuction.sol\":10042:10064  AuctionState.CANCELLED */\n      0x02\n        /* \"SimpleEnglishAuction.sol\":10034:10039  state */\n      0x01\n      0x00\n        /* \"SimpleEnglishAuction.sol\":10034:10064  state = AuctionState.CANCELLED */\n      0x0100\n      exp\n      dup2\n      sload\n      dup2\n      0xff\n      mul\n      not\n      and\n      swap1\n      dup4\n      0x02\n      dup2\n      gt\n      iszero\n      tag_157\n      jumpi\n      tag_158\n      tag_101\n      jump\t// in\n    tag_158:\n    tag_157:\n      mul\n      or\n      swap1\n      sstore\n      pop\n        /* \"SimpleEnglishAuction.sol\":10079:10102  AuctionCancelledEvent() */\n      0xda4a109962436eef7c88e0a2824c3574edefa23c5b11f29054f23d6663f2de55\n      mload(0x40)\n      mload(0x40)\n      dup1\n      swap2\n      sub\n      swap1\n      log1\n        /* \"SimpleEnglishAuction.sol\":9704:10109  function cancel() external {... */\n      jump\t// out\n        /* \"SimpleEnglishAuction.sol\":8701:9499  function end() external nonReentrant {... */\n    tag_89:\n        /* \"SimpleEnglishAuction.sol\":1301:1302  2 */\n      0x02\n        /* \"SimpleEnglishAuction.sol\":1427:1434  _status */\n      sload(0x00)\n        /* \"SimpleEnglishAuction.sol\":1427:1446  _status != _ENTERED */\n      sub\n        /* \"SimpleEnglishAuction.sol\":1419:1482  require(_status != _ENTERED, \"ReentrancyGuard: reentrant call\") */\n      tag_160\n      jumpi\n      mload(0x40)\n      0x08c379a000000000000000000000000000000000000000000000000000000000\n      dup2\n      mstore\n      0x04\n      add\n      tag_161\n      swap1\n      tag_97\n      jump\t// in\n    tag_161:\n      mload(0x40)\n      dup1\n      swap2\n      sub\n      swap1\n      revert\n    tag_160:\n        /* \"SimpleEnglishAuction.sol\":1301:1302  2 */\n      0x02\n        /* \"SimpleEnglishAuction.sol\":1492:1499  _status */\n      0x00\n        /* \"SimpleEnglishAuction.sol\":1492:1510  _status = _ENTERED */\n      dup2\n      swap1\n      sstore\n      pop\n        /* \"SimpleEnglishAuction.sol\":8761:8779  AuctionState.ENDED */\n      0x01\n        /* \"SimpleEnglishAuction.sol\":8752:8779  state == AuctionState.ENDED */\n      0x02\n      dup2\n      gt\n      iszero\n      tag_163\n      jumpi\n      tag_164\n      tag_101\n      jump\t// in\n    tag_164:\n    tag_163:\n        /* \"SimpleEnglishAuction.sol\":8752:8757  state */\n      0x01\n      0x00\n      swap1\n      sload\n      swap1\n      0x0100\n      exp\n      swap1\n      div\n      0xff\n      and\n        /* \"SimpleEnglishAuction.sol\":8752:8779  state == AuctionState.ENDED */\n      0x02\n      dup2\n      gt\n      iszero\n      tag_165\n      jumpi\n      tag_166\n      tag_101\n      jump\t// in\n    tag_166:\n    tag_165:\n      sub\n        /* \"SimpleEnglishAuction.sol\":8748:8813  if (state == AuctionState.ENDED)     revert AuctionAlreadyEnded() */\n      tag_167\n      jumpi\n        /* \"SimpleEnglishAuction.sol\":8792:8813  AuctionAlreadyEnded() */\n      mload(0x40)\n      0xd02e774d00000000000000000000000000000000000000000000000000000000\n      dup2\n      mstore\n      0x04\n      add\n      mload(0x40)\n      dup1\n      swap2\n      sub\n      swap1\n      revert\n        /* \"SimpleEnglishAuction.sol\":8748:8813  if (state == AuctionState.ENDED)     revert AuctionAlreadyEnded() */\n    tag_167:\n        /* \"SimpleEnglishAuction.sol\":8836:8858  AuctionState.CANCELLED */\n      0x02\n        /* \"SimpleEnglishAuction.sol\":8827:8858  state == AuctionState.CANCELLED */\n      dup1\n      dup2\n      gt\n      iszero\n      tag_168\n      jumpi\n      tag_169\n      tag_101\n      jump\t// in\n    tag_169:\n    tag_168:\n        /* \"SimpleEnglishAuction.sol\":8827:8832  state */\n      0x01\n      0x00\n      swap1\n      sload\n      swap1\n      0x0100\n      exp\n      swap1\n      div\n      0xff\n      and\n        /* \"SimpleEnglishAuction.sol\":8827:8858  state == AuctionState.CANCELLED */\n      0x02\n      dup2\n      gt\n      iszero\n      tag_170\n      jumpi\n      tag_171\n      tag_101\n      jump\t// in\n    tag_171:\n    tag_170:\n      sub\n        /* \"SimpleEnglishAuction.sol\":8823:8892  if (state == AuctionState.CANCELLED) revert AuctionAlreadyCancelled() */\n      tag_172\n      jumpi\n        /* \"SimpleEnglishAuction.sol\":8867:8892  AuctionAlreadyCancelled() */\n      mload(0x40)\n      0xca1642f900000000000000000000000000000000000000000000000000000000\n      dup2\n      mstore\n      0x04\n      add\n      mload(0x40)\n      dup1\n      swap2\n      sub\n      swap1\n      revert\n        /* \"SimpleEnglishAuction.sol\":8823:8892  if (state == AuctionState.CANCELLED) revert AuctionAlreadyCancelled() */\n    tag_172:\n        /* \"SimpleEnglishAuction.sol\":8924:8931  endTime */\n      immutable(\"0x881472a5783e16aed4d4ff91eeebe17d420d379d078fc85dddb0a3a55a9abffe\")\n        /* \"SimpleEnglishAuction.sol\":8906:8921  block.timestamp */\n      timestamp\n        /* \"SimpleEnglishAuction.sol\":8906:8931  block.timestamp < endTime */\n      lt\n        /* \"SimpleEnglishAuction.sol\":8902:8963  if (block.timestamp < endTime)       revert AuctionNotEnded() */\n      iszero\n      tag_173\n      jumpi\n        /* \"SimpleEnglishAuction.sol\":8946:8963  AuctionNotEnded() */\n      mload(0x40)\n      0x6463738900000000000000000000000000000000000000000000000000000000\n      dup2\n      mstore\n      0x04\n      add\n      mload(0x40)\n      dup1\n      swap2\n      sub\n      swap1\n      revert\n        /* \"SimpleEnglishAuction.sol\":8902:8963  if (block.timestamp < endTime)       revert AuctionNotEnded() */\n    tag_173:\n        /* \"SimpleEnglishAuction.sol\":9002:9003  0 */\n      0x00\n        /* \"SimpleEnglishAuction.sol\":8977:9004  highestBidder == address(0) */\n      0xffffffffffffffffffffffffffffffffffffffff\n      and\n        /* \"SimpleEnglishAuction.sol\":8977:8990  highestBidder */\n      0x01\n      dup1\n      sload\n      swap1\n      0x0100\n      exp\n      swap1\n      div\n      0xffffffffffffffffffffffffffffffffffffffff\n      and\n        /* \"SimpleEnglishAuction.sol\":8977:9004  highestBidder == address(0) */\n      0xffffffffffffffffffffffffffffffffffffffff\n      and\n      sub\n        /* \"SimpleEnglishAuction.sol\":8973:9031  if (highestBidder == address(0))     revert NoBidsPlaced() */\n      tag_174\n      jumpi\n        /* \"SimpleEnglishAuction.sol\":9017:9031  NoBidsPlaced() */\n      mload(0x40)\n      0x7f14603400000000000000000000000000000000000000000000000000000000\n      dup2\n      mstore\n      0x04\n      add\n      mload(0x40)\n      dup1\n      swap2\n      sub\n      swap1\n      revert\n        /* \"SimpleEnglishAuction.sol\":8973:9031  if (highestBidder == address(0))     revert NoBidsPlaced() */\n    tag_174:\n        /* \"SimpleEnglishAuction.sol\":9050:9068  AuctionState.ENDED */\n      0x01\n        /* \"SimpleEnglishAuction.sol\":9042:9047  state */\n      dup1\n      0x00\n        /* \"SimpleEnglishAuction.sol\":9042:9068  state = AuctionState.ENDED */\n      0x0100\n      exp\n      dup2\n      sload\n      dup2\n      0xff\n      mul\n      not\n      and\n      swap1\n      dup4\n      0x02\n      dup2\n      gt\n      iszero\n      tag_175\n      jumpi\n      tag_176\n      tag_101\n      jump\t// in\n    tag_176:\n    tag_175:\n      mul\n      or\n      swap1\n      sstore\n      pop\n        /* \"SimpleEnglishAuction.sol\":9079:9093  address winner */\n      0x00\n        /* \"SimpleEnglishAuction.sol\":9096:9109  highestBidder */\n      0x01\n      dup1\n      sload\n      swap1\n      0x0100\n      exp\n      swap1\n      div\n      0xffffffffffffffffffffffffffffffffffffffff\n      and\n        /* \"SimpleEnglishAuction.sol\":9079:9109  address winner = highestBidder */\n      swap1\n      pop\n        /* \"SimpleEnglishAuction.sol\":9119:9132  uint256 price */\n      0x00\n        /* \"SimpleEnglishAuction.sol\":9136:9146  highestBid */\n      sload(0x02)\n        /* \"SimpleEnglishAuction.sol\":9119:9146  uint256 price  = highestBid */\n      swap1\n      pop\n        /* \"SimpleEnglishAuction.sol\":9175:9181  winner */\n      dup2\n        /* \"SimpleEnglishAuction.sol\":9162:9189  AuctionEnded(winner, price) */\n      0xffffffffffffffffffffffffffffffffffffffff\n      and\n      0xdaec4582d5d9595688c8c98545fdd1c696d41c6aeaeb636737e84ed2f5c00eda\n        /* \"SimpleEnglishAuction.sol\":9183:9188  price */\n      dup3\n        /* \"SimpleEnglishAuction.sol\":9162:9189  AuctionEnded(winner, price) */\n      mload(0x40)\n      tag_177\n      swap2\n      swap1\n      tag_38\n      jump\t// in\n    tag_177:\n      mload(0x40)\n      dup1\n      swap2\n      sub\n      swap1\n      log2\n        /* \"SimpleEnglishAuction.sol\":9223:9230  bool ok */\n      0x00\n        /* \"SimpleEnglishAuction.sol\":9244:9250  seller */\n      immutable(\"0x5b9d82bdb7ae056a203cf64bdf26f3fdec584cdfaca2ac8b4c3d0c5b66e90969\")\n        /* \"SimpleEnglishAuction.sol\":9236:9256  payable(seller).call */\n      0xffffffffffffffffffffffffffffffffffffffff\n      and\n        /* \"SimpleEnglishAuction.sol\":9264:9269  price */\n      dup3\n        /* \"SimpleEnglishAuction.sol\":9236:9274  payable(seller).call{value: price}(\"\") */\n      mload(0x40)\n      tag_178\n      swap1\n      tag_134\n      jump\t// in\n    tag_178:\n      0x00\n      mload(0x40)\n      dup1\n      dup4\n      sub\n      dup2\n      dup6\n      dup8\n      gas\n      call\n      swap3\n      pop\n      pop\n      pop\n      returndatasize\n      dup1\n      0x00\n      dup2\n      eq\n      tag_181\n      jumpi\n      mload(0x40)\n      swap2\n      pop\n      and(add(returndatasize, 0x3f), not(0x1f))\n      dup3\n      add\n      0x40\n      mstore\n      returndatasize\n      dup3\n      mstore\n      returndatasize\n      0x00\n      0x20\n      dup5\n      add\n      returndatacopy\n      jump(tag_180)\n    tag_181:\n      0x60\n      swap2\n      pop\n    tag_180:\n      pop\n        /* \"SimpleEnglishAuction.sol\":9222:9274  (bool ok, ) = payable(seller).call{value: price}(\"\") */\n      pop\n      swap1\n      pop\n        /* \"SimpleEnglishAuction.sol\":9289:9291  ok */\n      dup1\n        /* \"SimpleEnglishAuction.sol\":9284:9319  if (!ok) revert ETHTransferFailed() */\n      tag_182\n      jumpi\n        /* \"SimpleEnglishAuction.sol\":9300:9319  ETHTransferFailed() */\n      mload(0x40)\n      0xb12d13eb00000000000000000000000000000000000000000000000000000000\n      dup2\n      mstore\n      0x04\n      add\n      mload(0x40)\n      dup1\n      swap2\n      sub\n      swap1\n      revert\n        /* \"SimpleEnglishAuction.sol\":9284:9319  if (!ok) revert ETHTransferFailed() */\n    tag_182:\n        /* \"SimpleEnglishAuction.sol\":9443:9454  nftContract */\n      immutable(\"0x845e9c18ca148a712f01bf14c91c3e2fe352eabe86c44817e3f33b63f585a343\")\n        /* \"SimpleEnglishAuction.sol\":9443:9467  nftContract.transferFrom */\n      0xffffffffffffffffffffffffffffffffffffffff\n      and\n      0x23b872dd\n        /* \"SimpleEnglishAuction.sol\":9468:9474  seller */\n      immutable(\"0x5b9d82bdb7ae056a203cf64bdf26f3fdec584cdfaca2ac8b4c3d0c5b66e90969\")\n        /* \"SimpleEnglishAuction.sol\":9476:9482  winner */\n      dup6\n        /* \"SimpleEnglishAuction.sol\":9484:9491  tokenId */\n      immutable(\"0x5ad0f966e4dd8863f27c0e6ee7d684c0c8f4319efed210fe15662a0d29bcd615\")\n        /* \"SimpleEnglishAuction.sol\":9443:9492  nftContract.transferFrom(seller, winner, tokenId) */\n      mload(0x40)\n      dup5\n      0xffffffff\n      and\n      0xe0\n      shl\n      dup2\n      mstore\n      0x04\n      add\n      tag_183\n      swap4\n      swap3\n      swap2\n      swap1\n      tag_184\n      jump\t// in\n    tag_183:\n      0x00\n      mload(0x40)\n      dup1\n      dup4\n      sub\n      dup2\n      0x00\n      dup8\n      dup1\n      extcodesize\n      iszero\n      dup1\n      iszero\n      tag_185\n      jumpi\n      0x00\n      dup1\n      revert\n    tag_185:\n      pop\n      gas\n      call\n      iszero\n      dup1\n      iszero\n      tag_187\n      jumpi\n      returndatasize\n      0x00\n      dup1\n      returndatacopy\n      revert(0x00, returndatasize)\n    tag_187:\n      pop\n      pop\n      pop\n      pop\n        /* \"SimpleEnglishAuction.sol\":8738:9499  {... */\n      pop\n      pop\n      pop\n        /* \"SimpleEnglishAuction.sol\":1254:1255  1 */\n      0x01\n        /* \"SimpleEnglishAuction.sol\":1531:1538  _status */\n      0x00\n        /* \"SimpleEnglishAuction.sol\":1531:1553  _status = _NOT_ENTERED */\n      dup2\n      swap1\n      sstore\n      pop\n        /* \"SimpleEnglishAuction.sol\":8701:9499  function end() external nonReentrant {... */\n      jump\t// out\n        /* \"SimpleEnglishAuction.sol\":5007:5042  uint256 public immutable startPrice */\n    tag_92:\n      immutable(\"0x4393e7114eb674248a1480712950c28cb06e118e040859a2eafa3ca8a6dfbd69\")\n      dup2\n      jump\t// out\n        /* \"#utility.yul\":7:176   */\n    tag_188:\n        /* \"#utility.yul\":91:102   */\n      0x00\n        /* \"#utility.yul\":125:131   */\n      dup3\n        /* \"#utility.yul\":120:123   */\n      dup3\n        /* \"#utility.yul\":113:132   */\n      mstore\n        /* \"#utility.yul\":165:169   */\n      0x20\n        /* \"#utility.yul\":160:163   */\n      dup3\n        /* \"#utility.yul\":156:170   */\n      add\n        /* \"#utility.yul\":141:170   */\n      swap1\n      pop\n        /* \"#utility.yul\":7:176   */\n      swap3\n      swap2\n      pop\n      pop\n      jump\t// out\n        /* \"#utility.yul\":182:346   */\n    tag_189:\n        /* \"#utility.yul\":322:338   */\n      0x5345413a20757365206269642829000000000000000000000000000000000000\n        /* \"#utility.yul\":318:319   */\n      0x00\n        /* \"#utility.yul\":310:316   */\n      dup3\n        /* \"#utility.yul\":306:320   */\n      add\n        /* \"#utility.yul\":299:339   */\n      mstore\n        /* \"#utility.yul\":182:346   */\n      pop\n      jump\t// out\n        /* \"#utility.yul\":352:718   */\n    tag_190:\n        /* \"#utility.yul\":494:497   */\n      0x00\n        /* \"#utility.yul\":515:582   */\n      tag_221\n        /* \"#utility.yul\":579:581   */\n      0x0e\n        /* \"#utility.yul\":574:577   */\n      dup4\n        /* \"#utility.yul\":515:582   */\n      tag_188\n      jump\t// in\n    tag_221:\n        /* \"#utility.yul\":508:582   */\n      swap2\n      pop\n        /* \"#utility.yul\":591:684   */\n      tag_222\n        /* \"#utility.yul\":680:683   */\n      dup3\n        /* \"#utility.yul\":591:684   */\n      tag_189\n      jump\t// in\n    tag_222:\n        /* \"#utility.yul\":709:711   */\n      0x20\n        /* \"#utility.yul\":704:707   */\n      dup3\n        /* \"#utility.yul\":700:712   */\n      add\n        /* \"#utility.yul\":693:712   */\n      swap1\n      pop\n        /* \"#utility.yul\":352:718   */\n      swap2\n      swap1\n      pop\n      jump\t// out\n        /* \"#utility.yul\":724:1143   */\n    tag_25:\n        /* \"#utility.yul\":890:894   */\n      0x00\n        /* \"#utility.yul\":928:930   */\n      0x20\n        /* \"#utility.yul\":917:926   */\n      dup3\n        /* \"#utility.yul\":913:931   */\n      add\n        /* \"#utility.yul\":905:931   */\n      swap1\n      pop\n        /* \"#utility.yul\":977:986   */\n      dup2\n        /* \"#utility.yul\":971:975   */\n      dup2\n        /* \"#utility.yul\":967:987   */\n      sub\n        /* \"#utility.yul\":963:964   */\n      0x00\n        /* \"#utility.yul\":952:961   */\n      dup4\n        /* \"#utility.yul\":948:965   */\n      add\n        /* \"#utility.yul\":941:988   */\n      mstore\n        /* \"#utility.yul\":1005:1136   */\n      tag_224\n        /* \"#utility.yul\":1131:1135   */\n      dup2\n        /* \"#utility.yul\":1005:1136   */\n      tag_190\n      jump\t// in\n    tag_224:\n        /* \"#utility.yul\":997:1136   */\n      swap1\n      pop\n        /* \"#utility.yul\":724:1143   */\n      swap2\n      swap1\n      pop\n      jump\t// out\n        /* \"#utility.yul\":1149:1275   */\n    tag_191:\n        /* \"#utility.yul\":1186:1193   */\n      0x00\n        /* \"#utility.yul\":1226:1268   */\n      0xffffffffffffffffffffffffffffffffffffffff\n        /* \"#utility.yul\":1219:1224   */\n      dup3\n        /* \"#utility.yul\":1215:1269   */\n      and\n        /* \"#utility.yul\":1204:1269   */\n      swap1\n      pop\n        /* \"#utility.yul\":1149:1275   */\n      swap2\n      swap1\n      pop\n      jump\t// out\n        /* \"#utility.yul\":1281:1377   */\n    tag_192:\n        /* \"#utility.yul\":1318:1325   */\n      0x00\n        /* \"#utility.yul\":1347:1371   */\n      tag_227\n        /* \"#utility.yul\":1365:1370   */\n      dup3\n        /* \"#utility.yul\":1347:1371   */\n      tag_191\n      jump\t// in\n    tag_227:\n        /* \"#utility.yul\":1336:1371   */\n      swap1\n      pop\n        /* \"#utility.yul\":1281:1377   */\n      swap2\n      swap1\n      pop\n      jump\t// out\n        /* \"#utility.yul\":1383:1501   */\n    tag_193:\n        /* \"#utility.yul\":1470:1494   */\n      tag_229\n        /* \"#utility.yul\":1488:1493   */\n      dup2\n        /* \"#utility.yul\":1470:1494   */\n      tag_192\n      jump\t// in\n    tag_229:\n        /* \"#utility.yul\":1465:1468   */\n      dup3\n        /* \"#utility.yul\":1458:1495   */\n      mstore\n        /* \"#utility.yul\":1383:1501   */\n      pop\n      pop\n      jump\t// out\n        /* \"#utility.yul\":1507:1729   */\n    tag_33:\n        /* \"#utility.yul\":1600:1604   */\n      0x00\n        /* \"#utility.yul\":1638:1640   */\n      0x20\n        /* \"#utility.yul\":1627:1636   */\n      dup3\n        /* \"#utility.yul\":1623:1641   */\n      add\n        /* \"#utility.yul\":1615:1641   */\n      swap1\n      pop\n        /* \"#utility.yul\":1651:1722   */\n      tag_231\n        /* \"#utility.yul\":1719:1720   */\n      0x00\n        /* \"#utility.yul\":1708:1717   */\n      dup4\n        /* \"#utility.yul\":1704:1721   */\n      add\n        /* \"#utility.yul\":1695:1701   */\n      dup5\n        /* \"#utility.yul\":1651:1722   */\n      tag_193\n      jump\t// in\n    tag_231:\n        /* \"#utility.yul\":1507:1729   */\n      swap3\n      swap2\n      pop\n      pop\n      jump\t// out\n        /* \"#utility.yul\":1735:1812   */\n    tag_194:\n        /* \"#utility.yul\":1772:1779   */\n      0x00\n        /* \"#utility.yul\":1801:1806   */\n      dup2\n        /* \"#utility.yul\":1790:1806   */\n      swap1\n      pop\n        /* \"#utility.yul\":1735:1812   */\n      swap2\n      swap1\n      pop\n      jump\t// out\n        /* \"#utility.yul\":1818:1936   */\n    tag_195:\n        /* \"#utility.yul\":1905:1929   */\n      tag_234\n        /* \"#utility.yul\":1923:1928   */\n      dup2\n        /* \"#utility.yul\":1905:1929   */\n      tag_194\n      jump\t// in\n    tag_234:\n        /* \"#utility.yul\":1900:1903   */\n      dup3\n        /* \"#utility.yul\":1893:1930   */\n      mstore\n        /* \"#utility.yul\":1818:1936   */\n      pop\n      pop\n      jump\t// out\n        /* \"#utility.yul\":1942:2164   */\n    tag_38:\n        /* \"#utility.yul\":2035:2039   */\n      0x00\n        /* \"#utility.yul\":2073:2075   */\n      0x20\n        /* \"#utility.yul\":2062:2071   */\n      dup3\n        /* \"#utility.yul\":2058:2076   */\n      add\n        /* \"#utility.yul\":2050:2076   */\n      swap1\n      pop\n        /* \"#utility.yul\":2086:2157   */\n      tag_236\n        /* \"#utility.yul\":2154:2155   */\n      0x00\n        /* \"#utility.yul\":2143:2152   */\n      dup4\n        /* \"#utility.yul\":2139:2156   */\n      add\n        /* \"#utility.yul\":2130:2136   */\n      dup5\n        /* \"#utility.yul\":2086:2157   */\n      tag_195\n      jump\t// in\n    tag_236:\n        /* \"#utility.yul\":1942:2164   */\n      swap3\n      swap2\n      pop\n      pop\n      jump\t// out\n        /* \"#utility.yul\":2251:2368   */\n    tag_197:\n        /* \"#utility.yul\":2360:2361   */\n      0x00\n        /* \"#utility.yul\":2357:2358   */\n      dup1\n        /* \"#utility.yul\":2350:2362   */\n      revert\n        /* \"#utility.yul\":2497:2619   */\n    tag_199:\n        /* \"#utility.yul\":2570:2594   */\n      tag_241\n        /* \"#utility.yul\":2588:2593   */\n      dup2\n        /* \"#utility.yul\":2570:2594   */\n      tag_192\n      jump\t// in\n    tag_241:\n        /* \"#utility.yul\":2563:2568   */\n      dup2\n        /* \"#utility.yul\":2560:2595   */\n      eq\n        /* \"#utility.yul\":2550:2613   */\n      tag_242\n      jumpi\n        /* \"#utility.yul\":2609:2610   */\n      0x00\n        /* \"#utility.yul\":2606:2607   */\n      dup1\n        /* \"#utility.yul\":2599:2611   */\n      revert\n        /* \"#utility.yul\":2550:2613   */\n    tag_242:\n        /* \"#utility.yul\":2497:2619   */\n      pop\n      jump\t// out\n        /* \"#utility.yul\":2625:2764   */\n    tag_200:\n        /* \"#utility.yul\":2671:2676   */\n      0x00\n        /* \"#utility.yul\":2709:2715   */\n      dup2\n        /* \"#utility.yul\":2696:2716   */\n      calldataload\n        /* \"#utility.yul\":2687:2716   */\n      swap1\n      pop\n        /* \"#utility.yul\":2725:2758   */\n      tag_244\n        /* \"#utility.yul\":2752:2757   */\n      dup2\n        /* \"#utility.yul\":2725:2758   */\n      tag_199\n      jump\t// in\n    tag_244:\n        /* \"#utility.yul\":2625:2764   */\n      swap3\n      swap2\n      pop\n      pop\n      jump\t// out\n        /* \"#utility.yul\":2770:3099   */\n    tag_59:\n        /* \"#utility.yul\":2829:2835   */\n      0x00\n        /* \"#utility.yul\":2878:2880   */\n      0x20\n        /* \"#utility.yul\":2866:2875   */\n      dup3\n        /* \"#utility.yul\":2857:2864   */\n      dup5\n        /* \"#utility.yul\":2853:2876   */\n      sub\n        /* \"#utility.yul\":2849:2881   */\n      slt\n        /* \"#utility.yul\":2846:2965   */\n      iszero\n      tag_246\n      jumpi\n        /* \"#utility.yul\":2884:2963   */\n      tag_247\n      tag_197\n      jump\t// in\n    tag_247:\n        /* \"#utility.yul\":2846:2965   */\n    tag_246:\n        /* \"#utility.yul\":3004:3005   */\n      0x00\n        /* \"#utility.yul\":3029:3082   */\n      tag_248\n        /* \"#utility.yul\":3074:3081   */\n      dup5\n        /* \"#utility.yul\":3065:3071   */\n      dup3\n        /* \"#utility.yul\":3054:3063   */\n      dup6\n        /* \"#utility.yul\":3050:3072   */\n      add\n        /* \"#utility.yul\":3029:3082   */\n      tag_200\n      jump\t// in\n    tag_248:\n        /* \"#utility.yul\":3019:3082   */\n      swap2\n      pop\n        /* \"#utility.yul\":2975:3092   */\n      pop\n        /* \"#utility.yul\":2770:3099   */\n      swap3\n      swap2\n      pop\n      pop\n      jump\t// out\n        /* \"#utility.yul\":3105:3285   */\n    tag_101:\n        /* \"#utility.yul\":3153:3230   */\n      0x4e487b7100000000000000000000000000000000000000000000000000000000\n        /* \"#utility.yul\":3150:3151   */\n      0x00\n        /* \"#utility.yul\":3143:3231   */\n      mstore\n        /* \"#utility.yul\":3250:3254   */\n      0x21\n        /* \"#utility.yul\":3247:3248   */\n      0x04\n        /* \"#utility.yul\":3240:3255   */\n      mstore\n        /* \"#utility.yul\":3274:3278   */\n      0x24\n        /* \"#utility.yul\":3271:3272   */\n      0x00\n        /* \"#utility.yul\":3264:3279   */\n      revert\n        /* \"#utility.yul\":3291:3411   */\n    tag_201:\n        /* \"#utility.yul\":3379:3380   */\n      0x03\n        /* \"#utility.yul\":3372:3377   */\n      dup2\n        /* \"#utility.yul\":3369:3381   */\n      lt\n        /* \"#utility.yul\":3359:3405   */\n      tag_251\n      jumpi\n        /* \"#utility.yul\":3385:3403   */\n      tag_252\n      tag_101\n      jump\t// in\n    tag_252:\n        /* \"#utility.yul\":3359:3405   */\n    tag_251:\n        /* \"#utility.yul\":3291:3411   */\n      pop\n      jump\t// out\n        /* \"#utility.yul\":3417:3558   */\n    tag_202:\n        /* \"#utility.yul\":3469:3476   */\n      0x00\n        /* \"#utility.yul\":3498:3503   */\n      dup2\n        /* \"#utility.yul\":3487:3503   */\n      swap1\n      pop\n        /* \"#utility.yul\":3504:3552   */\n      tag_254\n        /* \"#utility.yul\":3546:3551   */\n      dup3\n        /* \"#utility.yul\":3504:3552   */\n      tag_201\n      jump\t// in\n    tag_254:\n        /* \"#utility.yul\":3417:3558   */\n      swap2\n      swap1\n      pop\n      jump\t// out\n        /* \"#utility.yul\":3564:3705   */\n    tag_203:\n        /* \"#utility.yul\":3627:3636   */\n      0x00\n        /* \"#utility.yul\":3660:3699   */\n      tag_256\n        /* \"#utility.yul\":3693:3698   */\n      dup3\n        /* \"#utility.yul\":3660:3699   */\n      tag_202\n      jump\t// in\n    tag_256:\n        /* \"#utility.yul\":3647:3699   */\n      swap1\n      pop\n        /* \"#utility.yul\":3564:3705   */\n      swap2\n      swap1\n      pop\n      jump\t// out\n        /* \"#utility.yul\":3711:3868   */\n    tag_204:\n        /* \"#utility.yul\":3811:3861   */\n      tag_258\n        /* \"#utility.yul\":3855:3860   */\n      dup2\n        /* \"#utility.yul\":3811:3861   */\n      tag_203\n      jump\t// in\n    tag_258:\n        /* \"#utility.yul\":3806:3809   */\n      dup3\n        /* \"#utility.yul\":3799:3862   */\n      mstore\n        /* \"#utility.yul\":3711:3868   */\n      pop\n      pop\n      jump\t// out\n        /* \"#utility.yul\":3874:4122   */\n    tag_66:\n        /* \"#utility.yul\":3980:3984   */\n      0x00\n        /* \"#utility.yul\":4018:4020   */\n      0x20\n        /* \"#utility.yul\":4007:4016   */\n      dup3\n        /* \"#utility.yul\":4003:4021   */\n      add\n        /* \"#utility.yul\":3995:4021   */\n      swap1\n      pop\n        /* \"#utility.yul\":4031:4115   */\n      tag_260\n        /* \"#utility.yul\":4112:4113   */\n      0x00\n        /* \"#utility.yul\":4101:4110   */\n      dup4\n        /* \"#utility.yul\":4097:4114   */\n      add\n        /* \"#utility.yul\":4088:4094   */\n      dup5\n        /* \"#utility.yul\":4031:4115   */\n      tag_204\n      jump\t// in\n    tag_260:\n        /* \"#utility.yul\":3874:4122   */\n      swap3\n      swap2\n      pop\n      pop\n      jump\t// out\n        /* \"#utility.yul\":4128:4188   */\n    tag_205:\n        /* \"#utility.yul\":4156:4159   */\n      0x00\n        /* \"#utility.yul\":4177:4182   */\n      dup2\n        /* \"#utility.yul\":4170:4182   */\n      swap1\n      pop\n        /* \"#utility.yul\":4128:4188   */\n      swap2\n      swap1\n      pop\n      jump\t// out\n        /* \"#utility.yul\":4194:4336   */\n    tag_206:\n        /* \"#utility.yul\":4244:4253   */\n      0x00\n        /* \"#utility.yul\":4277:4330   */\n      tag_263\n        /* \"#utility.yul\":4295:4329   */\n      tag_264\n        /* \"#utility.yul\":4304:4328   */\n      tag_265\n        /* \"#utility.yul\":4322:4327   */\n      dup5\n        /* \"#utility.yul\":4304:4328   */\n      tag_191\n      jump\t// in\n    tag_265:\n        /* \"#utility.yul\":4295:4329   */\n      tag_205\n      jump\t// in\n    tag_264:\n        /* \"#utility.yul\":4277:4330   */\n      tag_191\n      jump\t// in\n    tag_263:\n        /* \"#utility.yul\":4264:4330   */\n      swap1\n      pop\n        /* \"#utility.yul\":4194:4336   */\n      swap2\n      swap1\n      pop\n      jump\t// out\n        /* \"#utility.yul\":4342:4468   */\n    tag_207:\n        /* \"#utility.yul\":4392:4401   */\n      0x00\n        /* \"#utility.yul\":4425:4462   */\n      tag_267\n        /* \"#utility.yul\":4456:4461   */\n      dup3\n        /* \"#utility.yul\":4425:4462   */\n      tag_206\n      jump\t// in\n    tag_267:\n        /* \"#utility.yul\":4412:4462   */\n      swap1\n      pop\n        /* \"#utility.yul\":4342:4468   */\n      swap2\n      swap1\n      pop\n      jump\t// out\n        /* \"#utility.yul\":4474:4614   */\n    tag_208:\n        /* \"#utility.yul\":4538:4547   */\n      0x00\n        /* \"#utility.yul\":4571:4608   */\n      tag_269\n        /* \"#utility.yul\":4602:4607   */\n      dup3\n        /* \"#utility.yul\":4571:4608   */\n      tag_207\n      jump\t// in\n    tag_269:\n        /* \"#utility.yul\":4558:4608   */\n      swap1\n      pop\n        /* \"#utility.yul\":4474:4614   */\n      swap2\n      swap1\n      pop\n      jump\t// out\n        /* \"#utility.yul\":4620:4779   */\n    tag_209:\n        /* \"#utility.yul\":4721:4772   */\n      tag_271\n        /* \"#utility.yul\":4766:4771   */\n      dup2\n        /* \"#utility.yul\":4721:4772   */\n      tag_208\n      jump\t// in\n    tag_271:\n        /* \"#utility.yul\":4716:4719   */\n      dup3\n        /* \"#utility.yul\":4709:4773   */\n      mstore\n        /* \"#utility.yul\":4620:4779   */\n      pop\n      pop\n      jump\t// out\n        /* \"#utility.yul\":4785:5035   */\n    tag_75:\n        /* \"#utility.yul\":4892:4896   */\n      0x00\n        /* \"#utility.yul\":4930:4932   */\n      0x20\n        /* \"#utility.yul\":4919:4928   */\n      dup3\n        /* \"#utility.yul\":4915:4933   */\n      add\n        /* \"#utility.yul\":4907:4933   */\n      swap1\n      pop\n        /* \"#utility.yul\":4943:5028   */\n      tag_273\n        /* \"#utility.yul\":5025:5026   */\n      0x00\n        /* \"#utility.yul\":5014:5023   */\n      dup4\n        /* \"#utility.yul\":5010:5027   */\n      add\n        /* \"#utility.yul\":5001:5007   */\n      dup5\n        /* \"#utility.yul\":4943:5028   */\n      tag_209\n      jump\t// in\n    tag_273:\n        /* \"#utility.yul\":4785:5035   */\n      swap3\n      swap2\n      pop\n      pop\n      jump\t// out\n        /* \"#utility.yul\":5041:5222   */\n    tag_210:\n        /* \"#utility.yul\":5181:5214   */\n      0x5265656e7472616e637947756172643a207265656e7472616e742063616c6c00\n        /* \"#utility.yul\":5177:5178   */\n      0x00\n        /* \"#utility.yul\":5169:5175   */\n      dup3\n        /* \"#utility.yul\":5165:5179   */\n      add\n        /* \"#utility.yul\":5158:5215   */\n      mstore\n        /* \"#utility.yul\":5041:5222   */\n      pop\n      jump\t// out\n        /* \"#utility.yul\":5228:5594   */\n    tag_211:\n        /* \"#utility.yul\":5370:5373   */\n      0x00\n        /* \"#utility.yul\":5391:5458   */\n      tag_276\n        /* \"#utility.yul\":5455:5457   */\n      0x1f\n        /* \"#utility.yul\":5450:5453   */\n      dup4\n        /* \"#utility.yul\":5391:5458   */\n      tag_188\n      jump\t// in\n    tag_276:\n        /* \"#utility.yul\":5384:5458   */\n      swap2\n      pop\n        /* \"#utility.yul\":5467:5560   */\n      tag_277\n        /* \"#utility.yul\":5556:5559   */\n      dup3\n        /* \"#utility.yul\":5467:5560   */\n      tag_210\n      jump\t// in\n    tag_277:\n        /* \"#utility.yul\":5585:5587   */\n      0x20\n        /* \"#utility.yul\":5580:5583   */\n      dup3\n        /* \"#utility.yul\":5576:5588   */\n      add\n        /* \"#utility.yul\":5569:5588   */\n      swap1\n      pop\n        /* \"#utility.yul\":5228:5594   */\n      swap2\n      swap1\n      pop\n      jump\t// out\n        /* \"#utility.yul\":5600:6019   */\n    tag_97:\n        /* \"#utility.yul\":5766:5770   */\n      0x00\n        /* \"#utility.yul\":5804:5806   */\n      0x20\n        /* \"#utility.yul\":5793:5802   */\n      dup3\n        /* \"#utility.yul\":5789:5807   */\n      add\n        /* \"#utility.yul\":5781:5807   */\n      swap1\n      pop\n        /* \"#utility.yul\":5853:5862   */\n      dup2\n        /* \"#utility.yul\":5847:5851   */\n      dup2\n        /* \"#utility.yul\":5843:5863   */\n      sub\n        /* \"#utility.yul\":5839:5840   */\n      0x00\n        /* \"#utility.yul\":5828:5837   */\n      dup4\n        /* \"#utility.yul\":5824:5841   */\n      add\n        /* \"#utility.yul\":5817:5864   */\n      mstore\n        /* \"#utility.yul\":5881:6012   */\n      tag_279\n        /* \"#utility.yul\":6007:6011   */\n      dup2\n        /* \"#utility.yul\":5881:6012   */\n      tag_211\n      jump\t// in\n    tag_279:\n        /* \"#utility.yul\":5873:6012   */\n      swap1\n      pop\n        /* \"#utility.yul\":5600:6019   */\n      swap2\n      swap1\n      pop\n      jump\t// out\n        /* \"#utility.yul\":6025:6205   */\n    tag_212:\n        /* \"#utility.yul\":6073:6150   */\n      0x4e487b7100000000000000000000000000000000000000000000000000000000\n        /* \"#utility.yul\":6070:6071   */\n      0x00\n        /* \"#utility.yul\":6063:6151   */\n      mstore\n        /* \"#utility.yul\":6170:6174   */\n      0x12\n        /* \"#utility.yul\":6167:6168   */\n      0x04\n        /* \"#utility.yul\":6160:6175   */\n      mstore\n        /* \"#utility.yul\":6194:6198   */\n      0x24\n        /* \"#utility.yul\":6191:6192   */\n      0x00\n        /* \"#utility.yul\":6184:6199   */\n      revert\n        /* \"#utility.yul\":6211:6391   */\n    tag_213:\n        /* \"#utility.yul\":6259:6336   */\n      0x4e487b7100000000000000000000000000000000000000000000000000000000\n        /* \"#utility.yul\":6256:6257   */\n      0x00\n        /* \"#utility.yul\":6249:6337   */\n      mstore\n        /* \"#utility.yul\":6356:6360   */\n      0x11\n        /* \"#utility.yul\":6353:6354   */\n      0x04\n        /* \"#utility.yul\":6346:6361   */\n      mstore\n        /* \"#utility.yul\":6380:6384   */\n      0x24\n        /* \"#utility.yul\":6377:6378   */\n      0x00\n        /* \"#utility.yul\":6370:6385   */\n      revert\n        /* \"#utility.yul\":6397:6582   */\n    tag_113:\n        /* \"#utility.yul\":6437:6438   */\n      0x00\n        /* \"#utility.yul\":6454:6474   */\n      tag_283\n        /* \"#utility.yul\":6472:6473   */\n      dup3\n        /* \"#utility.yul\":6454:6474   */\n      tag_194\n      jump\t// in\n    tag_283:\n        /* \"#utility.yul\":6449:6474   */\n      swap2\n      pop\n        /* \"#utility.yul\":6488:6508   */\n      tag_284\n        /* \"#utility.yul\":6506:6507   */\n      dup4\n        /* \"#utility.yul\":6488:6508   */\n      tag_194\n      jump\t// in\n    tag_284:\n        /* \"#utility.yul\":6483:6508   */\n      swap3\n      pop\n        /* \"#utility.yul\":6527:6528   */\n      dup3\n        /* \"#utility.yul\":6517:6552   */\n      tag_285\n      jumpi\n        /* \"#utility.yul\":6532:6550   */\n      tag_286\n      tag_212\n      jump\t// in\n    tag_286:\n        /* \"#utility.yul\":6517:6552   */\n    tag_285:\n        /* \"#utility.yul\":6574:6575   */\n      dup3\n        /* \"#utility.yul\":6571:6572   */\n      dup3\n        /* \"#utility.yul\":6567:6576   */\n      div\n        /* \"#utility.yul\":6562:6576   */\n      swap1\n      pop\n        /* \"#utility.yul\":6397:6582   */\n      swap3\n      swap2\n      pop\n      pop\n      jump\t// out\n        /* \"#utility.yul\":6588:6779   */\n    tag_115:\n        /* \"#utility.yul\":6628:6631   */\n      0x00\n        /* \"#utility.yul\":6647:6667   */\n      tag_288\n        /* \"#utility.yul\":6665:6666   */\n      dup3\n        /* \"#utility.yul\":6647:6667   */\n      tag_194\n      jump\t// in\n    tag_288:\n        /* \"#utility.yul\":6642:6667   */\n      swap2\n      pop\n        /* \"#utility.yul\":6681:6701   */\n      tag_289\n        /* \"#utility.yul\":6699:6700   */\n      dup4\n        /* \"#utility.yul\":6681:6701   */\n      tag_194\n      jump\t// in\n    tag_289:\n        /* \"#utility.yul\":6676:6701   */\n      swap3\n      pop\n        /* \"#utility.yul\":6724:6725   */\n      dup3\n        /* \"#utility.yul\":6721:6722   */\n      dup3\n        /* \"#utility.yul\":6717:6726   */\n      add\n        /* \"#utility.yul\":6710:6726   */\n      swap1\n      pop\n        /* \"#utility.yul\":6745:6748   */\n      dup1\n        /* \"#utility.yul\":6742:6743   */\n      dup3\n        /* \"#utility.yul\":6739:6749   */\n      gt\n        /* \"#utility.yul\":6736:6772   */\n      iszero\n      tag_290\n      jumpi\n        /* \"#utility.yul\":6752:6770   */\n      tag_291\n      tag_213\n      jump\t// in\n    tag_291:\n        /* \"#utility.yul\":6736:6772   */\n    tag_290:\n        /* \"#utility.yul\":6588:6779   */\n      swap3\n      swap2\n      pop\n      pop\n      jump\t// out\n        /* \"#utility.yul\":6785:7117   */\n    tag_119:\n        /* \"#utility.yul\":6906:6910   */\n      0x00\n        /* \"#utility.yul\":6944:6946   */\n      0x40\n        /* \"#utility.yul\":6933:6942   */\n      dup3\n        /* \"#utility.yul\":6929:6947   */\n      add\n        /* \"#utility.yul\":6921:6947   */\n      swap1\n      pop\n        /* \"#utility.yul\":6957:7028   */\n      tag_293\n        /* \"#utility.yul\":7025:7026   */\n      0x00\n        /* \"#utility.yul\":7014:7023   */\n      dup4\n        /* \"#utility.yul\":7010:7027   */\n      add\n        /* \"#utility.yul\":7001:7007   */\n      dup6\n        /* \"#utility.yul\":6957:7028   */\n      tag_195\n      jump\t// in\n    tag_293:\n        /* \"#utility.yul\":7038:7110   */\n      tag_294\n        /* \"#utility.yul\":7106:7108   */\n      0x20\n        /* \"#utility.yul\":7095:7104   */\n      dup4\n        /* \"#utility.yul\":7091:7109   */\n      add\n        /* \"#utility.yul\":7082:7088   */\n      dup5\n        /* \"#utility.yul\":7038:7110   */\n      tag_195\n      jump\t// in\n    tag_294:\n        /* \"#utility.yul\":6785:7117   */\n      swap4\n      swap3\n      pop\n      pop\n      pop\n      jump\t// out\n        /* \"#utility.yul\":7123:7270   */\n    tag_214:\n        /* \"#utility.yul\":7224:7235   */\n      0x00\n        /* \"#utility.yul\":7261:7264   */\n      dup2\n        /* \"#utility.yul\":7246:7264   */\n      swap1\n      pop\n        /* \"#utility.yul\":7123:7270   */\n      swap3\n      swap2\n      pop\n      pop\n      jump\t// out\n        /* \"#utility.yul\":7276:7390   */\n    tag_215:\n      pop\n      jump\t// out\n        /* \"#utility.yul\":7396:7794   */\n    tag_216:\n        /* \"#utility.yul\":7555:7558   */\n      0x00\n        /* \"#utility.yul\":7576:7659   */\n      tag_298\n        /* \"#utility.yul\":7657:7658   */\n      0x00\n        /* \"#utility.yul\":7652:7655   */\n      dup4\n        /* \"#utility.yul\":7576:7659   */\n      tag_214\n      jump\t// in\n    tag_298:\n        /* \"#utility.yul\":7569:7659   */\n      swap2\n      pop\n        /* \"#utility.yul\":7668:7761   */\n      tag_299\n        /* \"#utility.yul\":7757:7760   */\n      dup3\n        /* \"#utility.yul\":7668:7761   */\n      tag_215\n      jump\t// in\n    tag_299:\n        /* \"#utility.yul\":7786:7787   */\n      0x00\n        /* \"#utility.yul\":7781:7784   */\n      dup3\n        /* \"#utility.yul\":7777:7788   */\n      add\n        /* \"#utility.yul\":7770:7788   */\n      swap1\n      pop\n        /* \"#utility.yul\":7396:7794   */\n      swap2\n      swap1\n      pop\n      jump\t// out\n        /* \"#utility.yul\":7800:8179   */\n    tag_134:\n        /* \"#utility.yul\":7984:7987   */\n      0x00\n        /* \"#utility.yul\":8006:8153   */\n      tag_301\n        /* \"#utility.yul\":8149:8152   */\n      dup3\n        /* \"#utility.yul\":8006:8153   */\n      tag_216\n      jump\t// in\n    tag_301:\n        /* \"#utility.yul\":7999:8153   */\n      swap2\n      pop\n        /* \"#utility.yul\":8170:8173   */\n      dup2\n        /* \"#utility.yul\":8163:8173   */\n      swap1\n      pop\n        /* \"#utility.yul\":7800:8179   */\n      swap2\n      swap1\n      pop\n      jump\t// out\n        /* \"#utility.yul\":8185:8379   */\n    tag_143:\n        /* \"#utility.yul\":8225:8229   */\n      0x00\n        /* \"#utility.yul\":8245:8265   */\n      tag_303\n        /* \"#utility.yul\":8263:8264   */\n      dup3\n        /* \"#utility.yul\":8245:8265   */\n      tag_194\n      jump\t// in\n    tag_303:\n        /* \"#utility.yul\":8240:8265   */\n      swap2\n      pop\n        /* \"#utility.yul\":8279:8299   */\n      tag_304\n        /* \"#utility.yul\":8297:8298   */\n      dup4\n        /* \"#utility.yul\":8279:8299   */\n      tag_194\n      jump\t// in\n    tag_304:\n        /* \"#utility.yul\":8274:8299   */\n      swap3\n      pop\n        /* \"#utility.yul\":8323:8324   */\n      dup3\n        /* \"#utility.yul\":8320:8321   */\n      dup3\n        /* \"#utility.yul\":8316:8325   */\n      sub\n        /* \"#utility.yul\":8308:8325   */\n      swap1\n      pop\n        /* \"#utility.yul\":8347:8348   */\n      dup2\n        /* \"#utility.yul\":8341:8345   */\n      dup2\n        /* \"#utility.yul\":8338:8349   */\n      gt\n        /* \"#utility.yul\":8335:8372   */\n      iszero\n      tag_305\n      jumpi\n        /* \"#utility.yul\":8352:8370   */\n      tag_306\n      tag_213\n      jump\t// in\n    tag_306:\n        /* \"#utility.yul\":8335:8372   */\n    tag_305:\n        /* \"#utility.yul\":8185:8379   */\n      swap3\n      swap2\n      pop\n      pop\n      jump\t// out\n        /* \"#utility.yul\":8385:8827   */\n    tag_184:\n        /* \"#utility.yul\":8534:8538   */\n      0x00\n        /* \"#utility.yul\":8572:8574   */\n      0x60\n        /* \"#utility.yul\":8561:8570   */\n      dup3\n        /* \"#utility.yul\":8557:8575   */\n      add\n        /* \"#utility.yul\":8549:8575   */\n      swap1\n      pop\n        /* \"#utility.yul\":8585:8656   */\n      tag_308\n        /* \"#utility.yul\":8653:8654   */\n      0x00\n        /* \"#utility.yul\":8642:8651   */\n      dup4\n        /* \"#utility.yul\":8638:8655   */\n      add\n        /* \"#utility.yul\":8629:8635   */\n      dup7\n        /* \"#utility.yul\":8585:8656   */\n      tag_193\n      jump\t// in\n    tag_308:\n        /* \"#utility.yul\":8666:8738   */\n      tag_309\n        /* \"#utility.yul\":8734:8736   */\n      0x20\n        /* \"#utility.yul\":8723:8732   */\n      dup4\n        /* \"#utility.yul\":8719:8737   */\n      add\n        /* \"#utility.yul\":8710:8716   */\n      dup6\n        /* \"#utility.yul\":8666:8738   */\n      tag_193\n      jump\t// in\n    tag_309:\n        /* \"#utility.yul\":8748:8820   */\n      tag_310\n        /* \"#utility.yul\":8816:8818   */\n      0x40\n        /* \"#utility.yul\":8805:8814   */\n      dup4\n        /* \"#utility.yul\":8801:8819   */\n      add\n        /* \"#utility.yul\":8792:8798   */\n      dup5\n        /* \"#utility.yul\":8748:8820   */\n      tag_195\n      jump\t// in\n    tag_310:\n        /* \"#utility.yul\":8385:8827   */\n      swap5\n      swap4\n      pop\n      pop\n      pop\n      pop\n      jump\t// out\n\n    auxdata: 0xa26469706673582212205dfd39eba890729886ffa7b5236477156510117319e02345d46f3bdb2f6724d964736f6c634300081e0033\n}\n",
				"bytecode": {
					"linkReferences": {},
					"object": "61012060405234801561001157600080fd5b50604051611bd5380380611bd583398181016040528101906100339190610289565b6001600081905550600073ffffffffffffffffffffffffffffffffffffffff168473ffffffffffffffffffffffffffffffffffffffff16036100aa576040517f08c379a00000000000000000000000000000000000000000000000000000000081526004016100a19061034d565b60405180910390fd5b600082116100ed576040517f08c379a00000000000000000000000000000000000000000000000000000000081526004016100e4906103b9565b60405180910390fd5b60008111610130576040517f08c379a000000000000000000000000000000000000000000000000000000000815260040161012790610425565b60405180910390fd5b8373ffffffffffffffffffffffffffffffffffffffff1660808173ffffffffffffffffffffffffffffffffffffffff16815250508260a081815250508160c0818152505080426101809190610474565b60e081815250503373ffffffffffffffffffffffffffffffffffffffff166101008173ffffffffffffffffffffffffffffffffffffffff16815250506000600160006101000a81548160ff021916908360028111156101e2576101e16104a8565b5b0217905550505050506104d7565b600080fd5b600073ffffffffffffffffffffffffffffffffffffffff82169050919050565b6000610220826101f5565b9050919050565b61023081610215565b811461023b57600080fd5b50565b60008151905061024d81610227565b92915050565b6000819050919050565b61026681610253565b811461027157600080fd5b50565b6000815190506102838161025d565b92915050565b600080600080608085870312156102a3576102a26101f0565b5b60006102b18782880161023e565b94505060206102c287828801610274565b93505060406102d387828801610274565b92505060606102e487828801610274565b91505092959194509250565b600082825260208201905092915050565b7f5345413a207a65726f204e465420616464726573730000000000000000000000600082015250565b60006103376015836102f0565b915061034282610301565b602082019050919050565b600060208201905081810360008301526103668161032a565b9050919050565b7f5345413a2073746172745072696365206d757374206265203e20300000000000600082015250565b60006103a3601b836102f0565b91506103ae8261036d565b602082019050919050565b600060208201905081810360008301526103d281610396565b9050919050565b7f5345413a2062696464696e67506572696f64206d757374206265203e20300000600082015250565b600061040f601e836102f0565b915061041a826103d9565b602082019050919050565b6000602082019050818103600083015261043e81610402565b9050919050565b7f4e487b7100000000000000000000000000000000000000000000000000000000600052601160045260246000fd5b600061047f82610253565b915061048a83610253565b92508282019050808211156104a2576104a1610445565b5b92915050565b7f4e487b7100000000000000000000000000000000000000000000000000000000600052602160045260246000fd5b60805160a05160c05160e0516101005161166d610568600039600081816103d901528181610b0f01528181610ff801526110f5015260008181610547015281816107a401528181610aad01528181610ade0152610e720152600081816105cc015281816107f701526111950152600081816103fd0152611117015260008181610a8101526110b9015261166d6000f3fe6080604052600436106100f75760003560e01c8063c19d93fb1161008a578063e3cfef6011610059578063e3cfef6014610353578063ea8a1af01461037e578063efbe1c1c14610395578063f1a9af89146103ac57610137565b8063c19d93fb146102a7578063d18e81b3146102d2578063d56d229d146102fd578063d57bde791461032857610137565b806391f90157116100c657806391f90157146101fd5780639a30ae2314610228578063b5545a3c14610253578063bc3da5351461026a57610137565b806308551a531461017257806317d70f7c1461019d5780631998aeef146101c85780633197cbb6146101d257610137565b36610137576040517f08c379a000000000000000000000000000000000000000000000000000000000815260040161012e90611214565b60405180910390fd5b6040517f08c379a000000000000000000000000000000000000000000000000000000000815260040161016990611214565b60405180910390fd5b34801561017e57600080fd5b506101876103d7565b6040516101949190611275565b60405180910390f35b3480156101a957600080fd5b506101b26103fb565b6040516101bf91906112a9565b60405180910390f35b6101d061041f565b005b3480156101de57600080fd5b506101e76107a2565b6040516101f491906112a9565b60405180910390f35b34801561020957600080fd5b506102126107c6565b60405161021f9190611275565b60405180910390f35b34801561023457600080fd5b5061023d6107ea565b60405161024a91906112a9565b60405180910390f35b34801561025f57600080fd5b5061026861083f565b005b34801561027657600080fd5b50610291600480360381019061028c91906112f5565b610a4c565b60405161029e91906112a9565b60405180910390f35b3480156102b357600080fd5b506102bc610a64565b6040516102c99190611399565b60405180910390f35b3480156102de57600080fd5b506102e7610a77565b6040516102f491906112a9565b60405180910390f35b34801561030957600080fd5b50610312610a7f565b60405161031f9190611413565b60405180910390f35b34801561033457600080fd5b5061033d610aa3565b60405161034a91906112a9565b60405180910390f35b34801561035f57600080fd5b50610368610aa9565b60405161037591906112a9565b60405180910390f35b34801561038a57600080fd5b50610393610b0d565b005b3480156103a157600080fd5b506103aa610d4a565b005b3480156103b857600080fd5b506103c1611193565b6040516103ce91906112a9565b60405180910390f35b7f000000000000000000000000000000000000000000000000000000000000000081565b7f000000000000000000000000000000000000000000000000000000000000000081565b600260005403610464576040517f08c379a000000000000000000000000000000000000000000000000000000000815260040161045b9061147a565b60405180910390fd5b6002600081905550600160028111156104805761047f611322565b5b600160009054906101000a900460ff1660028111156104a2576104a1611322565b5b036104d9576040517fd02e774d00000000000000000000000000000000000000000000000000000000815260040160405180910390fd5b6002808111156104ec576104eb611322565b5b600160009054906101000a900460ff16600281111561050e5761050d611322565b5b03610545576040517fca1642f900000000000000000000000000000000000000000000000000000000815260040160405180910390fd5b7f0000000000000000000000000000000000000000000000000000000000000000421061059e576040517fd02e774d00000000000000000000000000000000000000000000000000000000815260040160405180910390fd5b600080600254146105ca57600a6002546105b891906114f8565b6002546105c59190611529565b6105ec565b7f00000000000000000000000000000000000000000000000000000000000000005b9050803410156106355780346040517ff0defc6100000000000000000000000000000000000000000000000000000000815260040161062c92919061155d565b60405180910390fd5b600073ffffffffffffffffffffffffffffffffffffffff1660018054906101000a900473ffffffffffffffffffffffffffffffffffffffff1673ffffffffffffffffffffffffffffffffffffffff1614610702576002546003600060018054906101000a900473ffffffffffffffffffffffffffffffffffffffff1673ffffffffffffffffffffffffffffffffffffffff1673ffffffffffffffffffffffffffffffffffffffff16815260200190815260200160002060008282546106fa9190611529565b925050819055505b336001806101000a81548173ffffffffffffffffffffffffffffffffffffffff021916908373ffffffffffffffffffffffffffffffffffffffff160217905550346002819055503373ffffffffffffffffffffffffffffffffffffffff167fdd0b6c6a77960e2066c96171b4d7ac9e8b4c184011f38544afa36a5bb63ec59f3460405161078f91906112a9565b60405180910390a2506001600081905550565b7f000000000000000000000000000000000000000000000000000000000000000081565b60018054906101000a900473ffffffffffffffffffffffffffffffffffffffff1681565b6000806002540361081d577f0000000000000000000000000000000000000000000000000000000000000000905061083c565b600a60025461082c91906114f8565b6002546108399190611529565b90505b90565b600260005403610884576040517f08c379a000000000000000000000000000000000000000000000000000000000815260040161087b9061147a565b60405180910390fd5b60026000819055506000600360003373ffffffffffffffffffffffffffffffffffffffff1673ffffffffffffffffffffffffffffffffffffffff1681526020019081526020016000205490506000810361090a576040517ff76aef6500000000000000000000000000000000000000000000000000000000815260040160405180910390fd5b6000600360003373ffffffffffffffffffffffffffffffffffffffff1673ffffffffffffffffffffffffffffffffffffffff168152602001908152602001600020819055503373ffffffffffffffffffffffffffffffffffffffff167f358fe4192934d3bf28ae181feda1f4bd08ca67f5e2fad55582cce5eb67304ae98260405161099591906112a9565b60405180910390a260003373ffffffffffffffffffffffffffffffffffffffff16826040516109c3906115b7565b60006040518083038185875af1925050503d8060008114610a00576040519150601f19603f3d011682016040523d82523d6000602084013e610a05565b606091505b5050905080610a40576040517fb12d13eb00000000000000000000000000000000000000000000000000000000815260040160405180910390fd5b50506001600081905550565b60036020528060005260406000206000915090505481565b600160009054906101000a900460ff1681565b600042905090565b7f000000000000000000000000000000000000000000000000000000000000000081565b60025481565b60007f00000000000000000000000000000000000000000000000000000000000000004210610adb5760009050610b0a565b427f0000000000000000000000000000000000000000000000000000000000000000610b0791906115cc565b90505b90565b7f000000000000000000000000000000000000000000000000000000000000000073ffffffffffffffffffffffffffffffffffffffff163373ffffffffffffffffffffffffffffffffffffffff1614610b92576040517f5ec8235100000000000000000000000000000000000000000000000000000000815260040160405180910390fd5b60016002811115610ba657610ba5611322565b5b600160009054906101000a900460ff166002811115610bc857610bc7611322565b5b03610bff576040517fd02e774d00000000000000000000000000000000000000000000000000000000815260040160405180910390fd5b600280811115610c1257610c11611322565b5b600160009054906101000a900460ff166002811115610c3457610c33611322565b5b03610c6b576040517fca1642f900000000000000000000000000000000000000000000000000000000815260040160405180910390fd5b600073ffffffffffffffffffffffffffffffffffffffff1660018054906101000a900473ffffffffffffffffffffffffffffffffffffffff1673ffffffffffffffffffffffffffffffffffffffff1614610cf1576040517fca63af5d00000000000000000000000000000000000000000000000000000000815260040160405180910390fd5b6002600160006101000a81548160ff02191690836002811115610d1757610d16611322565b5b02179055507fda4a109962436eef7c88e0a2824c3574edefa23c5b11f29054f23d6663f2de5560405160405180910390a1565b600260005403610d8f576040517f08c379a0000000000000000000000000000000000000000000000000000000008152600401610d869061147a565b60405180910390fd5b600260008190555060016002811115610dab57610daa611322565b5b600160009054906101000a900460ff166002811115610dcd57610dcc611322565b5b03610e04576040517fd02e774d00000000000000000000000000000000000000000000000000000000815260040160405180910390fd5b600280811115610e1757610e16611322565b5b600160009054906101000a900460ff166002811115610e3957610e38611322565b5b03610e70576040517fca1642f900000000000000000000000000000000000000000000000000000000815260040160405180910390fd5b7f0000000000000000000000000000000000000000000000000000000000000000421015610eca576040517f6463738900000000000000000000000000000000000000000000000000000000815260040160405180910390fd5b600073ffffffffffffffffffffffffffffffffffffffff1660018054906101000a900473ffffffffffffffffffffffffffffffffffffffff1673ffffffffffffffffffffffffffffffffffffffff1603610f50576040517f7f14603400000000000000000000000000000000000000000000000000000000815260040160405180910390fd5b60018060006101000a81548160ff02191690836002811115610f7557610f74611322565b5b0217905550600060018054906101000a900473ffffffffffffffffffffffffffffffffffffffff169050600060025490508173ffffffffffffffffffffffffffffffffffffffff167fdaec4582d5d9595688c8c98545fdd1c696d41c6aeaeb636737e84ed2f5c00eda82604051610fec91906112a9565b60405180910390a260007f000000000000000000000000000000000000000000000000000000000000000073ffffffffffffffffffffffffffffffffffffffff168260405161103a906115b7565b60006040518083038185875af1925050503d8060008114611077576040519150601f19603f3d011682016040523d82523d6000602084013e61107c565b606091505b50509050806110b7576040517fb12d13eb00000000000000000000000000000000000000000000000000000000815260040160405180910390fd5b7f000000000000000000000000000000000000000000000000000000000000000073ffffffffffffffffffffffffffffffffffffffff166323b872dd7f0000000000000000000000000000000000000000000000000000000000000000857f00000000000000000000000000000000000000000000000000000000000000006040518463ffffffff1660e01b815260040161115493929190611600565b600060405180830381600087803b15801561116e57600080fd5b505af1158015611182573d6000803e3d6000fd5b505050505050506001600081905550565b7f000000000000000000000000000000000000000000000000000000000000000081565b600082825260208201905092915050565b7f5345413a20757365206269642829000000000000000000000000000000000000600082015250565b60006111fe600e836111b7565b9150611209826111c8565b602082019050919050565b6000602082019050818103600083015261122d816111f1565b9050919050565b600073ffffffffffffffffffffffffffffffffffffffff82169050919050565b600061125f82611234565b9050919050565b61126f81611254565b82525050565b600060208201905061128a6000830184611266565b92915050565b6000819050919050565b6112a381611290565b82525050565b60006020820190506112be600083018461129a565b92915050565b600080fd5b6112d281611254565b81146112dd57600080fd5b50565b6000813590506112ef816112c9565b92915050565b60006020828403121561130b5761130a6112c4565b5b6000611319848285016112e0565b91505092915050565b7f4e487b7100000000000000000000000000000000000000000000000000000000600052602160045260246000fd5b6003811061136257611361611322565b5b50565b600081905061137382611351565b919050565b600061138382611365565b9050919050565b61139381611378565b82525050565b60006020820190506113ae600083018461138a565b92915050565b6000819050919050565b60006113d96113d46113cf84611234565b6113b4565b611234565b9050919050565b60006113eb826113be565b9050919050565b60006113fd826113e0565b9050919050565b61140d816113f2565b82525050565b60006020820190506114286000830184611404565b92915050565b7f5265656e7472616e637947756172643a207265656e7472616e742063616c6c00600082015250565b6000611464601f836111b7565b915061146f8261142e565b602082019050919050565b6000602082019050818103600083015261149381611457565b9050919050565b7f4e487b7100000000000000000000000000000000000000000000000000000000600052601260045260246000fd5b7f4e487b7100000000000000000000000000000000000000000000000000000000600052601160045260246000fd5b600061150382611290565b915061150e83611290565b92508261151e5761151d61149a565b5b828204905092915050565b600061153482611290565b915061153f83611290565b9250828201905080821115611557576115566114c9565b5b92915050565b6000604082019050611572600083018561129a565b61157f602083018461129a565b9392505050565b600081905092915050565b50565b60006115a1600083611586565b91506115ac82611591565b600082019050919050565b60006115c282611594565b9150819050919050565b60006115d782611290565b91506115e283611290565b92508282039050818111156115fa576115f96114c9565b5b92915050565b60006060820190506116156000830186611266565b6116226020830185611266565b61162f604083018461129a565b94935050505056fea26469706673582212205dfd39eba890729886ffa7b5236477156510117319e02345d46f3bdb2f6724d964736f6c634300081e0033",
					"opcodes": "PUSH2 0x120 PUSH1 0x40 MSTORE CALLVALUE DUP1 ISZERO PUSH2 0x11 JUMPI PUSH1 0x0 DUP1 REVERT JUMPDEST POP PUSH1 0x40 MLOAD PUSH2 0x1BD5 CODESIZE SUB DUP1 PUSH2 0x1BD5 DUP4 CODECOPY DUP2 DUP2 ADD PUSH1 0x40 MSTORE DUP2 ADD SWAP1 PUSH2 0x33 SWAP2 SWAP1 PUSH2 0x289 JUMP JUMPDEST PUSH1 0x1 PUSH1 0x0 DUP2 SWAP1 SSTORE POP PUSH1 0x0 PUSH20 0xFFFFFFFFFFFFFFFFFFFFFFFFFFFFFFFFFFFFFFFF AND DUP5 PUSH20 0xFFFFFFFFFFFFFFFFFFFFFFFFFFFFFFFFFFFFFFFF AND SUB PUSH2 0xAA JUMPI PUSH1 0x40 MLOAD PUSH32 0x8C379A000000000000000000000000000000000000000000000000000000000 DUP2 MSTORE PUSH1 0x4 ADD PUSH2 0xA1 SWAP1 PUSH2 0x34D JUMP JUMPDEST PUSH1 0x40 MLOAD DUP1 SWAP2 SUB SWAP1 REVERT JUMPDEST PUSH1 0x0 DUP3 GT PUSH2 0xED JUMPI PUSH1 0x40 MLOAD PUSH32 0x8C379A000000000000000000000000000000000000000000000000000000000 DUP2 MSTORE PUSH1 0x4 ADD PUSH2 0xE4 SWAP1 PUSH2 0x3B9 JUMP JUMPDEST PUSH1 0x40 MLOAD DUP1 SWAP2 SUB SWAP1 REVERT JUMPDEST PUSH1 0x0 DUP2 GT PUSH2 0x130 JUMPI PUSH1 0x40 MLOAD PUSH32 0x8C379A000000000000000000000000000000000000000000000000000000000 DUP2 MSTORE PUSH1 0x4 ADD PUSH2 0x127 SWAP1 PUSH2 0x425 JUMP JUMPDEST PUSH1 0x40 MLOAD DUP1 SWAP2 SUB SWAP1 REVERT JUMPDEST DUP4 PUSH20 0xFFFFFFFFFFFFFFFFFFFFFFFFFFFFFFFFFFFFFFFF AND PUSH1 0x80 DUP2 PUSH20 0xFFFFFFFFFFFFFFFFFFFFFFFFFFFFFFFFFFFFFFFF AND DUP2 MSTORE POP POP DUP3 PUSH1 0xA0 DUP2 DUP2 MSTORE POP POP DUP2 PUSH1 0xC0 DUP2 DUP2 MSTORE POP POP DUP1 TIMESTAMP PUSH2 0x180 SWAP2 SWAP1 PUSH2 0x474 JUMP JUMPDEST PUSH1 0xE0 DUP2 DUP2 MSTORE POP POP CALLER PUSH20 0xFFFFFFFFFFFFFFFFFFFFFFFFFFFFFFFFFFFFFFFF AND PUSH2 0x100 DUP2 PUSH20 0xFFFFFFFFFFFFFFFFFFFFFFFFFFFFFFFFFFFFFFFF AND DUP2 MSTORE POP POP PUSH1 0x0 PUSH1 0x1 PUSH1 0x0 PUSH2 0x100 EXP DUP2 SLOAD DUP2 PUSH1 0xFF MUL NOT AND SWAP1 DUP4 PUSH1 0x2 DUP2 GT ISZERO PUSH2 0x1E2 JUMPI PUSH2 0x1E1 PUSH2 0x4A8 JUMP JUMPDEST JUMPDEST MUL OR SWAP1 SSTORE POP POP POP POP POP PUSH2 0x4D7 JUMP JUMPDEST PUSH1 0x0 DUP1 REVERT JUMPDEST PUSH1 0x0 PUSH20 0xFFFFFFFFFFFFFFFFFFFFFFFFFFFFFFFFFFFFFFFF DUP3 AND SWAP1 POP SWAP2 SWAP1 POP JUMP JUMPDEST PUSH1 0x0 PUSH2 0x220 DUP3 PUSH2 0x1F5 JUMP JUMPDEST SWAP1 POP SWAP2 SWAP1 POP JUMP JUMPDEST PUSH2 0x230 DUP2 PUSH2 0x215 JUMP JUMPDEST DUP2 EQ PUSH2 0x23B JUMPI PUSH1 0x0 DUP1 REVERT JUMPDEST POP JUMP JUMPDEST PUSH1 0x0 DUP2 MLOAD SWAP1 POP PUSH2 0x24D DUP2 PUSH2 0x227 JUMP JUMPDEST SWAP3 SWAP2 POP POP JUMP JUMPDEST PUSH1 0x0 DUP2 SWAP1 POP SWAP2 SWAP1 POP JUMP JUMPDEST PUSH2 0x266 DUP2 PUSH2 0x253 JUMP JUMPDEST DUP2 EQ PUSH2 0x271 JUMPI PUSH1 0x0 DUP1 REVERT JUMPDEST POP JUMP JUMPDEST PUSH1 0x0 DUP2 MLOAD SWAP1 POP PUSH2 0x283 DUP2 PUSH2 0x25D JUMP JUMPDEST SWAP3 SWAP2 POP POP JUMP JUMPDEST PUSH1 0x0 DUP1 PUSH1 0x0 DUP1 PUSH1 0x80 DUP6 DUP8 SUB SLT ISZERO PUSH2 0x2A3 JUMPI PUSH2 0x2A2 PUSH2 0x1F0 JUMP JUMPDEST JUMPDEST PUSH1 0x0 PUSH2 0x2B1 DUP8 DUP3 DUP9 ADD PUSH2 0x23E JUMP JUMPDEST SWAP5 POP POP PUSH1 0x20 PUSH2 0x2C2 DUP8 DUP3 DUP9 ADD PUSH2 0x274 JUMP JUMPDEST SWAP4 POP POP PUSH1 0x40 PUSH2 0x2D3 DUP8 DUP3 DUP9 ADD PUSH2 0x274 JUMP JUMPDEST SWAP3 POP POP PUSH1 0x60 PUSH2 0x2E4 DUP8 DUP3 DUP9 ADD PUSH2 0x274 JUMP JUMPDEST SWAP2 POP POP SWAP3 SWAP6 SWAP2 SWAP5 POP SWAP3 POP JUMP JUMPDEST PUSH1 0x0 DUP3 DUP3 MSTORE PUSH1 0x20 DUP3 ADD SWAP1 POP SWAP3 SWAP2 POP POP JUMP JUMPDEST PUSH32 0x5345413A207A65726F204E465420616464726573730000000000000000000000 PUSH1 0x0 DUP3 ADD MSTORE POP JUMP JUMPDEST PUSH1 0x0 PUSH2 0x337 PUSH1 0x15 DUP4 PUSH2 0x2F0 JUMP JUMPDEST SWAP2 POP PUSH2 0x342 DUP3 PUSH2 0x301 JUMP JUMPDEST PUSH1 0x20 DUP3 ADD SWAP1 POP SWAP2 SWAP1 POP JUMP JUMPDEST PUSH1 0x0 PUSH1 0x20 DUP3 ADD SWAP1 POP DUP2 DUP2 SUB PUSH1 0x0 DUP4 ADD MSTORE PUSH2 0x366 DUP2 PUSH2 0x32A JUMP JUMPDEST SWAP1 POP SWAP2 SWAP1 POP JUMP JUMPDEST PUSH32 0x5345413A2073746172745072696365206D757374206265203E20300000000000 PUSH1 0x0 DUP3 ADD MSTORE POP JUMP JUMPDEST PUSH1 0x0 PUSH2 0x3A3 PUSH1 0x1B DUP4 PUSH2 0x2F0 JUMP JUMPDEST SWAP2 POP PUSH2 0x3AE DUP3 PUSH2 0x36D JUMP JUMPDEST PUSH1 0x20 DUP3 ADD SWAP1 POP SWAP2 SWAP1 POP JUMP JUMPDEST PUSH1 0x0 PUSH1 0x20 DUP3 ADD SWAP1 POP DUP2 DUP2 SUB PUSH1 0x0 DUP4 ADD MSTORE PUSH2 0x3D2 DUP2 PUSH2 0x396 JUMP JUMPDEST SWAP1 POP SWAP2 SWAP1 POP JUMP JUMPDEST PUSH32 0x5345413A2062696464696E67506572696F64206D757374206265203E20300000 PUSH1 0x0 DUP3 ADD MSTORE POP JUMP JUMPDEST PUSH1 0x0 PUSH2 0x40F PUSH1 0x1E DUP4 PUSH2 0x2F0 JUMP JUMPDEST SWAP2 POP PUSH2 0x41A DUP3 PUSH2 0x3D9 JUMP JUMPDEST PUSH1 0x20 DUP3 ADD SWAP1 POP SWAP2 SWAP1 POP JUMP JUMPDEST PUSH1 0x0 PUSH1 0x20 DUP3 ADD SWAP1 POP DUP2 DUP2 SUB PUSH1 0x0 DUP4 ADD MSTORE PUSH2 0x43E DUP2 PUSH2 0x402 JUMP JUMPDEST SWAP1 POP SWAP2 SWAP1 POP JUMP JUMPDEST PUSH32 0x4E487B7100000000000000000000000000000000000000000000000000000000 PUSH1 0x0 MSTORE PUSH1 0x11 PUSH1 0x4 MSTORE PUSH1 0x24 PUSH1 0x0 REVERT JUMPDEST PUSH1 0x0 PUSH2 0x47F DUP3 PUSH2 0x253 JUMP JUMPDEST SWAP2 POP PUSH2 0x48A DUP4 PUSH2 0x253 JUMP JUMPDEST SWAP3 POP DUP3 DUP3 ADD SWAP1 POP DUP1 DUP3 GT ISZERO PUSH2 0x4A2 JUMPI PUSH2 0x4A1 PUSH2 0x445 JUMP JUMPDEST JUMPDEST SWAP3 SWAP2 POP POP JUMP JUMPDEST PUSH32 0x4E487B7100000000000000000000000000000000000000000000000000000000 PUSH1 0x0 MSTORE PUSH1 0x21 PUSH1 0x4 MSTORE PUSH1 0x24 PUSH1 0x0 REVERT JUMPDEST PUSH1 0x80 MLOAD PUSH1 0xA0 MLOAD PUSH1 0xC0 MLOAD PUSH1 0xE0 MLOAD PUSH2 0x100 MLOAD PUSH2 0x166D PUSH2 0x568 PUSH1 0x0 CODECOPY PUSH1 0x0 DUP2 DUP2 PUSH2 0x3D9 ADD MSTORE DUP2 DUP2 PUSH2 0xB0F ADD MSTORE DUP2 DUP2 PUSH2 0xFF8 ADD MSTORE PUSH2 0x10F5 ADD MSTORE PUSH1 0x0 DUP2 DUP2 PUSH2 0x547 ADD MSTORE DUP2 DUP2 PUSH2 0x7A4 ADD MSTORE DUP2 DUP2 PUSH2 0xAAD ADD MSTORE DUP2 DUP2 PUSH2 0xADE ADD MSTORE PUSH2 0xE72 ADD MSTORE PUSH1 0x0 DUP2 DUP2 PUSH2 0x5CC ADD MSTORE DUP2 DUP2 PUSH2 0x7F7 ADD MSTORE PUSH2 0x1195 ADD MSTORE PUSH1 0x0 DUP2 DUP2 PUSH2 0x3FD ADD MSTORE PUSH2 0x1117 ADD MSTORE PUSH1 0x0 DUP2 DUP2 PUSH2 0xA81 ADD MSTORE PUSH2 0x10B9 ADD MSTORE PUSH2 0x166D PUSH1 0x0 RETURN INVALID PUSH1 0x80 PUSH1 0x40 MSTORE PUSH1 0x4 CALLDATASIZE LT PUSH2 0xF7 JUMPI PUSH1 0x0 CALLDATALOAD PUSH1 0xE0 SHR DUP1 PUSH4 0xC19D93FB GT PUSH2 0x8A JUMPI DUP1 PUSH4 0xE3CFEF60 GT PUSH2 0x59 JUMPI DUP1 PUSH4 0xE3CFEF60 EQ PUSH2 0x353 JUMPI DUP1 PUSH4 0xEA8A1AF0 EQ PUSH2 0x37E JUMPI DUP1 PUSH4 0xEFBE1C1C EQ PUSH2 0x395 JUMPI DUP1 PUSH4 0xF1A9AF89 EQ PUSH2 0x3AC JUMPI PUSH2 0x137 JUMP JUMPDEST DUP1 PUSH4 0xC19D93FB EQ PUSH2 0x2A7 JUMPI DUP1 PUSH4 0xD18E81B3 EQ PUSH2 0x2D2 JUMPI DUP1 PUSH4 0xD56D229D EQ PUSH2 0x2FD JUMPI DUP1 PUSH4 0xD57BDE79 EQ PUSH2 0x328 JUMPI PUSH2 0x137 JUMP JUMPDEST DUP1 PUSH4 0x91F90157 GT PUSH2 0xC6 JUMPI DUP1 PUSH4 0x91F90157 EQ PUSH2 0x1FD JUMPI DUP1 PUSH4 0x9A30AE23 EQ PUSH2 0x228 JUMPI DUP1 PUSH4 0xB5545A3C EQ PUSH2 0x253 JUMPI DUP1 PUSH4 0xBC3DA535 EQ PUSH2 0x26A JUMPI PUSH2 0x137 JUMP JUMPDEST DUP1 PUSH4 0x8551A53 EQ PUSH2 0x172 JUMPI DUP1 PUSH4 0x17D70F7C EQ PUSH2 0x19D JUMPI DUP1 PUSH4 0x1998AEEF EQ PUSH2 0x1C8 JUMPI DUP1 PUSH4 0x3197CBB6 EQ PUSH2 0x1D2 JUMPI PUSH2 0x137 JUMP JUMPDEST CALLDATASIZE PUSH2 0x137 JUMPI PUSH1 0x40 MLOAD PUSH32 0x8C379A000000000000000000000000000000000000000000000000000000000 DUP2 MSTORE PUSH1 0x4 ADD PUSH2 0x12E SWAP1 PUSH2 0x1214 JUMP JUMPDEST PUSH1 0x40 MLOAD DUP1 SWAP2 SUB SWAP1 REVERT JUMPDEST PUSH1 0x40 MLOAD PUSH32 0x8C379A000000000000000000000000000000000000000000000000000000000 DUP2 MSTORE PUSH1 0x4 ADD PUSH2 0x169 SWAP1 PUSH2 0x1214 JUMP JUMPDEST PUSH1 0x40 MLOAD DUP1 SWAP2 SUB SWAP1 REVERT JUMPDEST CALLVALUE DUP1 ISZERO PUSH2 0x17E JUMPI PUSH1 0x0 DUP1 REVERT JUMPDEST POP PUSH2 0x187 PUSH2 0x3D7 JUMP JUMPDEST PUSH1 0x40 MLOAD PUSH2 0x194 SWAP2 SWAP1 PUSH2 0x1275 JUMP JUMPDEST PUSH1 0x40 MLOAD DUP1 SWAP2 SUB SWAP1 RETURN JUMPDEST CALLVALUE DUP1 ISZERO PUSH2 0x1A9 JUMPI PUSH1 0x0 DUP1 REVERT JUMPDEST POP PUSH2 0x1B2 PUSH2 0x3FB JUMP JUMPDEST PUSH1 0x40 MLOAD PUSH2 0x1BF SWAP2 SWAP1 PUSH2 0x12A9 JUMP JUMPDEST PUSH1 0x40 MLOAD DUP1 SWAP2 SUB SWAP1 RETURN JUMPDEST PUSH2 0x1D0 PUSH2 0x41F JUMP JUMPDEST STOP JUMPDEST CALLVALUE DUP1 ISZERO PUSH2 0x1DE JUMPI PUSH1 0x0 DUP1 REVERT JUMPDEST POP PUSH2 0x1E7 PUSH2 0x7A2 JUMP JUMPDEST PUSH1 0x40 MLOAD PUSH2 0x1F4 SWAP2 SWAP1 PUSH2 0x12A9 JUMP JUMPDEST PUSH1 0x40 MLOAD DUP1 SWAP2 SUB SWAP1 RETURN JUMPDEST CALLVALUE DUP1 ISZERO PUSH2 0x209 JUMPI PUSH1 0x0 DUP1 REVERT JUMPDEST POP PUSH2 0x212 PUSH2 0x7C6 JUMP JUMPDEST PUSH1 0x40 MLOAD PUSH2 0x21F SWAP2 SWAP1 PUSH2 0x1275 JUMP JUMPDEST PUSH1 0x40 MLOAD DUP1 SWAP2 SUB SWAP1 RETURN JUMPDEST CALLVALUE DUP1 ISZERO PUSH2 0x234 JUMPI PUSH1 0x0 DUP1 REVERT JUMPDEST POP PUSH2 0x23D PUSH2 0x7EA JUMP JUMPDEST PUSH1 0x40 MLOAD PUSH2 0x24A SWAP2 SWAP1 PUSH2 0x12A9 JUMP JUMPDEST PUSH1 0x40 MLOAD DUP1 SWAP2 SUB SWAP1 RETURN JUMPDEST CALLVALUE DUP1 ISZERO PUSH2 0x25F JUMPI PUSH1 0x0 DUP1 REVERT JUMPDEST POP PUSH2 0x268 PUSH2 0x83F JUMP JUMPDEST STOP JUMPDEST CALLVALUE DUP1 ISZERO PUSH2 0x276 JUMPI PUSH1 0x0 DUP1 REVERT JUMPDEST POP PUSH2 0x291 PUSH1 0x4 DUP1 CALLDATASIZE SUB DUP2 ADD SWAP1 PUSH2 0x28C SWAP2 SWAP1 PUSH2 0x12F5 JUMP JUMPDEST PUSH2 0xA4C JUMP JUMPDEST PUSH1 0x40 MLOAD PUSH2 0x29E SWAP2 SWAP1 PUSH2 0x12A9 JUMP JUMPDEST PUSH1 0x40 MLOAD DUP1 SWAP2 SUB SWAP1 RETURN JUMPDEST CALLVALUE DUP1 ISZERO PUSH2 0x2B3 JUMPI PUSH1 0x0 DUP1 REVERT JUMPDEST POP PUSH2 0x2BC PUSH2 0xA64 JUMP JUMPDEST PUSH1 0x40 MLOAD PUSH2 0x2C9 SWAP2 SWAP1 PUSH2 0x1399 JUMP JUMPDEST PUSH1 0x40 MLOAD DUP1 SWAP2 SUB SWAP1 RETURN JUMPDEST CALLVALUE DUP1 ISZERO PUSH2 0x2DE JUMPI PUSH1 0x0 DUP1 REVERT JUMPDEST POP PUSH2 0x2E7 PUSH2 0xA77 JUMP JUMPDEST PUSH1 0x40 MLOAD PUSH2 0x2F4 SWAP2 SWAP1 PUSH2 0x12A9 JUMP JUMPDEST PUSH1 0x40 MLOAD DUP1 SWAP2 SUB SWAP1 RETURN JUMPDEST CALLVALUE DUP1 ISZERO PUSH2 0x309 JUMPI PUSH1 0x0 DUP1 REVERT JUMPDEST POP PUSH2 0x312 PUSH2 0xA7F JUMP JUMPDEST PUSH1 0x40 MLOAD PUSH2 0x31F SWAP2 SWAP1 PUSH2 0x1413 JUMP JUMPDEST PUSH1 0x40 MLOAD DUP1 SWAP2 SUB SWAP1 RETURN JUMPDEST CALLVALUE DUP1 ISZERO PUSH2 0x334 JUMPI PUSH1 0x0 DUP1 REVERT JUMPDEST POP PUSH2 0x33D PUSH2 0xAA3 JUMP JUMPDEST PUSH1 0x40 MLOAD PUSH2 0x34A SWAP2 SWAP1 PUSH2 0x12A9 JUMP JUMPDEST PUSH1 0x40 MLOAD DUP1 SWAP2 SUB SWAP1 RETURN JUMPDEST CALLVALUE DUP1 ISZERO PUSH2 0x35F JUMPI PUSH1 0x0 DUP1 REVERT JUMPDEST POP PUSH2 0x368 PUSH2 0xAA9 JUMP JUMPDEST PUSH1 0x40 MLOAD PUSH2 0x375 SWAP2 SWAP1 PUSH2 0x12A9 JUMP JUMPDEST PUSH1 0x40 MLOAD DUP1 SWAP2 SUB SWAP1 RETURN JUMPDEST CALLVALUE DUP1 ISZERO PUSH2 0x38A JUMPI PUSH1 0x0 DUP1 REVERT JUMPDEST POP PUSH2 0x393 PUSH2 0xB0D JUMP JUMPDEST STOP JUMPDEST CALLVALUE DUP1 ISZERO PUSH2 0x3A1 JUMPI PUSH1 0x0 DUP1 REVERT JUMPDEST POP PUSH2 0x3AA PUSH2 0xD4A JUMP JUMPDEST STOP JUMPDEST CALLVALUE DUP1 ISZERO PUSH2 0x3B8 JUMPI PUSH1 0x0 DUP1 REVERT JUMPDEST POP PUSH2 0x3C1 PUSH2 0x1193 JUMP JUMPDEST PUSH1 0x40 MLOAD PUSH2 0x3CE SWAP2 SWAP1 PUSH2 0x12A9 JUMP JUMPDEST PUSH1 0x40 MLOAD DUP1 SWAP2 SUB SWAP1 RETURN JUMPDEST PUSH32 0x0 DUP2 JUMP JUMPDEST PUSH32 0x0 DUP2 JUMP JUMPDEST PUSH1 0x2 PUSH1 0x0 SLOAD SUB PUSH2 0x464 JUMPI PUSH1 0x40 MLOAD PUSH32 0x8C379A000000000000000000000000000000000000000000000000000000000 DUP2 MSTORE PUSH1 0x4 ADD PUSH2 0x45B SWAP1 PUSH2 0x147A JUMP JUMPDEST PUSH1 0x40 MLOAD DUP1 SWAP2 SUB SWAP1 REVERT JUMPDEST PUSH1 0x2 PUSH1 0x0 DUP2 SWAP1 SSTORE POP PUSH1 0x1 PUSH1 0x2 DUP2 GT ISZERO PUSH2 0x480 JUMPI PUSH2 0x47F PUSH2 0x1322 JUMP JUMPDEST JUMPDEST PUSH1 0x1 PUSH1 0x0 SWAP1 SLOAD SWAP1 PUSH2 0x100 EXP SWAP1 DIV PUSH1 0xFF AND PUSH1 0x2 DUP2 GT ISZERO PUSH2 0x4A2 JUMPI PUSH2 0x4A1 PUSH2 0x1322 JUMP JUMPDEST JUMPDEST SUB PUSH2 0x4D9 JUMPI PUSH1 0x40 MLOAD PUSH32 0xD02E774D00000000000000000000000000000000000000000000000000000000 DUP2 MSTORE PUSH1 0x4 ADD PUSH1 0x40 MLOAD DUP1 SWAP2 SUB SWAP1 REVERT JUMPDEST PUSH1 0x2 DUP1 DUP2 GT ISZERO PUSH2 0x4EC JUMPI PUSH2 0x4EB PUSH2 0x1322 JUMP JUMPDEST JUMPDEST PUSH1 0x1 PUSH1 0x0 SWAP1 SLOAD SWAP1 PUSH2 0x100 EXP SWAP1 DIV PUSH1 0xFF AND PUSH1 0x2 DUP2 GT ISZERO PUSH2 0x50E JUMPI PUSH2 0x50D PUSH2 0x1322 JUMP JUMPDEST JUMPDEST SUB PUSH2 0x545 JUMPI PUSH1 0x40 MLOAD PUSH32 0xCA1642F900000000000000000000000000000000000000000000000000000000 DUP2 MSTORE PUSH1 0x4 ADD PUSH1 0x40 MLOAD DUP1 SWAP2 SUB SWAP1 REVERT JUMPDEST PUSH32 0x0 TIMESTAMP LT PUSH2 0x59E JUMPI PUSH1 0x40 MLOAD PUSH32 0xD02E774D00000000000000000000000000000000000000000000000000000000 DUP2 MSTORE PUSH1 0x4 ADD PUSH1 0x40 MLOAD DUP1 SWAP2 SUB SWAP1 REVERT JUMPDEST PUSH1 0x0 DUP1 PUSH1 0x2 SLOAD EQ PUSH2 0x5CA JUMPI PUSH1 0xA PUSH1 0x2 SLOAD PUSH2 0x5B8 SWAP2 SWAP1 PUSH2 0x14F8 JUMP JUMPDEST PUSH1 0x2 SLOAD PUSH2 0x5C5 SWAP2 SWAP1 PUSH2 0x1529 JUMP JUMPDEST PUSH2 0x5EC JUMP JUMPDEST PUSH32 0x0 JUMPDEST SWAP1 POP DUP1 CALLVALUE LT ISZERO PUSH2 0x635 JUMPI DUP1 CALLVALUE PUSH1 0x40 MLOAD PUSH32 0xF0DEFC6100000000000000000000000000000000000000000000000000000000 DUP2 MSTORE PUSH1 0x4 ADD PUSH2 0x62C SWAP3 SWAP2 SWAP1 PUSH2 0x155D JUMP JUMPDEST PUSH1 0x40 MLOAD DUP1 SWAP2 SUB SWAP1 REVERT JUMPDEST PUSH1 0x0 PUSH20 0xFFFFFFFFFFFFFFFFFFFFFFFFFFFFFFFFFFFFFFFF AND PUSH1 0x1 DUP1 SLOAD SWAP1 PUSH2 0x100 EXP SWAP1 DIV PUSH20 0xFFFFFFFFFFFFFFFFFFFFFFFFFFFFFFFFFFFFFFFF AND PUSH20 0xFFFFFFFFFFFFFFFFFFFFFFFFFFFFFFFFFFFFFFFF AND EQ PUSH2 0x702 JUMPI PUSH1 0x2 SLOAD PUSH1 0x3 PUSH1 0x0 PUSH1 0x1 DUP1 SLOAD SWAP1 PUSH2 0x100 EXP SWAP1 DIV PUSH20 0xFFFFFFFFFFFFFFFFFFFFFFFFFFFFFFFFFFFFFFFF AND PUSH20 0xFFFFFFFFFFFFFFFFFFFFFFFFFFFFFFFFFFFFFFFF AND PUSH20 0xFFFFFFFFFFFFFFFFFFFFFFFFFFFFFFFFFFFFFFFF AND DUP2 MSTORE PUSH1 0x20 ADD SWAP1 DUP2 MSTORE PUSH1 0x20 ADD PUSH1 0x0 KECCAK256 PUSH1 0x0 DUP3 DUP3 SLOAD PUSH2 0x6FA SWAP2 SWAP1 PUSH2 0x1529 JUMP JUMPDEST SWAP3 POP POP DUP2 SWAP1 SSTORE POP JUMPDEST CALLER PUSH1 0x1 DUP1 PUSH2 0x100 EXP DUP2 SLOAD DUP2 PUSH20 0xFFFFFFFFFFFFFFFFFFFFFFFFFFFFFFFFFFFFFFFF MUL NOT AND SWAP1 DUP4 PUSH20 0xFFFFFFFFFFFFFFFFFFFFFFFFFFFFFFFFFFFFFFFF AND MUL OR SWAP1 SSTORE POP CALLVALUE PUSH1 0x2 DUP2 SWAP1 SSTORE POP CALLER PUSH20 0xFFFFFFFFFFFFFFFFFFFFFFFFFFFFFFFFFFFFFFFF AND PUSH32 0xDD0B6C6A77960E2066C96171B4D7AC9E8B4C184011F38544AFA36A5BB63EC59F CALLVALUE PUSH1 0x40 MLOAD PUSH2 0x78F SWAP2 SWAP1 PUSH2 0x12A9 JUMP JUMPDEST PUSH1 0x40 MLOAD DUP1 SWAP2 SUB SWAP1 LOG2 POP PUSH1 0x1 PUSH1 0x0 DUP2 SWAP1 SSTORE POP JUMP JUMPDEST PUSH32 0x0 DUP2 JUMP JUMPDEST PUSH1 0x1 DUP1 SLOAD SWAP1 PUSH2 0x100 EXP SWAP1 DIV PUSH20 0xFFFFFFFFFFFFFFFFFFFFFFFFFFFFFFFFFFFFFFFF AND DUP2 JUMP JUMPDEST PUSH1 0x0 DUP1 PUSH1 0x2 SLOAD SUB PUSH2 0x81D JUMPI PUSH32 0x0 SWAP1 POP PUSH2 0x83C JUMP JUMPDEST PUSH1 0xA PUSH1 0x2 SLOAD PUSH2 0x82C SWAP2 SWAP1 PUSH2 0x14F8 JUMP JUMPDEST PUSH1 0x2 SLOAD PUSH2 0x839 SWAP2 SWAP1 PUSH2 0x1529 JUMP JUMPDEST SWAP1 POP JUMPDEST SWAP1 JUMP JUMPDEST PUSH1 0x2 PUSH1 0x0 SLOAD SUB PUSH2 0x884 JUMPI PUSH1 0x40 MLOAD PUSH32 0x8C379A000000000000000000000000000000000000000000000000000000000 DUP2 MSTORE PUSH1 0x4 ADD PUSH2 0x87B SWAP1 PUSH2 0x147A JUMP JUMPDEST PUSH1 0x40 MLOAD DUP1 SWAP2 SUB SWAP1 REVERT JUMPDEST PUSH1 0x2 PUSH1 0x0 DUP2 SWAP1 SSTORE POP PUSH1 0x0 PUSH1 0x3 PUSH1 0x0 CALLER PUSH20 0xFFFFFFFFFFFFFFFFFFFFFFFFFFFFFFFFFFFFFFFF AND PUSH20 0xFFFFFFFFFFFFFFFFFFFFFFFFFFFFFFFFFFFFFFFF AND DUP2 MSTORE PUSH1 0x20 ADD SWAP1 DUP2 MSTORE PUSH1 0x20 ADD PUSH1 0x0 KECCAK256 SLOAD SWAP1 POP PUSH1 0x0 DUP2 SUB PUSH2 0x90A JUMPI PUSH1 0x40 MLOAD PUSH32 0xF76AEF6500000000000000000000000000000000000000000000000000000000 DUP2 MSTORE PUSH1 0x4 ADD PUSH1 0x40 MLOAD DUP1 SWAP2 SUB SWAP1 REVERT JUMPDEST PUSH1 0x0 PUSH1 0x3 PUSH1 0x0 CALLER PUSH20 0xFFFFFFFFFFFFFFFFFFFFFFFFFFFFFFFFFFFFFFFF AND PUSH20 0xFFFFFFFFFFFFFFFFFFFFFFFFFFFFFFFFFFFFFFFF AND DUP2 MSTORE PUSH1 0x20 ADD SWAP1 DUP2 MSTORE PUSH1 0x20 ADD PUSH1 0x0 KECCAK256 DUP2 SWAP1 SSTORE POP CALLER PUSH20 0xFFFFFFFFFFFFFFFFFFFFFFFFFFFFFFFFFFFFFFFF AND PUSH32 0x358FE4192934D3BF28AE181FEDA1F4BD08CA67F5E2FAD55582CCE5EB67304AE9 DUP3 PUSH1 0x40 MLOAD PUSH2 0x995 SWAP2 SWAP1 PUSH2 0x12A9 JUMP JUMPDEST PUSH1 0x40 MLOAD DUP1 SWAP2 SUB SWAP1 LOG2 PUSH1 0x0 CALLER PUSH20 0xFFFFFFFFFFFFFFFFFFFFFFFFFFFFFFFFFFFFFFFF AND DUP3 PUSH1 0x40 MLOAD PUSH2 0x9C3 SWAP1 PUSH2 0x15B7 JUMP JUMPDEST PUSH1 0x0 PUSH1 0x40 MLOAD DUP1 DUP4 SUB DUP2 DUP6 DUP8 GAS CALL SWAP3 POP POP POP RETURNDATASIZE DUP1 PUSH1 0x0 DUP2 EQ PUSH2 0xA00 JUMPI PUSH1 0x40 MLOAD SWAP2 POP PUSH1 0x1F NOT PUSH1 0x3F RETURNDATASIZE ADD AND DUP3 ADD PUSH1 0x40 MSTORE RETURNDATASIZE DUP3 MSTORE RETURNDATASIZE PUSH1 0x0 PUSH1 0x20 DUP5 ADD RETURNDATACOPY PUSH2 0xA05 JUMP JUMPDEST PUSH1 0x60 SWAP2 POP JUMPDEST POP POP SWAP1 POP DUP1 PUSH2 0xA40 JUMPI PUSH1 0x40 MLOAD PUSH32 0xB12D13EB00000000000000000000000000000000000000000000000000000000 DUP2 MSTORE PUSH1 0x4 ADD PUSH1 0x40 MLOAD DUP1 SWAP2 SUB SWAP1 REVERT JUMPDEST POP POP PUSH1 0x1 PUSH1 0x0 DUP2 SWAP1 SSTORE POP JUMP JUMPDEST PUSH1 0x3 PUSH1 0x20 MSTORE DUP1 PUSH1 0x0 MSTORE PUSH1 0x40 PUSH1 0x0 KECCAK256 PUSH1 0x0 SWAP2 POP SWAP1 POP SLOAD DUP2 JUMP JUMPDEST PUSH1 0x1 PUSH1 0x0 SWAP1 SLOAD SWAP1 PUSH2 0x100 EXP SWAP1 DIV PUSH1 0xFF AND DUP2 JUMP JUMPDEST PUSH1 0x0 TIMESTAMP SWAP1 POP SWAP1 JUMP JUMPDEST PUSH32 0x0 DUP2 JUMP JUMPDEST PUSH1 0x2 SLOAD DUP2 JUMP JUMPDEST PUSH1 0x0 PUSH32 0x0 TIMESTAMP LT PUSH2 0xADB JUMPI PUSH1 0x0 SWAP1 POP PUSH2 0xB0A JUMP JUMPDEST TIMESTAMP PUSH32 0x0 PUSH2 0xB07 SWAP2 SWAP1 PUSH2 0x15CC JUMP JUMPDEST SWAP1 POP JUMPDEST SWAP1 JUMP JUMPDEST PUSH32 0x0 PUSH20 0xFFFFFFFFFFFFFFFFFFFFFFFFFFFFFFFFFFFFFFFF AND CALLER PUSH20 0xFFFFFFFFFFFFFFFFFFFFFFFFFFFFFFFFFFFFFFFF AND EQ PUSH2 0xB92 JUMPI PUSH1 0x40 MLOAD PUSH32 0x5EC8235100000000000000000000000000000000000000000000000000000000 DUP2 MSTORE PUSH1 0x4 ADD PUSH1 0x40 MLOAD DUP1 SWAP2 SUB SWAP1 REVERT JUMPDEST PUSH1 0x1 PUSH1 0x2 DUP2 GT ISZERO PUSH2 0xBA6 JUMPI PUSH2 0xBA5 PUSH2 0x1322 JUMP JUMPDEST JUMPDEST PUSH1 0x1 PUSH1 0x0 SWAP1 SLOAD SWAP1 PUSH2 0x100 EXP SWAP1 DIV PUSH1 0xFF AND PUSH1 0x2 DUP2 GT ISZERO PUSH2 0xBC8 JUMPI PUSH2 0xBC7 PUSH2 0x1322 JUMP JUMPDEST JUMPDEST SUB PUSH2 0xBFF JUMPI PUSH1 0x40 MLOAD PUSH32 0xD02E774D00000000000000000000000000000000000000000000000000000000 DUP2 MSTORE PUSH1 0x4 ADD PUSH1 0x40 MLOAD DUP1 SWAP2 SUB SWAP1 REVERT JUMPDEST PUSH1 0x2 DUP1 DUP2 GT ISZERO PUSH2 0xC12 JUMPI PUSH2 0xC11 PUSH2 0x1322 JUMP JUMPDEST JUMPDEST PUSH1 0x1 PUSH1 0x0 SWAP1 SLOAD SWAP1 PUSH2 0x100 EXP SWAP1 DIV PUSH1 0xFF AND PUSH1 0x2 DUP2 GT ISZERO PUSH2 0xC34 JUMPI PUSH2 0xC33 PUSH2 0x1322 JUMP JUMPDEST JUMPDEST SUB PUSH2 0xC6B JUMPI PUSH1 0x40 MLOAD PUSH32 0xCA1642F900000000000000000000000000000000000000000000000000000000 DUP2 MSTORE PUSH1 0x4 ADD PUSH1 0x40 MLOAD DUP1 SWAP2 SUB SWAP1 REVERT JUMPDEST PUSH1 0x0 PUSH20 0xFFFFFFFFFFFFFFFFFFFFFFFFFFFFFFFFFFFFFFFF AND PUSH1 0x1 DUP1 SLOAD SWAP1 PUSH2 0x100 EXP SWAP1 DIV PUSH20 0xFFFFFFFFFFFFFFFFFFFFFFFFFFFFFFFFFFFFFFFF AND PUSH20 0xFFFFFFFFFFFFFFFFFFFFFFFFFFFFFFFFFFFFFFFF AND EQ PUSH2 0xCF1 JUMPI PUSH1 0x40 MLOAD PUSH32 0xCA63AF5D00000000000000000000000000000000000000000000000000000000 DUP2 MSTORE PUSH1 0x4 ADD PUSH1 0x40 MLOAD DUP1 SWAP2 SUB SWAP1 REVERT JUMPDEST PUSH1 0x2 PUSH1 0x1 PUSH1 0x0 PUSH2 0x100 EXP DUP2 SLOAD DUP2 PUSH1 0xFF MUL NOT AND SWAP1 DUP4 PUSH1 0x2 DUP2 GT ISZERO PUSH2 0xD17 JUMPI PUSH2 0xD16 PUSH2 0x1322 JUMP JUMPDEST JUMPDEST MUL OR SWAP1 SSTORE POP PUSH32 0xDA4A109962436EEF7C88E0A2824C3574EDEFA23C5B11F29054F23D6663F2DE55 PUSH1 0x40 MLOAD PUSH1 0x40 MLOAD DUP1 SWAP2 SUB SWAP1 LOG1 JUMP JUMPDEST PUSH1 0x2 PUSH1 0x0 SLOAD SUB PUSH2 0xD8F JUMPI PUSH1 0x40 MLOAD PUSH32 0x8C379A000000000000000000000000000000000000000000000000000000000 DUP2 MSTORE PUSH1 0x4 ADD PUSH2 0xD86 SWAP1 PUSH2 0x147A JUMP JUMPDEST PUSH1 0x40 MLOAD DUP1 SWAP2 SUB SWAP1 REVERT JUMPDEST PUSH1 0x2 PUSH1 0x0 DUP2 SWAP1 SSTORE POP PUSH1 0x1 PUSH1 0x2 DUP2 GT ISZERO PUSH2 0xDAB JUMPI PUSH2 0xDAA PUSH2 0x1322 JUMP JUMPDEST JUMPDEST PUSH1 0x1 PUSH1 0x0 SWAP1 SLOAD SWAP1 PUSH2 0x100 EXP SWAP1 DIV PUSH1 0xFF AND PUSH1 0x2 DUP2 GT ISZERO PUSH2 0xDCD JUMPI PUSH2 0xDCC PUSH2 0x1322 JUMP JUMPDEST JUMPDEST SUB PUSH2 0xE04 JUMPI PUSH1 0x40 MLOAD PUSH32 0xD02E774D00000000000000000000000000000000000000000000000000000000 DUP2 MSTORE PUSH1 0x4 ADD PUSH1 0x40 MLOAD DUP1 SWAP2 SUB SWAP1 REVERT JUMPDEST PUSH1 0x2 DUP1 DUP2 GT ISZERO PUSH2 0xE17 JUMPI PUSH2 0xE16 PUSH2 0x1322 JUMP JUMPDEST JUMPDEST PUSH1 0x1 PUSH1 0x0 SWAP1 SLOAD SWAP1 PUSH2 0x100 EXP SWAP1 DIV PUSH1 0xFF AND PUSH1 0x2 DUP2 GT ISZERO PUSH2 0xE39 JUMPI PUSH2 0xE38 PUSH2 0x1322 JUMP JUMPDEST JUMPDEST SUB PUSH2 0xE70 JUMPI PUSH1 0x40 MLOAD PUSH32 0xCA1642F900000000000000000000000000000000000000000000000000000000 DUP2 MSTORE PUSH1 0x4 ADD PUSH1 0x40 MLOAD DUP1 SWAP2 SUB SWAP1 REVERT JUMPDEST PUSH32 0x0 TIMESTAMP LT ISZERO PUSH2 0xECA JUMPI PUSH1 0x40 MLOAD PUSH32 0x6463738900000000000000000000000000000000000000000000000000000000 DUP2 MSTORE PUSH1 0x4 ADD PUSH1 0x40 MLOAD DUP1 SWAP2 SUB SWAP1 REVERT JUMPDEST PUSH1 0x0 PUSH20 0xFFFFFFFFFFFFFFFFFFFFFFFFFFFFFFFFFFFFFFFF AND PUSH1 0x1 DUP1 SLOAD SWAP1 PUSH2 0x100 EXP SWAP1 DIV PUSH20 0xFFFFFFFFFFFFFFFFFFFFFFFFFFFFFFFFFFFFFFFF AND PUSH20 0xFFFFFFFFFFFFFFFFFFFFFFFFFFFFFFFFFFFFFFFF AND SUB PUSH2 0xF50 JUMPI PUSH1 0x40 MLOAD PUSH32 0x7F14603400000000000000000000000000000000000000000000000000000000 DUP2 MSTORE PUSH1 0x4 ADD PUSH1 0x40 MLOAD DUP1 SWAP2 SUB SWAP1 REVERT JUMPDEST PUSH1 0x1 DUP1 PUSH1 0x0 PUSH2 0x100 EXP DUP2 SLOAD DUP2 PUSH1 0xFF MUL NOT AND SWAP1 DUP4 PUSH1 0x2 DUP2 GT ISZERO PUSH2 0xF75 JUMPI PUSH2 0xF74 PUSH2 0x1322 JUMP JUMPDEST JUMPDEST MUL OR SWAP1 SSTORE POP PUSH1 0x0 PUSH1 0x1 DUP1 SLOAD SWAP1 PUSH2 0x100 EXP SWAP1 DIV PUSH20 0xFFFFFFFFFFFFFFFFFFFFFFFFFFFFFFFFFFFFFFFF AND SWAP1 POP PUSH1 0x0 PUSH1 0x2 SLOAD SWAP1 POP DUP2 PUSH20 0xFFFFFFFFFFFFFFFFFFFFFFFFFFFFFFFFFFFFFFFF AND PUSH32 0xDAEC4582D5D9595688C8C98545FDD1C696D41C6AEAEB636737E84ED2F5C00EDA DUP3 PUSH1 0x40 MLOAD PUSH2 0xFEC SWAP2 SWAP1 PUSH2 0x12A9 JUMP JUMPDEST PUSH1 0x40 MLOAD DUP1 SWAP2 SUB SWAP1 LOG2 PUSH1 0x0 PUSH32 0x0 PUSH20 0xFFFFFFFFFFFFFFFFFFFFFFFFFFFFFFFFFFFFFFFF AND DUP3 PUSH1 0x40 MLOAD PUSH2 0x103A SWAP1 PUSH2 0x15B7 JUMP JUMPDEST PUSH1 0x0 PUSH1 0x40 MLOAD DUP1 DUP4 SUB DUP2 DUP6 DUP8 GAS CALL SWAP3 POP POP POP RETURNDATASIZE DUP1 PUSH1 0x0 DUP2 EQ PUSH2 0x1077 JUMPI PUSH1 0x40 MLOAD SWAP2 POP PUSH1 0x1F NOT PUSH1 0x3F RETURNDATASIZE ADD AND DUP3 ADD PUSH1 0x40 MSTORE RETURNDATASIZE DUP3 MSTORE RETURNDATASIZE PUSH1 0x0 PUSH1 0x20 DUP5 ADD RETURNDATACOPY PUSH2 0x107C JUMP JUMPDEST PUSH1 0x60 SWAP2 POP JUMPDEST POP POP SWAP1 POP DUP1 PUSH2 0x10B7 JUMPI PUSH1 0x40 MLOAD PUSH32 0xB12D13EB00000000000000000000000000000000000000000000000000000000 DUP2 MSTORE PUSH1 0x4 ADD PUSH1 0x40 MLOAD DUP1 SWAP2 SUB SWAP1 REVERT JUMPDEST PUSH32 0x0 PUSH20 0xFFFFFFFFFFFFFFFFFFFFFFFFFFFFFFFFFFFFFFFF AND PUSH4 0x23B872DD PUSH32 0x0 DUP6 PUSH32 0x0 PUSH1 0x40 MLOAD DUP5 PUSH4 0xFFFFFFFF AND PUSH1 0xE0 SHL DUP2 MSTORE PUSH1 0x4 ADD PUSH2 0x1154 SWAP4 SWAP3 SWAP2 SWAP1 PUSH2 0x1600 JUMP JUMPDEST PUSH1 0x0 PUSH1 0x40 MLOAD DUP1 DUP4 SUB DUP2 PUSH1 0x0 DUP8 DUP1 EXTCODESIZE ISZERO DUP1 ISZERO PUSH2 0x116E JUMPI PUSH1 0x0 DUP1 REVERT JUMPDEST POP GAS CALL ISZERO DUP1 ISZERO PUSH2 0x1182 JUMPI RETURNDATASIZE PUSH1 0x0 DUP1 RETURNDATACOPY RETURNDATASIZE PUSH1 0x0 REVERT JUMPDEST POP POP POP POP POP POP POP PUSH1 0x1 PUSH1 0x0 DUP2 SWAP1 SSTORE POP JUMP JUMPDEST PUSH32 0x0 DUP2 JUMP JUMPDEST PUSH1 0x0 DUP3 DUP3 MSTORE PUSH1 0x20 DUP3 ADD SWAP1 POP SWAP3 SWAP2 POP POP JUMP JUMPDEST PUSH32 0x5345413A20757365206269642829000000000000000000000000000000000000 PUSH1 0x0 DUP3 ADD MSTORE POP JUMP JUMPDEST PUSH1 0x0 PUSH2 0x11FE PUSH1 0xE DUP4 PUSH2 0x11B7 JUMP JUMPDEST SWAP2 POP PUSH2 0x1209 DUP3 PUSH2 0x11C8 JUMP JUMPDEST PUSH1 0x20 DUP3 ADD SWAP1 POP SWAP2 SWAP1 POP JUMP JUMPDEST PUSH1 0x0 PUSH1 0x20 DUP3 ADD SWAP1 POP DUP2 DUP2 SUB PUSH1 0x0 DUP4 ADD MSTORE PUSH2 0x122D DUP2 PUSH2 0x11F1 JUMP JUMPDEST SWAP1 POP SWAP2 SWAP1 POP JUMP JUMPDEST PUSH1 0x0 PUSH20 0xFFFFFFFFFFFFFFFFFFFFFFFFFFFFFFFFFFFFFFFF DUP3 AND SWAP1 POP SWAP2 SWAP1 POP JUMP JUMPDEST PUSH1 0x0 PUSH2 0x125F DUP3 PUSH2 0x1234 JUMP JUMPDEST SWAP1 POP SWAP2 SWAP1 POP JUMP JUMPDEST PUSH2 0x126F DUP2 PUSH2 0x1254 JUMP JUMPDEST DUP3 MSTORE POP POP JUMP JUMPDEST PUSH1 0x0 PUSH1 0x20 DUP3 ADD SWAP1 POP PUSH2 0x128A PUSH1 0x0 DUP4 ADD DUP5 PUSH2 0x1266 JUMP JUMPDEST SWAP3 SWAP2 POP POP JUMP JUMPDEST PUSH1 0x0 DUP2 SWAP1 POP SWAP2 SWAP1 POP JUMP JUMPDEST PUSH2 0x12A3 DUP2 PUSH2 0x1290 JUMP JUMPDEST DUP3 MSTORE POP POP JUMP JUMPDEST PUSH1 0x0 PUSH1 0x20 DUP3 ADD SWAP1 POP PUSH2 0x12BE PUSH1 0x0 DUP4 ADD DUP5 PUSH2 0x129A JUMP JUMPDEST SWAP3 SWAP2 POP POP JUMP JUMPDEST PUSH1 0x0 DUP1 REVERT JUMPDEST PUSH2 0x12D2 DUP2 PUSH2 0x1254 JUMP JUMPDEST DUP2 EQ PUSH2 0x12DD JUMPI PUSH1 0x0 DUP1 REVERT JUMPDEST POP JUMP JUMPDEST PUSH1 0x0 DUP2 CALLDATALOAD SWAP1 POP PUSH2 0x12EF DUP2 PUSH2 0x12C9 JUMP JUMPDEST SWAP3 SWAP2 POP POP JUMP JUMPDEST PUSH1 0x0 PUSH1 0x20 DUP3 DUP5 SUB SLT ISZERO PUSH2 0x130B JUMPI PUSH2 0x130A PUSH2 0x12C4 JUMP JUMPDEST JUMPDEST PUSH1 0x0 PUSH2 0x1319 DUP5 DUP3 DUP6 ADD PUSH2 0x12E0 JUMP JUMPDEST SWAP2 POP POP SWAP3 SWAP2 POP POP JUMP JUMPDEST PUSH32 0x4E487B7100000000000000000000000000000000000000000000000000000000 PUSH1 0x0 MSTORE PUSH1 0x21 PUSH1 0x4 MSTORE PUSH1 0x24 PUSH1 0x0 REVERT JUMPDEST PUSH1 0x3 DUP2 LT PUSH2 0x1362 JUMPI PUSH2 0x1361 PUSH2 0x1322 JUMP JUMPDEST JUMPDEST POP JUMP JUMPDEST PUSH1 0x0 DUP2 SWAP1 POP PUSH2 0x1373 DUP3 PUSH2 0x1351 JUMP JUMPDEST SWAP2 SWAP1 POP JUMP JUMPDEST PUSH1 0x0 PUSH2 0x1383 DUP3 PUSH2 0x1365 JUMP JUMPDEST SWAP1 POP SWAP2 SWAP1 POP JUMP JUMPDEST PUSH2 0x1393 DUP2 PUSH2 0x1378 JUMP JUMPDEST DUP3 MSTORE POP POP JUMP JUMPDEST PUSH1 0x0 PUSH1 0x20 DUP3 ADD SWAP1 POP PUSH2 0x13AE PUSH1 0x0 DUP4 ADD DUP5 PUSH2 0x138A JUMP JUMPDEST SWAP3 SWAP2 POP POP JUMP JUMPDEST PUSH1 0x0 DUP2 SWAP1 POP SWAP2 SWAP1 POP JUMP JUMPDEST PUSH1 0x0 PUSH2 0x13D9 PUSH2 0x13D4 PUSH2 0x13CF DUP5 PUSH2 0x1234 JUMP JUMPDEST PUSH2 0x13B4 JUMP JUMPDEST PUSH2 0x1234 JUMP JUMPDEST SWAP1 POP SWAP2 SWAP1 POP JUMP JUMPDEST PUSH1 0x0 PUSH2 0x13EB DUP3 PUSH2 0x13BE JUMP JUMPDEST SWAP1 POP SWAP2 SWAP1 POP JUMP JUMPDEST PUSH1 0x0 PUSH2 0x13FD DUP3 PUSH2 0x13E0 JUMP JUMPDEST SWAP1 POP SWAP2 SWAP1 POP JUMP JUMPDEST PUSH2 0x140D DUP2 PUSH2 0x13F2 JUMP JUMPDEST DUP3 MSTORE POP POP JUMP JUMPDEST PUSH1 0x0 PUSH1 0x20 DUP3 ADD SWAP1 POP PUSH2 0x1428 PUSH1 0x0 DUP4 ADD DUP5 PUSH2 0x1404 JUMP JUMPDEST SWAP3 SWAP2 POP POP JUMP JUMPDEST PUSH32 0x5265656E7472616E637947756172643A207265656E7472616E742063616C6C00 PUSH1 0x0 DUP3 ADD MSTORE POP JUMP JUMPDEST PUSH1 0x0 PUSH2 0x1464 PUSH1 0x1F DUP4 PUSH2 0x11B7 JUMP JUMPDEST SWAP2 POP PUSH2 0x146F DUP3 PUSH2 0x142E JUMP JUMPDEST PUSH1 0x20 DUP3 ADD SWAP1 POP SWAP2 SWAP1 POP JUMP JUMPDEST PUSH1 0x0 PUSH1 0x20 DUP3 ADD SWAP1 POP DUP2 DUP2 SUB PUSH1 0x0 DUP4 ADD MSTORE PUSH2 0x1493 DUP2 PUSH2 0x1457 JUMP JUMPDEST SWAP1 POP SWAP2 SWAP1 POP JUMP JUMPDEST PUSH32 0x4E487B7100000000000000000000000000000000000000000000000000000000 PUSH1 0x0 MSTORE PUSH1 0x12 PUSH1 0x4 MSTORE PUSH1 0x24 PUSH1 0x0 REVERT JUMPDEST PUSH32 0x4E487B7100000000000000000000000000000000000000000000000000000000 PUSH1 0x0 MSTORE PUSH1 0x11 PUSH1 0x4 MSTORE PUSH1 0x24 PUSH1 0x0 REVERT JUMPDEST PUSH1 0x0 PUSH2 0x1503 DUP3 PUSH2 0x1290 JUMP JUMPDEST SWAP2 POP PUSH2 0x150E DUP4 PUSH2 0x1290 JUMP JUMPDEST SWAP3 POP DUP3 PUSH2 0x151E JUMPI PUSH2 0x151D PUSH2 0x149A JUMP JUMPDEST JUMPDEST DUP3 DUP3 DIV SWAP1 POP SWAP3 SWAP2 POP POP JUMP JUMPDEST PUSH1 0x0 PUSH2 0x1534 DUP3 PUSH2 0x1290 JUMP JUMPDEST SWAP2 POP PUSH2 0x153F DUP4 PUSH2 0x1290 JUMP JUMPDEST SWAP3 POP DUP3 DUP3 ADD SWAP1 POP DUP1 DUP3 GT ISZERO PUSH2 0x1557 JUMPI PUSH2 0x1556 PUSH2 0x14C9 JUMP JUMPDEST JUMPDEST SWAP3 SWAP2 POP POP JUMP JUMPDEST PUSH1 0x0 PUSH1 0x40 DUP3 ADD SWAP1 POP PUSH2 0x1572 PUSH1 0x0 DUP4 ADD DUP6 PUSH2 0x129A JUMP JUMPDEST PUSH2 0x157F PUSH1 0x20 DUP4 ADD DUP5 PUSH2 0x129A JUMP JUMPDEST SWAP4 SWAP3 POP POP POP JUMP JUMPDEST PUSH1 0x0 DUP2 SWAP1 POP SWAP3 SWAP2 POP POP JUMP JUMPDEST POP JUMP JUMPDEST PUSH1 0x0 PUSH2 0x15A1 PUSH1 0x0 DUP4 PUSH2 0x1586 JUMP JUMPDEST SWAP2 POP PUSH2 0x15AC DUP3 PUSH2 0x1591 JUMP JUMPDEST PUSH1 0x0 DUP3 ADD SWAP1 POP SWAP2 SWAP1 POP JUMP JUMPDEST PUSH1 0x0 PUSH2 0x15C2 DUP3 PUSH2 0x1594 JUMP JUMPDEST SWAP2 POP DUP2 SWAP1 POP SWAP2 SWAP1 POP JUMP JUMPDEST PUSH1 0x0 PUSH2 0x15D7 DUP3 PUSH2 0x1290 JUMP JUMPDEST SWAP2 POP PUSH2 0x15E2 DUP4 PUSH2 0x1290 JUMP JUMPDEST SWAP3 POP DUP3 DUP3 SUB SWAP1 POP DUP2 DUP2 GT ISZERO PUSH2 0x15FA JUMPI PUSH2 0x15F9 PUSH2 0x14C9 JUMP JUMPDEST JUMPDEST SWAP3 SWAP2 POP POP JUMP JUMPDEST PUSH1 0x0 PUSH1 0x60 DUP3 ADD SWAP1 POP PUSH2 0x1615 PUSH1 0x0 DUP4 ADD DUP7 PUSH2 0x1266 JUMP JUMPDEST PUSH2 0x1622 PUSH1 0x20 DUP4 ADD DUP6 PUSH2 0x1266 JUMP JUMPDEST PUSH2 0x162F PUSH1 0x40 DUP4 ADD DUP5 PUSH2 0x129A JUMP JUMPDEST SWAP5 SWAP4 POP POP POP POP JUMP INVALID LOG2 PUSH5 0x6970667358 0x22 SLT KECCAK256 TSTORE REVERT CODECOPY 0xEB 0xA8 SWAP1 PUSH19 0x9886FFA7B5236477156510117319E02345D46F EXTCODESIZE 0xDB 0x2F PUSH8 0x24D964736F6C6343 STOP ADDMOD 0x1E STOP CALLER "
				},
				"gasEstimates": {
					"creation": {
						"codeDepositCost": "1148200",
						"executionCost": "infinite",
						"totalCost": "infinite"
					},
					"external": {
						"": "496",
						"bid()": "infinite",
						"cancel()": "infinite",
						"claimRefund()": "infinite",
						"currentTime()": "381",
						"end()": "infinite",
						"endTime()": "infinite",
						"highestBid()": "2518",
						"highestBidder()": "2584",
						"minimumNextBid()": "infinite",
						"nftContract()": "infinite",
						"refunds(address)": "2903",
						"seller()": "infinite",
						"startPrice()": "infinite",
						"state()": "2583",
						"timeRemaining()": "infinite",
						"tokenId()": "infinite"
					}
				},
				"methodIdentifiers": {
					"bid()": "1998aeef",
					"cancel()": "ea8a1af0",
					"claimRefund()": "b5545a3c",
					"currentTime()": "d18e81b3",
					"end()": "efbe1c1c",
					"endTime()": "3197cbb6",
					"highestBid()": "d57bde79",
					"highestBidder()": "91f90157",
					"minimumNextBid()": "9a30ae23",
					"nftContract()": "d56d229d",
					"refunds(address)": "bc3da535",
					"seller()": "08551a53",
					"startPrice()": "f1a9af89",
					"state()": "c19d93fb",
					"timeRemaining()": "e3cfef60",
					"tokenId()": "17d70f7c"
				}
			},
			"storageLayout": {
				"storage": [
					{
						"astId": 26,
						"contract": "SimpleEnglishAuction.sol:SimpleEnglishAuction",
						"label": "_status",
						"offset": 0,
						"slot": "0",
						"type": "t_uint256"
					},
					{
						"astId": 98,
						"contract": "SimpleEnglishAuction.sol:SimpleEnglishAuction",
						"label": "state",
						"offset": 0,
						"slot": "1",
						"type": "t_enum(AuctionState)84"
					},
					{
						"astId": 100,
						"contract": "SimpleEnglishAuction.sol:SimpleEnglishAuction",
						"label": "highestBidder",
						"offset": 1,
						"slot": "1",
						"type": "t_address"
					},
					{
						"astId": 102,
						"contract": "SimpleEnglishAuction.sol:SimpleEnglishAuction",
						"label": "highestBid",
						"offset": 0,
						"slot": "2",
						"type": "t_uint256"
					},
					{
						"astId": 107,
						"contract": "SimpleEnglishAuction.sol:SimpleEnglishAuction",
						"label": "refunds",
						"offset": 0,
						"slot": "3",
						"type": "t_mapping(t_address,t_uint256)"
					}
				],
				"types": {
					"t_address": {
						"encoding": "inplace",
						"label": "address",
						"numberOfBytes": "20"
					},
					"t_enum(AuctionState)84": {
						"encoding": "inplace",
						"label": "enum SimpleEnglishAuction.AuctionState",
						"numberOfBytes": "1"
					},
					"t_mapping(t_address,t_uint256)": {
						"encoding": "mapping",
						"key": "t_address",
						"label": "mapping(address => uint256)",
						"numberOfBytes": "32",
						"value": "t_uint256"
					},
					"t_uint256": {
						"encoding": "inplace",
						"label": "uint256",
						"numberOfBytes": "32"
					}
				}
			},
			"userdoc": {
				"kind": "user",
				"methods": {
					"bid()": {
						"notice": "Place a bid.         First bid must be >= startPrice.         Every subsequent bid must exceed the current highest by >= 10 %.  Minimum next bid = highestBid + (highestBid / 10)  i.e. highestBid * 110 / 100  In Remix: enter the wei amount in the VALUE field, then click bid()."
					},
					"cancel()": {
						"notice": "Seller cancels before any bids have been placed."
					},
					"claimRefund()": {
						"notice": "Out-bidders withdraw their ETH at any time.         Pull pattern protects against reentrancy (AU-9)."
					},
					"currentTime()": {
						"notice": "Current block timestamp — useful for computing deadlines in Remix."
					},
					"end()": {
						"notice": "Settle the auction after the bidding period.         Pays the seller and transfers the NFT to the winner.         Anyone may call this once endTime has passed."
					},
					"minimumNextBid()": {
						"notice": "Minimum wei required to become the new highest bidder."
					},
					"refunds(address)": {
						"notice": "AU-4: out-bidder → refundable ETH"
					},
					"timeRemaining()": {
						"notice": "Seconds left before the auction closes (0 if already past)."
					}
				},
				"version": 1
			}
		}
	}
}